:020000040800F2
:10000000784F0020E1010008732300086B210008ED
:1000100071230008770800089D34000800000000E4
:10002000000000000000000000000000490100087E
:1000300085080008000000008D0100080933000851
:10004000FB010008FB010008FB010008FB010008A0
:10005000FB010008FB010008FB010008FB01000890
:10006000FB010008FB010008FB010008FB01000880
:10007000FB010008FB010008FB010008FB01000870
:10008000FB010008FB010008FB010008FB01000860
:10009000FB010008FB010008FB010008FB01000850
:1000A000FB010008FB010008FB010008FB01000840
:1000B000FB010008FB010008FB010008FB01000830
:1000C000FB010008FB010008FB010008FB01000820
:1000D000FB010008FB010008FB010008FB01000810
:1000E000FB010008FB010008FB010008FB01000800
:1000F000FB010008FB010008FB010008FB010008F0
:10010000FB010008A9230008FB010008FB0100080F
:10011000FB010008FB010008FB010008FB010008CF
:10012000FB010008FB010008FB010008790800083A
:10013000DFF810D000F09AFA00480047455C00084C
:10014000AFF30080784F0020224B19680868B0E8B0
:10015000F00F80F30988BFF36F8F4FF0000080F33A
:1001600011884EF00D0E7047000000000648006830
:10017000006880F3088862B661B6BFF34F8FBFF3A3
:100180006F8F00DF00BF00BF08ED00E0EFF30980D4
:10019000BFF36F8F0F4B1A6820E9F00F106008B59E
:1001A0004FF0500080F31188BFF34F8FBFF36F8F74
:1001B00006F080FF4FF0000080F31188BDE8084092
:1001C00019680868B0E8F00F80F30988BFF36F8FF3
:1001D000704700BF54000020EFF305807047000017
:1001E0000648804706480047FEE7FEE7FEE7FEE7D1
:1001F000FEE7FEE7FEE7FEE7FEE7FEE77F330008E7
:1002000031010008202A04DB203A21FA02F0002103
:10021000704721FA02F3D040C2F120029140084316
:100220001946704740EA01039B0703D009E008C95B
:10023000121F08C0042AFAD203E011F8013B00F8AB
:10024000013B521EF9D27047D2B201E000F8012BF7
:10025000491EFBD270470022F6E710B513460A4646
:1002600004461946FFF7F0FF204610BD30B50B4697
:10027000014600202022012409E021FA02F59D42D6
:1002800005D303FA02F5491B04FA02F52844151EAA
:10029000A2F10102F1DC30BD2DE9F05F054600203E
:1002A00092469B4688460646814640241BE02846E7
:1002B000414647462246FFF7A5FF53465A46C01A15
:1002C000914110D311461846224600F0E1F92D1A4B
:1002D00067EB01084F4622460120002100F0D8F9C3
:1002E00017EB00094E41201EA4F10104DFDC484653
:1002F00031462A464346BDE8F09F2DE9FE4F804631
:1003000081EA0300C00F0C46009021F0004123F069
:100310000045B8EB0200A94105D24046214690466F
:100320001C460B46024623F00040104347D0270DE1
:10033000C7F30A00C3F30A510290401A0190402803
:100340006BDAC3F3130040F4801B0098924620B18F
:100350000023D2EB030A63EB0B0B01985946C0F163
:100360004002504600F094F906460D465046594664
:10037000019A00F09CF910EB08006141002487EA23
:10038000115284EAE7731A4340D0009A62B3019A8B
:10039000012A4FEA075215DC001B61EB02014FF006
:1003A000004202EA0752CDE90042001C41F58011EB
:1003B00032462B4600F09CF903B0BDE8F08F404672
:1003C0002146F9E7001B61EB0201001C41F5801397
:1003D00000185B412018A2F5001747EB030140EA23
:1003E000D570B6196D4111E06D084FEA360645EA41
:1003F000C0754FEA0752001B61EB0201001C41F57A
:10040000801149084FEA30000019514132462B460D
:1004100003B0BDE8F04F00F05CB900980122400045
:100420000023D0EB020263EBE073009821464FEA11
:10043000E074B8EB000061EB0401E9E783F00043EE
:100440005BE781F0004158E72DE9FE4F81EA0304A4
:1004500004F0004421F0004100944FF0000B23F021
:10046000004350EA01045ED052EA03045BD0C3F3B8
:100470000A54C1F30A552C44A4F2F3340194A0FBAE
:100480000254C1F3130141F48011C3F3130343F485
:10049000801301FB024400FB034E840A970A44EADE
:1004A000815447EA8357A4FB076802958D0A05FB30
:1004B00007854FEA932C04FB0C542705029D4FEA55
:1004C000065847EA1637B5EB08056EEB070C870EA2
:1004D000920E47EA811742EA8312A7FB0201B6EBAC
:1004E0000B0164EB00042B0D43EA0C335E1844EB64
:1004F0001C50DA465146E7FB0201C5F313044FEAEC
:100500000B3343EA14534FEA0432019C43EA0603D7
:10051000A4F10C040294009CCDE900B400F0E8F8CA
:1005200003B0BDE8F08F00200146F9E72DE9F04D5A
:1005300081EA030404F0004B21F0004514464FF01B
:10054000000A23F0004150EA050220D054EA0102DB
:100550001DD0C5F30A570246C5F31303C1F31300B8
:10056000C1F30A5640F4801543F48013A7EB060844
:10057000101BD64608F2FD3873EB050002D308F1D4
:10058000010801E092185B41B8F1000F03DA002086
:100590000146BDE8F08D00204FF4801106468446E8
:1005A0000EE0171B73EB050705D3121B63EB050366
:1005B00006434CEA010C49084FEA300092185B41AF
:1005C00050EA0107EDD152EA030012D082EA04009A
:1005D00083EA0501084305D0101BAB4106D2012276
:1005E000002306E000224FF0004302E06FF001021A
:1005F00053101AEB06004CEB085110EB0A0041EBCC
:100600000B01BDE8F04D00F064B8C1F30A52C1F32C
:10061000130140F2FF3341F480119A4202DA0020C4
:100620000146704740F233439A42A2F2334202DC61
:100630005242FFF7E7BD00F02BB8000030B5041EB2
:1006400071F1000404DB4FF00044404264EB01010F
:10065000141E73F1000405DB1C464FF000435242A8
:1006600063EB0403994208BF904230BD064C074D2E
:1006700006E0E06840F0010394E807009847103472
:10068000AC42F6D3FFF758FD602B0308802B03081C
:10069000202A04DB203A00FA02F100207047914042
:1006A000C2F1200320FA03F3194390407047202A37
:1006B00006DBCB17203A41FA02F043EAE07306E08A
:1006C00041FA02F3D040C2F120029140084319469A
:1006D000704710B5141E73F1000408DA401C41F194
:1006E000000192185B411A4301D120F0010010BDB6
:1006F0002DE9F04D92469B4611B1B1FA81F202E02C
:10070000B0FA80F220329046FFF7C2FF04460F464F
:1007100040EA0A0041EA0B0153465A46084313D007
:10072000114653EA010019D0C8F140025046FFF7C4
:1007300069FD05460E46504659464246FFF7A8FF5A
:10074000084305D0012004E020463946BDE8F08D7D
:100750000020054346EAE0762C4337430A986305B8
:10076000E40AA0EB08000022FD0A44EA47540A30DC
:1007700002D500200146E9E7010510196941DDE9CC
:10078000084500196941BDE8F04DA2E70FB410B566
:10079000C0B043ABFE216846429A02F091FE084C7D
:1007A0004FF0FF31206805F0EBFA694605A002F032
:1007B00077FE206805F05AFB40B010BC5DF814FBD2
:1007C0000C0000202573000070470000014601481E
:1007D00001F02CB83009002010B5044801F038F8B9
:1007E000042801D0012010BD002010BD30090020D8
:1007F00010B500F015F8012801D0012010BD074800
:1008000001F038F9040006D14FF40061034800F00C
:10081000B3FE00B10124204610BD000030090020C5
:1008200008B501208DF800009DF8000008BD00000B
:1008300038B50024009313460A460146034801F0E8
:10084000D5F900B10124204638BD00003009002050
:100850007047000038B50024009313460A4601464D
:10086000034801F0B7FA00B10124204638BD00006A
:10087000300900207047FEE7014800F0DFB80000B3
:10088000B4090020704772B6FEE70022AFF3008083
:1008900030B50E4B054601205C7A012C15D8587AEC
:1008A00000241C54587A03EB800045605D7A03F104
:1008B00008002A54587A421C5A72303008703A2084
:1008C00048702F208870CC70002030BD980A00201E
:1008D000002100F001B800000B4910B502464B7A28
:1008E0000120002B0FD01278303AD2B201EB8203F4
:1008F0005C68002C07D000200A4458601072487AC7
:10090000401E4872002010BD980A00202DE9F05FBB
:1009100090F821100024022903D0042181630124CE
:1009200085E001680A6822F00E020A6001680A6820
:1009300022F001020A603F4E3E4FB215DFF8F4C0CC
:10094000DFF8F090DFF8ECA0DFF8E8B0DFF8E4E0E3
:100950000168783F13011502ACF1640CA9F150094C
:10096000AAF13C0AABF1280BAEF1140E4FF480183B
:10097000B14227D9B9420ED0614512D049451DD0A8
:10098000514518D0594518D0714501D1424615E05E
:10099000294EB14201D1012210E0274E1436B14256
:1009A00001D110220AE0244E2836B14206D0224A54
:1009B0003C32914201D11A4600E02A461E49091FE5
:1009C0000A602BE0B94213D0614517D0494522D0C7
:1009D00051451DD059451DD0714501D142461AE0FF
:1009E000B14202D14FF0807215E0134EB14201D1F5
:1009F000012210E0104E1436B14201D110220AE05B
:100A00000D4E2836B14206D00B4A3C32914201D1FC
:100A10001A4600E02A46074980394A60012180F8D9
:100A20002110002180F82010416B01B18847204639
:100A3000BDE8F09F80000240080402402DE9F05F0D
:100A4000C16B0A6801680B68046C4FF0040808FA6F
:100A500004F8844D844E854FDFF814C2DFF81492F9
:100A6000DFF814A2DFF814B2DFF814E218EA020F7C
:100A700065D05FEA437862D50A68920603D40A68B3
:100A800022F004020A60DFF8F0814FF4806201680E
:100A900008F1140813011402414524D9A9420DD0CC
:100AA000B1420FD0B9421AD0614515D0494515D091
:100AB000514501D1120312E0594501D104220EE043
:100AC000714501D140220AE06D4D1435A94206D08E
:100AD0006B4A2832914201D11A4600E0224667490A
:100AE000091F0A6029E0A94213D0B14215D0B942CA
:100AF00020D061451BD049451BD0514502D14FF450
:100B0000800217E0414502D14FF0806212E0594562
:100B100001D104220EE0714501D140220AE0584D76
:100B20001435A94206D0564A2832914201D11A46BC
:100B300000E022464B4908394A60C16A71E04FF033
:100B4000020808FA04F818EA020F70D05FEA837806
:100B50006DD50A68920606D40A6822F00A020A6075
:100B6000012180F82110DFF810814FF40072016834
:100B700008F1140813011402414524D9A9420DD0EB
:100B8000B1420FD0B9421AD0614515D0494515D0B0
:100B9000514501D1120312E0594501D102220EE064
:100BA000714501D120220AE0354D1435A94206D005
:100BB000334A2832914201D11A4600E022462F4999
:100BC000091F0A6029E0A94213D0B14215D0B942E9
:100BD00020D061451BD049451BD0514502D14FF46F
:100BE000001217E0414502D14FF0007212E0594562
:100BF00001D102220EE0714501D120220AE0204DF0
:100C00001435A94206D01E4A2832914201D11A4613
:100C100000E02246134908394A60002180F820107C
:100C2000816A00291CD0BDE8F05F0847FFE708256E
:100C3000A540154214D01A0712D50A6822F00E02F8
:100C40000A6090F84020C36B012101FA02F25A6059
:100C5000816380F82110002180F82010016BE0E70B
:100C6000BDE8F09F080002401C0002403000024036
:100C700044000240580002406C0002400804024058
:100C80001C04024030B560B11A4B026814219A422C
:100C900009D2194B1344B3FBF1F1890001641749E0
:100CA0000AE0012030BD134B5B421344B3FBF1F16A
:100CB000890001640F490839C163022180F82110BD
:100CC000136843F6F0718B43F0E901142143D0E936
:100CD00002452C432143046921434469214384692B
:100CE00021431943116000214163012242770177BA
:100CF000084630BD08040240F8FFFDBF0000024076
:100D000070B5044600F014F90546601C02D0044892
:100D10000078044400F00CF9401BA042FAD370BDE7
:100D2000380000202DE9F84FDFF8C891002409F1C0
:100D3000040A0AF1040B23460F270BF1040ED1E03D
:100D40000125A54006EA0502AA4276D1DFF8A8C12E
:100D50004E68A6EB0C0866452BD00DDC032E34D074
:100D600005DC36B3012E19D0022E2FD11BE0112E37
:100D700016D0122E2AD119E0B8F5881F19D006DC3A
:100D8000B8F5803F15D0B8F5801F1FD111E0B8F538
:100D9000001F0ED0B8F5041F18D10AE0CB6815E08B
:100DA000CB681B1D12E0CB6808330FE0CB680C3317
:100DB0000CE08B682BB1012B4FF0080303D0456189
:100DC00004E0042302E0056100E00023FF2A01D8CB
:100DD000064601E000F104064FEA840501D9A5F1B9
:100DE0002005D6F8008007FA05FC28EA0C0803FA6B
:100DF00005F548EA0508C6F800804D68ED0070D595
:100E00003E4DAE6946F00106AE61AD6924F00306C1
:100E100005F0010500953A4D06EB050CDCF808508D
:100E2000A607360F07FA06F825EA0805DFF8D4808A
:100E3000404503D14FF0000825E052E0DFF8C880BC
:100E4000404502D14FF001081DE0DFF8C080404569
:100E500002D14FF0020816E0DFF8B480404502D11D
:100E60004FF003080FE0DFF8AC80404502D14FF0AF
:100E7000040808E0DFF8A080404502D14FF00508E3
:100E800001E04FF0060808FA06F848EA0508CCF831
:100E900008804D68D9F80060ED034D4601D5164332
:100EA00000E096432E604D68DAF80060AD035546C9
:100EB00001D5164300E096432E604D68DBF80060D4
:100EC000ED025D4601D5164300E096432E604D6865
:100ED000DEF80060AD02754601D5164300E096438A
:100EE0002E60641C0A681646E2407FF429AFBDE814
:100EF000F88F0000000401400000111000100240B3
:100F00000000014000080140000C014000100140B9
:100F10000014014000180140001C01408068084096
:100F200000D0012070470AB1016170470904FBE756
:100F3000014880687047000038000020024881683E
:100F4000027811448160704738000020074810B5CE
:100F5000016841F010010160032000F07BF80F20D0
:100F600000F006F800F024F8002010BD0020024038
:100F700070B50D4D04464FF47A712878B1FBF0F04E
:100F80000A490968B1FBF0F000F0FAFF48B9102CEB
:100F900007D200222146501E00F03CF800206C6071
:100FA00070BD012070BD000038000020CC00002082
:100FB0000F4808B5816941F001018161816901F043
:100FC00001010091C16941F08051C161C0690022F5
:100FD00000F0805000900F21901E00F01BF8054893
:100FE000416821F0E06141F00071416008BD0000FE
:100FF0000010024000000140002809DB00F01F0241
:10100000012191404009800000F1E020C0F800116A
:1010100070470000F0B40E4B1B680C46C3F302236C
:10102000C3F10705042D00D90425191D072901D294
:10103000002300E0DB1E012606FA05F1491E2140CF
:1010400099409E40761E16403143F0BC02F052BAE1
:101050000CED00E0064900F0070208684FF6FF03B8
:10106000184040EA0220034A10430860704700001D
:101070000CED00E00000FA052DE9F0470F460500F1
:1010800061D0434E306800F00700B84209D23068A2
:1010900020F0070038433060306800F00700B842A5
:1010A00051D128683B4C810712D5400703D56068B1
:1010B00040F4E06060602878000703D5606840F481
:1010C000605060606068A96820F0F00008436060CC
:1010D0002878C00728D06868012810D02168022825
:1010E00010D0890700292EDA616821F0030101433D
:1010F0006160FFF71DFF804641F288390DE02168ED
:101100008903EFE78901EDE7FFF712FFA0EB080184
:10111000494502D90320BDE8F0876068696800F09E
:101120000C00B0EB810FEFD1306800F00700B8423F
:101130000BD9306820F0070038433060306800F089
:101140000700B84201D00120E5E72878400705D51F
:101150006068E96820F4E060084360602878000770
:1011600006D56068296920F4605040EAC1006060DB
:1011700000F038F86168084AC1F30311515CC840B7
:101180000649086006480068FFF7F2FE0020C2E743
:1011900000200240001002402C2B0308CC0000204D
:1011A0003C0000200448054900684968044AC1F32E
:1011B0000221515CC8407047CC0000200010024062
:1011C0003C2B03080448054900684968044AC1F3F8
:1011D000C221515CC8407047CC0000200010024082
:1011E0003C2B030812A185B00FC98DE80F0014A095
:1011F000144A006804905168134801F00C03042B52
:1012000010D0082B0ED1C1F38343C9031DF803008E
:101210000AD5516804AAC1F34041515C0A4A5043BF
:10122000B0FBF1F005B0704708494843FAE7000009
:1012300002030405060708090A0B0C0D0E0F101017
:10124000010200000010024000127A0000093D0077
:101250002DE9F84F040070D02078C04DC00749D068
:101260006868C0F38100012807D06868C0F3810076
:10127000022809D16868C00306D52868800339D5DB
:1012800060680028E7D035E06068B0F5803F0BD09B
:1012900010B1B0F5A02F11D0286820F4803028605C
:1012A000286820F4802002E0286840F4803028601C
:1012B000606890B1FFF73CFE06460AE0286840F4FB
:1012C00080202860F0E700BFFFF732FE801B642813
:1012D00073D828688003F7D50CE0FFF729FE06468F
:1012E00005E000BFFFF724FE801B6428F0D82868C3
:1012F0008003F7D420789A4E80074FF001094FF011
:10130000000839D5686810F00C0F07D06868C0F382
:101310008100022809D16868C00306D428688007C4
:1013200014D52069012808D110E02069B0B1C6F8B1
:101330000090FFF7FDFD074605E00AE1FFF7F8FD25
:10134000C01B0228C4D828688007F7D528686169BF
:1013500020F0F80040EAC10028600DE0C6F80080E7
:10136000FFF7E6FD074604E0FFF7E2FDC01B022899
:1013700023D828688007F7D4207800072CD579482F
:10138000A169D9B1C0F80090FFF7D2FD074604E08B
:10139000FFF7CEFDC01B02280FD8686A8007F7D57B
:1013A00071484FF4FA510068B0FBF1F0009000BFB3
:1013B0000098411E0091FAD20EE080E0C0F8008053
:1013C000FFF7B6FD074604E0FFF7B2FDC01B022899
:1013D00075D8686A8007F7D42078400760D5E86937
:1013E0000027C00008D4E86940F08050E861E8694F
:1013F000012700F0805000905C480168C90513D4B3
:101400000168834641F480710160FFF791FD8246D7
:1014100006E000BFFFF78CFDA0EB0A0064284ED861
:10142000DBF80000C005F5D5E06801280AD008B156
:10143000052813D0286A20F001002862286A20F0CD
:10144000040002E0286A40F001002862E06841F2EE
:10145000883B98B1FFF76CFD82460BE0286A40F0AC
:1014600004002862EEE700BFFFF762FDA0EB0A016F
:1014700059455AD8286A8007F6D50CE0FFF758FD81
:10148000824605E0FFF754FDA0EB0A0159454CD810
:10149000286A8007F6D41FB1E86920F08050E8611F
:1014A000E06988B36968C1F38101022944D0022848
:1014B000C6F8608004D0FFF73BFD044638E034E016
:1014C000FFF736FD074604E0FFF732FDC01B022898
:1014D0002BD828688001F7D4206AB0F5803F05D169
:1014E0006868A16820F4003008436860D4E9080106
:1014F0000843696821F4741108436860C6F8609075
:10150000FFF716FD044606E025E000BFFFF710FDDB
:10151000001B022809D828688001F7D51BE000BF0E
:10152000FFF706FD001B022802D90320BDE8F88F53
:1015300028688001F4D40EE00128F7D06868226A98
:1015400000F48031914204D1616A00F47010884245
:1015500001D00120EAE70020E8E700000010024087
:101560000000424280044242CC0000200070004053
:1015700010B5FFF729F910BD2DE9FE4304460026FA
:1015800003200D4684F83400606C03285ED0B5F566
:10159000805F5BD04FF4006700204FF08068BD4251
:1015A0001FD18146009001900021206800F0F8FED4
:1015B000800113D46946204601F064FA07000DD17A
:1015C0000198400334D5B4F850000104206800F0BD
:1015D00023FF070002D10221206823E0A06B3843DB
:1015E00028E01DB1A06B40F0006023E08146009030
:1015F00001900021206800F0D3FE8001EED46946FE
:10160000204601F03FFA0700E8D10198C0030FD54A
:10161000B4F850000104206800F0FEFE0700DDD1A0
:101620000021206800F045FF0700D7D14F46D5E7DD
:101630004746D3E7A063A06B144F4FF0010848B1B1
:101640002068876384F8348001260EE0A06B40F0A8
:101650008050EFE7211DD4E9050C0EC9CDE90050FB
:10166000CDF808C0206800F0A5FE4FF40071206896
:1016700000F006FF28B121688F63A16B0143A163CD
:10168000012684F834803046BDE8FE83FF05400023
:1016900070470000F0B5426E920F0A70426EC2F3BE
:1016A00083624A70426EC2F301628A70426E120C0B
:1016B000CA70B0F86420120A0A7190F864204A7166
:1016C000826E120DCA80826EC2F303420A72B0F8B3
:1016D0006820C2F3C0324A72B0F86820C2F3803288
:1016E0008A72B0F86820C2F34032CA72B0F868203B
:1016F000C2F300320A7300264E73426C4FF4007539
:10170000012462B1012A3AD0026847499163816B92
:1017100041F08051816380F834400120F0BDB0F881
:101720006820C36E9205120D42EA93720A61C26E7E
:10173000C2F3C2620A75C26EC2F302624A75C26E19
:10174000C2F342528A75C26EC2F38242CA75C26E39
:10175000C2F3C2320A760A69521C42650B7E03F05C
:1017600007039B1C9A4042650B7A03F00F0704FAAB
:1017700007F383655B0A5A43C0E917250EE090F82A
:101780006820C36E9206920A42EA13420A610A690D
:10179000521C92024265C0E91652056630F86C2F61
:1017A000C2F3803201F8192F0288C2F3C6124A70C0
:1017B000027802F07F028A704268D20FCA704268D3
:1017C000C2F341720A714268C2F382624A7142688E
:1017D000C2F383528A714268C2F34052CA710E72D8
:1017E0004268C2F300424A728288C2F3C0328A72EF
:1017F0008288C2F38032CA728288C2F340320A738E
:101800008288C2F300324A738288C2F381228A73CB
:101810008288C2F30122CA730079C0F346000874BB
:101820004C740020F0BD0000FF054000426C0A60CF
:10183000826C4A60C26C8A60026DCA60426D0A6145
:10184000826D4A61C26D8A61006EC8610020704776
:1018500070B50446B0F8500000250104206800F07F
:1018600032FF18B1A16B0143A16304E0002120689D
:1018700000F096FD0546C5F3432070BDF8B5056B35
:1018800004460068416B09041BD5290719D5D4E922
:101890000A56002E14D00027206800F0A5FD05F898
:1018A000010B010A05F8011B010C05F8021B000ED3
:1018B000361F7F1C05F8010C082FEDD3C4E90A562A
:1018C000F8BD416B4FF00006C9054FF0010744D544
:1018D000390281632068C16B4CF23A129143C163B3
:1018E0002068C16A21F00101C16228071DD515F0E9
:1018F000220F09D0206800F017FF28B1A16B014327
:10190000A1632046FFF7C4FE216840F23A50886385
:1019100084F834702663A80703D0204600F052FAFA
:10192000F8BD204600F052FAF8BD2806FCD5A806FE
:1019300009D5206800F0F8FE28B1A16B0143A1632E
:101940002046FFF7A5FEA807EED12068C16A21F066
:101950000801C16284F83470E3E7416B490424D57F
:10196000290722D5D4E90856002EDDD05FF0000704
:1019700015F8010B009015F8011B361F40EA0120F5
:10198000009015F8021B40EA0140009015F8011C78
:1019900040EA016000906946206800F038FD7F1C35
:1019A000082FE5D3C4E90856F8BD416B11F03A0F92
:1019B000FAD0416B890703D5A16B41F00201A16305
:1019C000416B090703D5A16B41F00801A163416B8D
:1019D000890603D5A16B41F02001A163416BC906C3
:1019E00003D5A16B41F01001A16340F23A7181630C
:1019F0002068C16B40F23A329143C163206800F025
:101A000093FEA16B0843A063280706D584F83470C1
:101A100026632046FFF73CFEF8BD2806FCD515F0EE
:101A2000300F0CD0E16B11484863E06BFEF76EFF9E
:101A30000028F1D0E06BBDE8F84001F001B8A8073C
:101A40000CD0216C0A484863206CFEF75FFF002829
:101A5000E2D0206CBDE8F84000F0D0BFA66384F867
:101A6000347026632046FFF783FDF8BD412A000845
:101A7000FD29000870B504000ED094F8340000254C
:101A800018B92577204600F04BF8032084F834007D
:101A9000204600F00BF808B1012070BDA563256356
:101AA000012084F83400002070BD0000FEB5002540
:101AB000044676200095CDE9015029460B460A469A
:101AC000206800F077FC28BB134E46F8A05F206822
:101AD00000F082FC01253560204601F0B7F828B1FE
:101AE00084F83450A16B0143A16313E0204601F058
:101AF00036F80028F4D14FF40071206800F0C0FCE3
:101B0000002808D0226805499163A16B0143A163B5
:101B100084F834500120FEBD00003042FF05400033
:101B2000F0B585B00026054600960196029603960C
:101B30000068284988424AD12749486940F48060B2
:101B40004861486900F480600490886940F01000A2
:101B50008861886900F010000490886940F02000D6
:101B600088618869022400F0200004904FF4F85046
:101B7000CDE900040327694603971848FFF7D2F818
:101B80000420CDE90004694603971548FFF7CAF819
:101B9000154C1448C4E900068020C4E902608000A6
:101BA0002061800060612020C4E906062046FFF71E
:101BB00069F808B1FEF767FE2C64EC630022062189
:101BC00031206562FFF726FA3120FFF715FA05B0DC
:101BD000F0BD0000008001400010024000100140F4
:101BE0000014014044040240B40900202DE9F04FE4
:101BF00087B09B4616460D460446FFF799F90090BC
:101C00003DB194F83400012807D0A06B40F000509B
:101C10000DE0A06B40F0006009E00020A063E26DE1
:101C200006EB0B01914204D9A06B40F00070A06359
:101C300086E0032184F834102168C862616C0129B0
:101C400000D076024FF0FF3101914FEA4B21029113
:101C50004FF0010803AA902102278146CDF8188091
:101C600082E8820201A9206800F084FBBBF1010F29
:101C700005D927633146206800F096FC05E0C4F8DA
:101C800030803146206800F0A8FCDFF834A130B184
:101C90002268C2F838A0A16B0143A1634CE0029E08
:101CA0001EE0406B000413D596B10027206800F0B9
:101CB0009BFB05F8010B010A05F8011B010C05F857
:101CC000021B000E361F7F1C05F8010C082FEDD3F8
:101CD000FFF72EF90099411A109881421DD2E0B108
:101CE0002068426B40F22A310A42DAD0416BC905C2
:101CF00009D5BBF1010F06D9616C032903D000F0AF
:101D000013FD0028C4D12068416B09071AD5C0F81B
:101D100038A0A06B40F0080050E02168C1F838A05E
:101D2000A06B40F00040A06384F83480C4F8309089
:101D3000032007B0BDE8F08F84F83480C4F83090F9
:101D40000120F6E7416B890705D5C0F838A0A06BE4
:101D500040F0020032E0416B89061BD5C0F838A084
:101D6000A06B40F0200029E000F03EFB05F8010BDD
:101D7000010A05F8011B010C05F8021B000E05F80D
:101D8000010C361FFFF7D4F80099411A10988142D0
:101D90000ED268B12068416B890201D5002EE3D1D3
:101DA000216840F23A50886384F834800020C0E70C
:101DB0002168C1F838A0A06B40F00040A063BBE7E9
:101DC000FF05400010B5FEF743FD10BD10B5FEF74E
:101DD00051FD10BD2DE9F04F8DB09B4616460D46C6
:101DE0000446FFF7A5F80A903DB194F834000128A5
:101DF00007D0A06B40F000500DE0A06B40F00060F9
:101E000009E00020A063E26D06EB0B01914204D9CA
:101E1000A06B40F00070A0637AE0032184F83410D6
:101E20002168C862616C012900D076024FF0FF3151
:101E300003914FEA4B2104919021CDE905104FF019
:101E40000109CDE90709824603A9206800F092FA4A
:101E5000BBF1010F06D9202020633146206800F035
:101E60007DFC05E0102020633146206800F08FFCE7
:101E70005FEA000806D0216840488863A06B40EA0A
:101E8000080071E0049E27E0406B40041CD5DEB1E1
:101E90005FF0000715F8010B009015F8011B361FC5
:101EA00040EA0120009015F8021B40EA0140009032
:101EB00015F8011C40EA016000906946206800F0B6
:101EC000A6FA7F1C082FE5D3FFF732F80A99411ACA
:101ED0001698814220D2F8B12068416B40F21A3244
:101EE0001142D1D0416BC90523D5BBF1010F20D9D7
:101EF000616C03291DD000F017FCD0B122681F4986
:101F00009163A16B0143A16384F83490C4F830A0BD
:101F100001200DB0BDE8F08F216818488863A06BE0
:101F200040EA0800A06384F83490C4F830A003208D
:101F3000EFE72068416B090705D510498163A06B65
:101F400040F0080010E0416B890705D50B4981631B
:101F5000A06B40F0020007E0416BC90606D50749B7
:101F60008163A06B40F01000A063CDE740F23A51CE
:101F7000816384F834900020CBE70000FF05400027
:101F800010B5401EB0F1807F01D3012010BD4FF08D
:101F9000E02460610F21601701F0ACFA0020A0611D
:101FA00007202061002010BD70B5040004D094F813
:101FB0003D00002510B106E0012070BD84F83C50C2
:101FC000204600F023F8242084F83D002068C168F2
:101FD00021F40051C160204601F0D2F92068016966
:101FE00021F4904101612068416921F02A01416199
:101FF0002068C16841F40051C1602564202084F844
:102000003D0084F83E00002070BD000070B586B031
:1020100000240094019402940394234E03682349FE
:1020200002200322224DB34219D18B6943F480432D
:102030008B618B6903F4804304938B6943F0040341
:102040008B618969039201F0040104910102CDE9D9
:10205000001069462846FEF765FE28151BE0154E60
:10206000B3421FD1CB6943F40033CB61CB6903F496
:10207000003304938B6943F004038B6189690392F5
:1020800001F0040104910421CDE9001069462846BD
:10209000FEF748FE0820CDE9000469462846029470
:1020A000FEF740FE06B070BD00380140001002404F
:1020B00000080140004400402DE9F843044690F830
:1020C0003D001F4616460D4620284CD1C5B1BEB175
:1020D00094F83C00012846D0012084F83C004FF0E1
:1020E0000008C4F84080212084F83D00FEF720FF5E
:1020F000A6848146E684A068B0F5805F03D004E042
:102100000120BDE8F883206928B12E465FF0000564
:1021100084F83C800EE00026FAE78021204601F09A
:102120008BF9A0B9AEB116F8010B21684860E08CBC
:10213000401EE084E08C4B464FF0000200970028E0
:10214000EBD14FF04001204601F076F930B1032089
:10215000D7E735F8020BC0F30800E6E7202084F843
:102160003D000020CDE70220CBE7FEE7094808B597
:10217000416941F0020141614069002200F0020022
:10218000009005213B20FEF745FFBDE808403B20BD
:10219000FEF732BF0010024010B504490448FEF7B4
:1021A00074FB0249491E087010BD00004E0000205B
:1021B000182B030810B5064803F018FE054C044A16
:1021C0000021E060243A044803F07EFEA06010BDC8
:1021D000047E000800000020DD3100082DE9F043F6
:1021E00085B00024384800940194029403948169D6
:1021F00041F010018161816901F010010491816950
:1022000041F080018161816901F08001049181695F
:1022100041F004018161816901F004010491816947
:1022200041F008018161816901F00801049181692F
:1022300041F0200181618069244F00F020004FF4BB
:10224000C0750490012229463846FEF76CFEDFF87F
:102250008080002201214046FEF765FEDFF8749081
:10226000012223214846FEF75EFE7814CDE90004E2
:10227000694640460294FEF755FD00950226012569
:102280000396CDE9015469463846FEF74BFD03201D
:10229000CDE902400095694601954046FEF742FDB2
:1022A000CDE9005469460C480294FEF73BFD23201B
:1022B000CDE90005CDE9024669464846FEF732FD04
:1022C00005B0BDE8F083000000100240001C014092
:1022D00000100140000C0140000801400748064979
:1022E0004FF400620160002141608160C0E9031287
:1022F0004161072181617047008001403009002061
:102300000C4810B50A4901604FF4E13141600021E9
:1023100081600C22C160C0E904128161C161FFF7D4
:1023200043FE002803D0BDE81040FEF7ACBA10BD54
:1023300000380140F80900200C4810B50A49016036
:102340004FF4E1314160002181600C22C160C0E99D
:1023500004128161C161FFF727FE002803D0BDE8A8
:102360001040FEF790BA10BD004400403C0A002027
:10237000FEE7FEE70A6842624A688262D1E9022308
:102380001A43D1E904310B43C16A1A4321F0F70122
:102390001143C16200207047006800F003007047DD
:1023A00008444069704700000148FFF767BA000021
:1023B0003009002070B50DF1100C11439CE870003D
:1023C0002343194329434268314347F6FF639A4345
:1023D0000A434260002070BD10B503210160022055
:1023E000FEF78EFC002010BDD0F8800070470A6810
:1023F0008260D1E901231A43D1E903310B43C1685B
:102400001A436FF30B011143C16000207047096844
:10241000C0F880100020704710B586B00446372001
:10242000CDE9001040200290002003904FF480601E
:10243000049069462046FFF7DAFF41F288323721DF
:10244000204600F0BDF906B010BD000010B50446EE
:102450000A4886B001432920CDE9001040200290AF
:10246000002003904FF48060049069462046FFF7F7
:10247000BEFF204600F05CFA06B010BD00001080E0
:1024800010B586B004461020CDE90010402002901F
:10249000002003904FF48060049069462046FFF7C7
:1024A000A6FF41F288321021204600F089F906B0DB
:1024B00010BD10B586B004460620CDE900104020BE
:1024C0000290002003904FF48060049069462046FB
:1024D000FFF78DFF41F288320621204600F070F9A7
:1024E00006B010BD30B585B00024054600940194B7
:1024F0004FF480600294CDE9034069462846FFF717
:1025000076FF0B484FF4FA510068B0FBF1F041F24E
:1025100088314843401E03D24FF0004005B030BD23
:10252000696B0906F6D5C520A8632046F6E70000CA
:10253000CC00002070B585B004464FF4D5700090F3
:1025400001A908204025002681E86100C00104900F
:1025500069462046FFF74BFF12484FF4FA510068D6
:10256000B0FBF1F041F288314843401E03D24FF0F6
:10257000004005B070BD616B11F0450FF5D0090545
:10258000F3D4606B400701D5042003E0606BC00703
:1025900002D00120A063ECE7606B400600D5A56384
:1025A0003046E6E7CC00002010B586B00446122085
:1025B000CDE9001040200290002003904FF480608D
:1025C000049069462046FFF712FF41F2883212213B
:1025D000204600F0F5F806B010BD10B586B00446F0
:1025E0001120CDE9001040200290002003904FF40C
:1025F0008060049069462046FFF7F9FE41F2883278
:102600001121204600F0DCF806B010BD10B586B0F0
:1026100004460720CDE900204020029000200390CE
:102620004FF48060049069462046FFF7E0FE41F2D7
:1026300088320721204600F0C3F806B010BD10B55F
:1026400086B0044600210220CDE90010C020CDE96B
:1026500002014FF48060049069462046FFF7C7FEF0
:10266000204600F03DF906B010BD10B586B0044616
:102670000920CDE90010C0200290002003904FF403
:102680008060049069462046FFF7B1FE204600F0C6
:1026900027F906B010BD10B586B0044600213320DE
:1026A000CDE900104020CDE9020100010490694607
:1026B0002046FFF79CFE41F288323321204600F08D
:1026C0007FF806B010BD10B586B004460D20CDE9E8
:1026D000001040200290002003904FF4806004908E
:1026E00069462046FFF783FE41F288320D212046DD
:1026F00000F066F806B010BD30B585B00C46054652
:1027000000210320CDE900104020CDE902010001A5
:10271000049069462846FFF76AFE224603212846B0
:1027200000F028F905B030BD10B586B00446002190
:102730000C20CDE900104020CDE9020100010490F9
:1027400069462046FFF753FE034A0C21204600F05D
:1027500037F806B010BD000000E1F50510B586B0F1
:1027600004461920CDE9001040200290002003907B
:102770004FF48060049069462046FFF738FE41F22E
:1027800088321921204600F01BF806B010BD10B5A4
:1027900086B004461820CDE90010402002900020A9
:1027A00003904FF48060049069462046FFF71FFEB7
:1027B00041F288321821204600F002F806B010BD20
:1027C000454B10B51B684FF4FA54B3FBF4F3534375
:1027D0005B1E02D24FF0004010BD426B12F0450F5D
:1027E000F6D01205F4D4426B520703D5042181635D
:1027F000084610BD426BD20702D00121816305E07B
:10280000C52282630269D2B28A4201D0012010BD82
:102810000021FFF7C5FD3149084201D1002010BD5C
:10282000002802DA4FF0007010BD410001D54020B1
:1028300010BD810001D5802010BDC10002D54FF42C
:10284000807010BD010102D54FF4007010BD410130
:1028500002D54FF4806010BDC10102D54FF4006075
:1028600010BD010202D54FF4805010BD410202D5C7
:102870004FF4005010BD810202D54FF4804010BDCE
:10288000C10202D54FF4004010BD410302D54FF400
:10289000003010BD810302D54FF4802010BDC1036C
:1028A00002D54FF4002010BD010402D54FF4801072
:1028B00010BD410402D54FF4001010BD810402D5B3
:1028C0004FF4800010BD000702D54FF4000010BD8A
:1028D0004FF4803010BD0000CC00002008E0FFFD68
:1028E00012494FF4FA520968B1FBF2F141F2883211
:1028F0005143491E02D24FF000407047426B12F024
:10290000450FF6D01205F4D4416B490703D50421D5
:10291000816308467047416BC90703D00121816379
:1029200008467047C521816300207047CC00002015
:102930000F494FF4FA520968B1FBF2F141F28832C3
:102940005143491E02D24FF000407047426B12F0D3
:10295000450FF6D01205F4D4416B490703D5042185
:10296000816308467047C5218163002070470000DD
:10297000CC00002030B5204B4FF4FA541B68B3FB59
:10298000F4F341F2883463435B1E02D24FF00040FF
:1029900030BD446B14F0450FF6D02405F4D4436BDE
:1029A0005B0703D504218163084630BD436BDB0719
:1029B00002D00121816303E00369DBB28B4201D0C5
:1029C000012030BDC52181630021FFF7E9FC10F42F
:1029D000604F04D0410406D54FF4005030BD000CC8
:1029E0001080002030BD000402D54FF4805030BD6F
:1029F0004FF4803030BD0000CC00002010B5446A98
:102A000040F23A50216888632046FEF721FF0121F9
:102A100084F8341000212163062801D0052805D14F
:102A20002068FFF781FEA16B0843A063A06B00281C
:102A3000204602D0FEF72CFE10BDFEF799FD10BD1A
:102A400010B5446A40F23A50216888632046FEF788
:102A5000FFFE012184F8341000212163062801D0F3
:102A6000052805D12068FFF75FFEA16B0843A0632E
:102A7000A06B0028204602D0FEF70AFE10BDFEF72C
:102A800077FD10BD2DE9F04788B00D460446FEF7EE
:102A90004FFA0026824600960196374608212068A4
:102AA000FFF7EEFC002829D1B4F85000010420689B
:102AB000FFF7B2FC002821D1401E4FF00808CDE9F5
:102AC000020830204FF00209CDE904090120CDE9C8
:102AD000067002A92068FFF74DFC2068FFF7DBFDB8
:102AE00000280BD16F462068416B11F02A0F08D0E7
:102AF000416B09071AD5C0F83880082008B0BDE836
:102B0000F087416B890205D5FFF76EFC47F8260078
:102B1000761C02E0416B8904EAD5FEF709FAA0EBC6
:102B20000A00401CDFD14FF00040E7E7416B890706
:102B300003D5C0F838900220E0E7416B890603D541
:102B4000202181630846D9E740F23A518163019818
:102B500000BA2860009800BA68600020CEE710B57F
:102B600090B004460120ADF838002068FFF714FC4F
:102B7000002854D0606C032842D02068FFF75FFD26
:102B800000284AD100212068FFF70AFC6067042171
:102B90002068FFF705FCA06708212068FFF700FC0C
:102BA000E0670C212068FFF7FBFBC4F88000606C35
:102BB000032825D00EA92068FFF79EFD00282CD100
:102BC000606C03281CD0BDF8380020650104206823
:102BD000FFF74BFD002820D100212068FFF7E0FB24
:102BE000606604212068FFF7DBFBA06608212068EF
:102BF000FFF7D6FBE0660C212068FFF7D1FB2067CA
:102C000004212068FFF7CCFB000DE06403A92046F7
:102C1000FEF740FD30B14FF0805010B010BD4FF0C6
:102C20008060FAE7B4F85000002302042068FFF740
:102C3000EDFC0028F1D104F1100007C88DE8070071
:102C400094E80F00FFF7B6FB0020E6E72DE9F84F08
:102C50000026044600963546B0460068FFF742FC61
:102C6000002827D12068FFF765FC4FF0805B4FF00C
:102C700001094FF6FF7748B1A6642068FFF732FCE0
:102C8000002817D1A06C012802D020E0C4F8489099
:102C900000212068FFF7C0FB58B918E00021206828
:102CA000FFF7BAFB002805D151462068FFF7CEFB9D
:102CB00010B15846BDE8F88F00212068FFF770FB7F
:102CC00005464FEAD0780098401C009002E0DFF8FB
:102CD0002CA00098B84202D2B8F1000FDED00098C4
:102CE000B84202D34FF08070E4E7680002D5C4F820
:102CF000449000E066640020DCE70000000010C1A2
:102D000070B5574957A000F0CBFB012254495748F2
:102D100002F044F9564C207003F028F921780D296F
:102D200008D0002924D053A000F0BAFB207803F08B
:102D30001DF9FEE758A000F0B3FB002211464848F9
:102D400001F090FE207018B15EA000F0A9FBFEE734
:102D500062A000F0A5FB01224149002002F01EF90B
:102D6000207001223E49414802F018F9207002E02B
:102D700062A000F095FBC82002F0ACFF69A000F053
:102D80008FFB0A2271A1754802F036F920700028E5
:102D900024D073A000F084FB4FF47A7002F09AFF05
:102DA00076A000F07DFB012268A16C4802F024F9B6
:102DB0002070002830D003F0D9F87AA000F070FB22
:102DC000664801F0E1FC01222549002002F0E6F806
:102DD0002070BDE870402248FDF77ABD77A000F072
:102DE0005FFB234B28221B1D03F10C015B4802F003
:102DF00031FB2070011E07D080A000BF00F050FB07
:102E0000564801F0C1FCC7E783A0616800F048FBA9
:102E100017498AA01031F1E790A000F041FB00258E
:102E20004FF4806669004D4801F0DAFC104B3246E1
:102E30001B1D8F49494802F0EBF9207048B101464B
:102E40008CA000BF00F02CFB6D1CEDB2042DE9D965
:102E5000B6E78FA0616800F023FB854995A0F1E7F4
:102E60004E000020A1B725730D0A0000D4040020F5
:102E700000000020A3A1A3A15344BFA8B9D2D4D875
:102E8000CEC4BCFECFB5CDB3CAA7B0DCA1A3282564
:102E900064290D0A00000000A1B75344BFA8BBB9C4
:102EA000C3BBD3D0CEC4BCFECFB5CDB3A3ACBCB4F2
:102EB000BDABBDF8D0D0B8F1CABDBBAF2E2E2E0D24
:102EC0000A000000A1B6A1B6B8F1CABDBBAFCAA73F
:102ED000B0DCA1A3A1B7A1B70D0A0000A1B753446C
:102EE000BFA8D2D1B3C9B9A6B8F1CABDBBAFCEC4D1
:102EF000BCFECFB5CDB3A1A30D0A0000A1B7CEC4CF
:102F0000BCFECFB5CDB3B9D2D4D8B3C9B9A6A3ACA2
:102F1000BFC9D2D4BDF8D0D0B6C1D0B4B2E2CAD401
:102F20000D0A00002A2A2A2A2A2A20BCB4BDABBDD9
:102F3000F8D0D0CEC4BCFED0B4C8EBB2E2CAD42E16
:102F40002E2E202A2A2A2A2A2A0D0A00CED2B5C4D9
:102F5000CEC4BCFE3030312E7478740004070020DB
:102F6000A3A1A3A1B4F2BFAA2FB4B4BDA8CEC4BC80
:102F7000FECAA7B0DCA1A30D0A0000002A2A2A2A53
:102F80002A2A20BCB4BDABBDF8D0D0CEC4BCFEB69E
:102F9000C1C8A1B2E2CAD42E2E2E202A2A2A2A2A59
:102FA0002A0D0A00A3A1A3A1B4F2BFAACEC4BCFEFD
:102FB000CAA7B0DCA1A30D0A00000000A1B7B4F2BB
:102FC000BFAA2FB4B4BDA84661744673B6C1D0B4CD
:102FD000B2E2CAD4CEC4BCFE2E747874CEC4BCFE99
:102FE000B3C9B9A6A3ACCFF2CEC4BCFED0B4C8EB73
:102FF000CAFDBEDDA1A30D0A00000000A3A1A3A18C
:10300000CEC4BCFED0B4C8EBCAA7B0DCA3BA282596
:1030100064290D0A00000000A1B7CEC4BCFED0B4E4
:10302000C8EBB3C9B9A6A3ACD0B4C8EBD7D6BDDA48
:10303000CAFDBEDDA3BA25640D0A0000A1B7CFF218
:10304000CEC4BCFED0B4C8EBB5C4CAFDBEDDCEAAAA
:10305000A3BA0D0A25730D0A00000000A1B7B4F24F
:10306000BFAACEC4BCFEB3C9B9A6A1A30D0A000075
:10307000D4000020A3A1A3A1CEC4BCFEB6C1C8A1A8
:10308000CAA7B0DCA3BA282564290D0A00000000F5
:10309000A1B7CEC4BCFEB6C1C8A1B3C9B9A62CB6EF
:1030A000C1B5BDD7D6BDDACAFDBEDDA3BA25640D54
:1030B0000A000000A1B7B6C1C8A1B5C3B5C4CEC44B
:1030C000BCFECAFDBEDDCEAAA3BA0D0A2573200D33
:1030D0000A00000010B5064C01202070FDF788FBA7
:1030E00018B9207820F001002070207810BD000071
:1030F0004C00002010B5124888B014460078C00774
:1031000002D0032008B010BDB9B1012905D00229B1
:1031100008D003290CD00420F4E76846FDF756FBDD
:10312000069809E06846FDF751FB0798208004E007
:103130006846FDF74BFB079820600020E2E700009F
:103140004C0000202DE9F0411E4617460846012597
:10315000094C0A4B32463946FDF76AFB28B109E0B3
:10316000641E02D20120BDE8F081FDF735FB002886
:10317000F6D100252846F6E7A086010000E1F50516
:1031800010B5064C01202070FDF726FB18B92078F9
:1031900020F001002070207810BD00004C000020BD
:1031A0002DE9F0411E46174608460125094C0A4BF9
:1031B00032463946FDF74EFB28B109E0641E02D2C3
:1031C0000120BDE8F081FDF707FB0028F6D10025BE
:1031D0002846F6E7A086010000E1F505404C414D88
:1031E0001AE0012211462046FDF79DFE0122022130
:1031F0002046FDF798FE002220212046FDF793FE91
:103200000A2002F067FD01212846FDF787FE01280C
:10321000E7D1642002F05EFD01212846FDF77EFE25
:103220000128F0D1012211462046FDF77CFE002244
:1032300020212046FDF777FE002202212046FDF7DF
:1032400072FE4FF47A75284602F044FD01220221F5
:103250002046FDF768FE002220212046FDF763FE90
:10326000002201212046FDF75EFE284602F032FDD5
:103270001DA0FDF78BFA002220212046FDF753FE0A
:10328000002201212046FDF74EFE002202212046A9
:10329000FDF749FEFFF734FD012220212046FDF70E
:1032A00042FE012211462046FDF73DFE0122022189
:1032B0002046FDF738FE0F4C002280212046FDF706
:1032C00032FE284602F006FD012280212046FDF74D
:1032D0002AFE09A0FDF75AFA284602F0FBFCEBE7AC
:1032E000000C014000080140504F574552204F4EFE
:1032F00000000000001C0140636F636F67756F6A18
:1033000069610D0A0000000010B5FDF717FE04F01A
:1033100075FB012803D0BDE8104003F067BF10BD66
:1033200030B58FB028216846FCF795FF14210AA814
:10333000FCF791FF01210804CDE90010002402945C
:1033400002250491CDE907504FF4E010099068463A
:10335000FDF77EFF08B172B6FEE70F20CDE90A0542
:103360004FF48060CDE90C4002210AA80E94FDF7CD
:1033700083FE002801D072B6FEE70FB030BD704763
:1033800070B5044600680169E26821F440511143B8
:1033900001612169A0680843616908432168CA681E
:1033A00041F20C639A430243CA6020684169A269F2
:1033B00021F44071114341611E492068884202D1C5
:1033C000FDF700FF01E0FDF7EDFE00EBC00101EBB2
:1033D0000012606864218000B2FBF0F3B3FBF1F3EC
:1033E0006FF018067343B2FBF0F5B2FBF0F605EB95
:1033F0008305322303EB0515B5FBF1F5B6FBF1F6BA
:1034000005F0F00505EB0615B2FBF0F6B2FBF0F0A7
:10341000B0FBF1F06FF01802504306EB800003EBB5
:103420000010B0FBF1F0216800F00F002844886024
:1034300070BD0000003801402DE9F0419846174664
:103440000E460446069D1DE0681C1BD02DB1FDF7FD
:103450006FFDA0EB0800A84214D92068C16821F4D0
:10346000D071C1602068416921F0010141612020D3
:1034700084F83D0084F83E00002084F83C000320DE
:10348000BDE8F0812068006836EA000004D0002022
:10349000B842D9D00020F3E70120F9E7FEE70000A9
:1034A0000FB4054B10B503A9044A029800F004F9C3
:1034B00010BC5DF814FB0000E1590008D0000020AA
:1034C0007CB50C001D461646014601D0601E00E08A
:1034D0000020CDE90010064B6A462946304600F030
:1034E000EBF8002C02D0009A002111707CBD000086
:1034F000BF3D00080907090E002804DB00F1E020A9
:1035000080F80014704700F00F0000F1E02080F810
:10351000141D704702E008C8121F08C1002AFAD122
:1035200070477047002001E001C1121F002AFBD143
:10353000704700002DE9FF5F82B00021DDE9043013
:10354000020DDDF840B0034318D044F61050A2F24B
:10355000FF3242431514119801281FD0A5EB0B0030
:10356000401C5FEA000A4FF000064E4FDFF838912A
:10357000B046504615D5CAF1000413E01198012455
:103580004AA3012801D16FEA0B010298119AC0E900
:103590000031C0E9024206B0BDE8F09FCBF1000067
:1035A000DFE704460021404A491842EB0450CDE9C8
:1035B000001012E0E00707D032463B46404649463D
:1035C000FCF742FF8046894632463B461046194684
:1035D000FCF73AFF06460F466410002CEAD1DDE9FD
:1035E0000401DDE90023BAF1000F06DAFCF72CFF35
:1035F00042464B46FCF728FF05E0FCF797FF4246A2
:103600004B46FCF793FF04460E460022284BFDF77D
:1036100015F803D84FF0FF30014607E00022254B94
:1036200020463146FCF769FEFCF7EFFF102409E065
:10363000002C0ADB0A220023FCF72EFE039B30320B
:103640001A55641E50EA0102F2D1641C039AC4F1B7
:1036500011031444119A012A03D0012208430DD109
:103660000AE0084304D000204FF0110B119072E7DC
:10367000A3EB0B056D1E0DE05B4504DD4FF0000272
:1036800005F1010504E003DA4FF00002A5F10105A0
:10369000002AECD002981199C0E90231C0E9004536
:1036A00079E70000000014400000F03F3000000007
:1036B0000000F0430000E03F2DE9FF4F95B09A462F
:1036C000884606460025EEE1252877D100242746C6
:1036D000F94A0121039400E0044316F8013F203B1E
:1036E00001FA03F01042F7D130782A2811D06FF098
:1036F0002F033078A0F13002092A16D8039A44F03B
:10370000020402EB820203EB42021044761C039097
:10371000EFE758F8042B0392002A03DA504244F4EE
:103720000054039044F00204761C30782E2816D101
:1037300016F8010F44F004042A280DD06FF02F0270
:103740003078A0F13003092B09D807EB870302EB8F
:103750004303C718761CF3E758F8047B761C3078CF
:103760006C280FD006DC4C2817D068280DD06A28AA
:1037700014D104E0742810D07A280FD10DE044F45D
:1037800000140AE044F4801401E044F44014727818
:10379000824202D104F58014761C761C30786628AB
:1037A0000BD013DC582877D009DC002875D04528C9
:1037B000F6D04628F4D047281AD193E118E06328C0
:1037C00035D0642879D0652812D18BE1702873D068
:1037D00008DC6728F1D069286FD06E280DD06F28DB
:1037E00006D1ACE073282CD0752874D0782853D03B
:1037F0005246179990476D1C54E1C4F302500228B9
:1038000009D003280DD0D8F8001004280DD00D6081
:1038100008F1040846E1D8F80010EA17C1E900529F
:10382000F6E7D8F800100D80F2E70D70F0E718F811
:10383000041B8DF8001000208DF80100EB460120DC
:1038400003E058F804BB4FF0FF3061074FF0000170
:1038500002D40DE009F101018946B9420FDA814530
:10386000F8DB1BF809100029F4D108E009F1010187
:1038700089468142FADB1BF809100029F6D103982A
:103880005346A0EB090721463846179A00F080FA04
:10389000284400EB090507E044E008E10DE01BF8CF
:1038A000010B524617999047B9F10109F7D25346D7
:1038B00021463846179AF2E039E00A21C4F3025251
:1038C0004FF0000B0091022A06D058F8040BC117E4
:1038D000032A09D00AE023E008F1070020F00702DC
:1038E000F2E80201904605E000B2C117042A01D1B6
:1038F00040B2C117002906DA0A460021404261EBB6
:1039000002012D2202E0220504D52B228DF804208D
:10391000012203E0E20701D02022F7E7914657E0B9
:103920000A2100E010214FF0000B00910BE0102164
:103930004FF0000B44F004040827009103E0082036
:103940004FF0000B0090C4F30252022A05D058F841
:10395000040B0021032A08D008E008F1070020F03A
:103960000702F2E80201904603E080B2042A00D187
:10397000C0B24FF0000922072AD53278702A07D04A
:10398000DDF800C08CF0100C5CEA0B0C05D00EE0EA
:1039900040228DF80420012208E050EA010306D0FD
:1039A00030238DF804308DF8052002229146009BCB
:1039B00083F0080353EA0B030AD150EA010201D154
:1039C000620705D530228DF804204FF001097F1ED3
:1039D0003278582A04D039A20C920CAA02920BE039
:1039E0003BA2F9E75B46009AFCF756FC0C9B9B5CFC
:1039F000029A521E0292137050EA0102F2D102980A
:103A000004A9081A00F1200B600702D524F48034C1
:103A100000E001275F4502DDA7EB0B0000E000207E
:103A200000EB0B01009003984944401A0390E00317
:103A300006D453462146179A039800F0A9F9054485
:103A4000002706E001A85246C05D179990476D1CFB
:103A50007F1C4F45F6DBE0030CD553462146179AF1
:103A6000039800F095F9054404E030205246179978
:103A700090476D1C0099481E00900029F5DC08E075
:103A80000298029952460078491C02911799904772
:103A90006D1CBBF10001ABF1010BF1DC5BE100F04F
:103AA00065F90544761C307800287FF40DAE19B016
:103AB0002846BDE8F08F000009280100303132337C
:103AC000343536373839616263646566000000005A
:103AD0003031323334353637383941424344454644
:103AE00000000000600700D4062708F1070020F05E
:103AF0000700F0E80223804603F0004C5FEA0C0068
:103B000001D097A009E0200501D596A005E0E007C7
:103B100001D095A001E0AFF24C001390307823F073
:103B2000004365280CD006DC452809D046281DD066
:103B300047287FD13BE0662818D067287AD136E045
:103B40000021112F01DB112000E0781CCDE90001DC
:103B500004A90CA8FFF7EEFCDDE90D010C9A4FF06B
:103B6000000B07F10109109200914EE04FF0004068
:103B70000097CDE9011004A90CA8FFF7DBFCDDE9F3
:103B80000D020C9B0F994FF0000B91461093009281
:103B900011B9791C00EB0109B7EB090003D4C0F19E
:103BA000FF3B07F10109A9EB0700019042E0012F5B
:103BB00000DA01270021112F01DD112000E0384635
:103BC000CDE9000104A90CA8FFF7B4FCDDE90D0163
:103BD0000C9A00914FF0000BB946109221070FD4B8
:103BE000009A4A4503DA914601E0A9F10109B9F1C9
:103BF000010F05DD109AA9F10101515C3029F4D0C3
:103C0000B84202DA10F1040F03DA0121CDE9011004
:103C100010E0002803DC8344A9EB000102E0411C12
:103C2000494500DD8946A0EB0B00401C01904FF098
:103C300000400290200705D40198484502DB4FF070
:103C4000FF30019000208DF84B0002980DF14B07DA
:103C5000B0F1004F25D002200C902B200D9002983F
:103C600000280CDA404202902D200D9007E00A2136
:103C70000298FCF7FBFA3031029007F8011D0C990D
:103C8000481E0C900029F2DC02980028EFD1791E22
:103C90000D980870307800F0200040F0450007F8DB
:103CA000020D11A8C01BC01D02901398007800B12E
:103CB000012000EB0901019801EBE0710298014439
:103CC0000398401A401E0390E00306D45346214651
:103CD000179A039800F05CF805441398007818B11F
:103CE0005246179990476D1CE00323D55346214651
:103CF000179A039800F04CF805441BE0BBF1000F45
:103D000007DB0098584504DD1098179910F80B0050
:103D100001E0179930205246904701980BF1010BB2
:103D2000401E05F10105019004D12E20524617993D
:103D300090476D1CB9F10001A9F10109DEDC05E035
:103D400017F8010B5246179990476D1C0299481EAF
:103D500002900029F4DC53462146179A03989EE608
:103D60002D0000002B000000200000002DE9F04194
:103D7000044600251E461746880404D405E039464B
:103D80002020B0476D1C641EF9D52846BDE8F0819F
:103D90002DE9F041044600251E469046C80301D592
:103DA000302700E02027880404D505E04146384646
:103DB000B0476D1C641EF9D52846BDE8F0814A68FD
:103DC000002A06D00A68531C0B6010704868401E19
:103DD0004860704710B50446002084F80402401E75
:103DE000C4F82C02204601F059FF08B1032010BD91
:103DF000B4F8FE01A0F52A41553901D0022010BDCA
:103E000094F8360094F8391094F8372040EA0161AC
:103E100094F83800000440EA022001430A48B0EB5D
:103E2000012F0DD014F8521FE278637841EA026145
:103E3000A278120442EA03221143B0EB012F01D110
:103E4000002010BD012010BD0046415400E0401C80
:103E500002780AB18A42FAD1D0B27047F0B5002296
:103E6000184B144602EB420653F8265085B1D0F8A1
:103E70000072BD420DD103EB8605D0F808626F6871
:103E8000B74206D12D89B0F80662B54204D000E0F1
:103E90000124521C022AE5D3022A01D079B904E098
:103EA0005CB9022909D01220F0BD02EB420003EBFD
:103EB00080004089B0F5807F01D00020F0BD102047
:103EC000F0BD0000800A002030B50021064A0C46F3
:103ED00001EB410352F82350854201D142F82340BF
:103EE000491C0229F4D330BD800A0020D0F82422D6
:103EF000D0F80002490A90F80202B1FBF0F0121D5E
:103F000002CA19B1884203D3401AF8E7002070476B
:103F1000116808447047D0F81422891E921E8A4204
:103F200001D800207047D0F8282290F8020201FB47
:103F3000002070472DE9F0410F00054606D001F042
:103F4000A1FD02280BD20120BDE8F081D5F80C625A
:103F50001EB1D5F81402B04208D8012606E0411C73
:103F6000F2D0D5F814128142EED83E463446D5F848
:103F70001402641CA04202D80224022E0AD3214655
:103F8000284601F07FFD38B1411CDDD00128DBD08F
:103F9000B442ECD10020D7E76FF0704221462846AA
:103FA00002F0B7FC30B957B122463946284602F034
:103FB000B0FC20B1012812D001242046C4E7C5F886
:103FC0000C42D5F81002411CF7D0401EC5F8100273
:103FD00095F8050240F0010085F80502EDE74FF085
:103FE000FF34EAE72DE9F84F884682460F6800E083
:103FF0007F1C38782F28FBD05C28F9D00024DAF811
:1040000020622546785D6D1C202827D32F2825D0D7
:104010005C2823D0802C42D2A0F181017D290BD8CD
:10402000795D6D1C01EB0020A1F1400280B23F2AB6
:1040300002D380397F2932D2012101F0F7FA5FEAF9
:1040400000092CD0B9F1800F04D2014671A0FFF70E
:10405000FDFE20BB26F81490641CD3E77A19C8F83B
:104060000020202801D2042517E0002515E000BF1C
:1040700006EB440030F8020C20280DD02E280BD07F
:104080006CB1002026F814000B222021DAF8180267
:1040900001F0FDFD002706E0641E002CE8D106209B
:1040A000BDE8F88F7F1C36F817002028FAD02E289C
:1040B000F8D01FB145F0030500E0641E2CB106EBFB
:1040C000440030F8020C2E28F7D1002081464FF032
:1040D000080B009036F8170007F101075FEA0008A7
:1040E00024D0B8F1200F04D0B8F12E0F04D1A7428C
:1040F00002D045F00305EDE70099594501D2A742EA
:104100001AD1BBF10B0F0FD0A74201D045F0030528
:104110000CD84FF0080000904FEA896027464FF016
:104120000B0B4FEA1069D5E745F00305DAF81802E2
:104130000178E52949D04AE04046B8F1800F07D31D
:1041400001F09AFA002101F071FA804645F002056B
:10415000B8F1FF0F13D90099ABF10100814204D3EC
:1041600045F00305CDF800B0B4E7DAF8182200985E
:104170004FEA182111540098401C00901CE0B8F13F
:10418000000F04D0014626A0FFF760FE20B14FF0DB
:104190005F0845F003050FE0A8F14100192802D897
:1041A00049F0020908E0A8F16100192804D841305B
:1041B00049F001091FFA80F8DAF81822009902F88C
:1041C00001800098401C009084E705210170BBF13C
:1041D000080F03D14FEA89604FEA1069C9F38100E3
:1041E000032803D06FEA0901890701D145F00205D0
:1041F000A90709D409F00301012901D145F01005EF
:10420000012801D145F00805DAF81802C57200202E
:1042100046E70000222A3A3C3E3F7C7F0000000037
:104220002B2C3B3D5B5D00002DE9FC5F054600212A
:1042300000F014FA00286ED1FF204FF6FF7A0090AC
:104240008146A5F824A200BFD5F81012D5F80002C7
:1042500001F024FD06000ED1D5F81442207848B1B3
:10426000E17AE52801F03F0170D00A0704D50F2953
:104270006CD107E0042674E00F2903D0B9F1000FD8
:104280004DD052E0D5F8201291B3420608D5627B9A
:10429000009220F04000B5F806228146A5F82422BD
:1042A000484534D1627B0098824230D10191207818
:1042B000A04620F04000401E00EB80010027DFF800
:1042C000A8B001EBC00601241BF8071001EB0800A1
:1042D000008874B101F0D0F90446802E17D20198FD
:1042E00030F81600761C01F0C7F9A0420FD102E0A9
:1042F00030E050450BD17F1C0D2FE5D398F800001E
:10430000400609D544B1019830F8160020B1FF20CD
:1043100000F0FF091EE025E0A9F10100F8E72046C2
:1043200002F004FC009988421BD0D5F81802C17A2B
:10433000C9070BD10A2101E0491E06D314F8012B4D
:1043400010F8013BD21AF7D000E052B14FF0FF094C
:10435000A5F824A20021284600F008F806003FF442
:1043600073AF3046BDE8FC9F147E00082DE9F04194
:10437000B0F806620446761C30040F46000C37D0B5
:10438000D4F8100298B3310773D1401CC4F810025E
:10439000D4F80C12D4F8000231B190F80222521E67
:1043A00012EA161F05D064E0B0F80802B0421FD927
:1043B0005FE001F067FB054601281ED9681C3AD072
:1043C000D4F80002D0F81412A94249D87FB1D4F829
:1043D0000C12FFF7AFFD05000DD0012D0DD0681CAC
:1043E00029D0D4F8000202F009FC20BB07E0FFE767
:1043F0000420BDE8F0810720FBE70220F9E74FF435
:1044000000720021D4F8000201F041FC2946D4F8E2
:104410000002FFF780FDD4F8001200274FF00108DA
:10442000C1F82C0211E000BF80F80482D4F8000229
:1044300002F0E4FB08B10120DBE7D4F80002D0F879
:104440002C12491C7F1CC0F82C12D4F8000290F8E2
:104450000212B942E8D8D0F82C12C91BC0F82C12AD
:10446000C4F80C522946D4F80002FFF754FDC4F8F2
:104470001002A4F80662D4F8000206F00F0100EB67
:104480004110C4F814020020B3E700002DE9FF5FDB
:10449000D0F818720446D0F820620C2239466846DB
:1044A00001F0ECFB9DF80B00C0071AD00020F87259
:1044B0000125C4F820022B4632466946384601F0F1
:1044C0009BFA2046FFF7B0FE10B96D1C642DF2D3A5
:1044D000642D0CD004280BD19DF80B00F872C4F8A1
:1044E00020629DF80B0080070FD5002004E0072014
:1044F00004B0BDE8F09F401C36F810100029FAD136
:104500000D211930B0FBF1F600E001260021204614
:1045100000F0A4F8A0B90027D4F81012D4F80002D3
:1045200001F0BCFB60B9D4F814020078E5280AD089
:1045300048B1002701212046FFF718FF0028EBD0E3
:10454000042812D012E07F1C3046B742F2D1461E3A
:104550005FEA060A5FD0B4F806122046A1EB0A0112
:1045600000F07CF8050003D074E00720054671E0F8
:10457000D4F8180202F0DAFACDF80C00D4F81012D0
:10458000D4F8000201F08AFB050063D1D4F81412BC
:10459000D4F82092039848730F20C8720020087343
:1045A00088760AF0FF0BC876ABF1010000EB8002C1
:1045B00002EBC00500234FF6FF7E274E4A1C01E0A8
:1045C000604503D039F81500F4466D1CF75CC855FA
:1045D00016F80380070A08F8027000B960465B1CF1
:1045E0000D2BEDD3704502D039F8150008B94BF00A
:1045F000400B81F800B0D4F80012012081F80402C9
:1046000000212046FFF7B2FE050023D1AAF10100E8
:104610005FEA000AB2D1D4F81012D4F8000201F017
:104620003DFB050016D1D4F814022022002104F528
:10463000007401F02CFBD4E905010B2201F01EFBF4
:10464000A0696169C07A00F0180008732168012030
:1046500081F8040228464BE7147E000870B5A0F8E4
:104660000612D0F808320D460446012B40D0D4F88B
:104670000002D0F8141299423AD933B990F80012D6
:10468000032906D1D0F824321BB190F802020601AA
:1046900014E0B0F80812A9422AD9D0F8240214E094
:1046A00001F0F0F90346401C20D0022B20D3D4F8AF
:1046B0000002D0F8140298421AD9AD1BD4F80002B7
:1046C000B5421946ECD2FFF726FCC4F80C3278B19B
:1046D00000EB1510C4F81002D4F8000205F00F0129
:1046E00000EB4110C4F81402002070BD012070BD21
:1046F000022070BD084910B50B5C002253B901229D
:104700000A540A1801EB8000127A406801681046CA
:1047100088470246104610BD980A002030B4054C68
:10472000231804EB80001B7A406804691846A446ED
:1047300030BC6047980A002030B4054D2C1805EBBA
:104740008000247A406885682046AC4630BC6047CB
:10475000980A0020044A111802EB8000097A406888
:104760004268084610470000980A002030B4054D02
:104770002C1805EB8000247A4068C5682046AC46BA
:1047800030BC6047980A002070B5044600F006FE71
:1047900000281FD1204602F0BFFC00281AD1D4F80F
:1047A0002812491E022916D20C4A01EB410502EBE0
:1047B00085035989B1F5807F06D009B1491E89B2B8
:1047C0005981002311B103E00021F9E742F82530B7
:1047D000C4F8003270BD022070BD0000800A0020C5
:1047E0002DE9FC5F0D46044602F096FC5FEA0009E5
:1047F00073D194F8070200286FD1D4F8240201275E
:104800004FF0020A002869D0691C33D0D4F80C029A
:10481000A84200D20546C4F80852002D5CD02046BC
:10482000691EFFF763FB0146C4F81402D4F80002C6
:10483000FFF771FB00287CD0D4F800126D1E91F8B0
:104840000222521E02EA55221518B4F80802C005C9
:10485000E4D0D4F81822AA42E0D094F80602400628
:1048600046D591F8010201232146FFF77FFF00287A
:1048700074D137E002C80091D4F8101283460225A3
:1048800009B30026AD1C01918846761CD4F80002BD
:1048900001F0F8F8014601284BD9481C5ED008F118
:1048A00001008142F0D00098854206D8CBF8006024
:1048B0000BF10400019A04C08346D4F80002D0F83A
:1048C00014028842DDD8D4F824020560009885429D
:1048D00005D80021CBF80010C2E09DE016E04FF0B3
:1048E0001109BDE094F8060220F0400084F80602A9
:1048F000D4F8000201232A4690F801022146FFF76E
:104900001BFF00282AD1C4F81852A9E0D4F80C02E1
:10491000A84204D294F80612890700D405464FF045
:104920000008D4F80802C4F808824DB3D4F8002275
:1049300000E06EE092F802124E0280B1691E401E45
:10494000B1FBF6F1B0FBF6F3994208D3711E884330
:10495000C4F808022D1AD4F8141210E06EE0D4F84E
:10496000101251B900211046FFF7E4FA0146012860
:104970004FD0481C62D0C4F81012C4F8141211BBF6
:1049800031E000BF94F806028007D4F8000205D594
:10499000FFF7D0FA010004D1354616E001F072F8B5
:1049A0000146481C4AD0012933D9D4F80002D0F876
:1049B000140288422DD9C4F81412D4F80802AD1B91
:1049C0003044C4F80802B542DCD8D4F808022844C0
:1049D000C4F80802E80506D0D4F80002FFF79BFAF5
:1049E000B8B100EB5528B4F80802C0052CD0D4F8B3
:1049F0001822424528D094F80602400614D5D4F86F
:104A000000020123214690F80102FFF7AFFEA8B98A
:104A100004E084F807A20220BDE8FC9F94F8060297
:104A200020F0400084F80602D4F800020123424638
:104A300090F801022146FFF77FFE18B184F8077253
:104A40000120E9E7C4F81882D4E98201884207D935
:104A5000C4F80C0294F8060240F0200084F8060224
:104A60004846D9E72DE9F74F8EB015460F98012833
:104A700003D9132011B0BDE8F08F0EA801F06AF839
:104A8000002801DA0B20F5E7FE4951F8204054B127
:104A9000002184F80012C0B20390FFF72BFEC1077B
:104AA00003D00320E6E70C20E4E7400701D50A2005
:104AB000E0E708AA01210398FFF730FE00287DD126
:104AC000089980297AD30F9808B1002000E03F2090
:104AD0008046A1EB0801681E0542089100D17DB90E
:104AE0004FF4FA60B1FBF0F20020E74B00E0401C0D
:104AF00033F810509542FAD8E34A163232F8105083
:104B0000B5F5007F00D36D0A85B1802D00D98025D1
:104B1000B1FBF5F0012640F6F672904200D3022672
:104B20004FF6F672904203D3032620E00125EFE70B
:104B3000032E1CD0012E23D04000001D00F2FF10D8
:104B4000470A4FF001092020834608EB090A0AEBC7
:104B50000700584442190090A2EB0800884247D849
:104B600009AA03210398FFF7D9FDA0B90EE040F28E
:104B7000072202EB8000470A4FF020090020E3E7FC
:104B800000EB4000401C4008C01CD7E7099810B15A
:104B9000B0F5004F01D90120099009990098084407
:104BA000401E491E88430099401A0990032E12D0D6
:104BB00007440898A0EB0901CA1B00E0DDE0A2EB66
:104BC0000B01B1FBF5F10D91022E07D0032E0AD097
:104BD000012E15D019E081448244EAE740F6F672CE
:104BE000914205D311E008464FF6F671884201D292
:104BF0000E203FE70C2002900F9868B1F02045E0AE
:104C0000B0F5803F06D20120F5E7B0F5803F01D234
:104C10000420F0E70620EEE74FF400720021204662
:104C200001F035F804F5DF70012141708170002139
:104C3000C170029A0271FE224271089B08EB0302C6
:104C400043F6C163B2FBF3F23F2343EA920C0992AD
:104C500080F806C0C271037241728172C1720899F4
:104C600001730A0A42730A0C8273090EC17355203C
:104C700084F8FE01AA2084F8FF01012300222146C6
:104C80000398FFF773FD002877D1F82002904FF4C6
:104C900000720021204600F0FAFF0B227BA1204683
:104CA00000F0ECFF0021E17202202073657384F8AC
:104CB0000E904FEA1920E07301202074032E0BD0D0
:104CC00040026074000AA0740898B0F5803F05D2D5
:104CD000E074000A20750CE00020F2E784F8200060
:104CE000020A84F82120020C84F82220000E84F8A5
:104CF0002300029860753F202076002060764FF0F8
:104D0000FF0984F81A90E07684F81C804FEA182096
:104D100060774FEA1840A0774FEA1860E07700F01C
:104D200017FF802129220990032E27D084F827001D
:104D3000030A84F82830030C84F82930000E84F824
:104D40002A00A775380AE07584F8241084F8262014
:104D5000132251A104F12B0000F090FF552084F89C
:104D6000FE01AA2084F8FF01012342462146039850
:104D7000FFF7FCFC002800D133E0BDE084F84300DD
:104D8000030A84F84430030C84F84530000E84F89C
:104D9000460084F82470380A84F82500380C84F81A
:104DA0002600380E84F82700022084F82C0000200A
:104DB00084F82D0084F82E0084F82F00012384F855
:104DC000303084F83100062384F8323084F8330020
:104DD00084F8401084F84220132234A104F14700E3
:104DE000BAE7032E06D1012308F1060221460398F3
:104DF000FFF7BCFC4FF400720021204600F047FF93
:104E000002990991032E12D0012E0ED06FF0FF00EF
:104E10000843099020700998000A60700998000CF6
:104E2000A0700998000EE0701EE02548F0E761F0E0
:104E3000FF00099020700998000A60700998000C22
:104E4000A0700998000EE07084F8049084F8059032
:104E500084F8069084F8079084F8089084F8099004
:104E600084F80A900F20E07252460AF101090123EA
:104E700021460398FFF77AFCF0BB4FF40072002143
:104E800020461FE048000020227E0008EBFE904DE7
:104E900053444F53352E30004E4F204E414D452048
:104EA0002020204641542020202020004E4F204E1C
:104EB000414D4520202020464154333220202000FF
:104EC00000FFFF0000F0E3FE01200AE04A4609F17E
:104ED0000109012321460398FFF748FC60B90998AE
:104EE000401C0990B842F1D3032E00D05D464A46DB
:104EF00009F10109012300E042E021460398FFF790
:104F000035FCE8BB6D1EF2D1032E3CD1522020703F
:104F100060706120A0704121E170722284F8E42168
:104F200084F8E52184F8E61184F8E7010D9801235F
:104F3000401E84F8E801010A84F8E911010C84F8A4
:104F4000EA11000E84F8EB01022084F8EC01002045
:104F500084F8ED0184F8EE0184F8EF01552084F81F
:104F6000FE01AA2084F8FF0108F1010221460398FE
:104F7000FFF7FCFB012308F107022146039800E03C
:104F800009E0FFF7F3FB002211460398FFF7C6FB89
:104F900000283FF478AD01206CE500002DE9F741D1
:104FA00081B0904602980090684600F0D3FD04005E
:104FB00003D50B2004B0BDE8F0810E4E002756F853
:104FC000245025B12846FEF77FFF85F8007201982E
:104FD000002801D080F8007246F8240002D0B8F111
:104FE000010F01D00020E5E7002202A901A800F08E
:104FF00055FBDFE7480000202DE9F74FADF5547D64
:1050000006000ED04FF0000B02F01F0727F0010240
:10501000D5A980A8C6F800B200F040FB040005D076
:10502000F2E009200DF5577DBDE8F08FD1A88690FC
:105030008EA888906846D59900F098FC859D04005C
:105040000BD11DB1780803D0012102E0062404E051
:1050500000216846FEF702FF044617F01C0F6FD0D0
:105060004FF00108D4B1042C13D10020674902E0AD
:10507000401C022805D200EB400251F82220002AF1
:10508000F6D1022804D06846FFF700FA044600E093
:105090001224859D47F0080754B1B5E0E87A10F076
:1050A000110F01D00724AFE0780701D50824ABE049
:1050B000380777D500F04CFDA873010AE973010C9D
:1050C0002974000E687485F80BB085F81CB085F85B
:1050D0001DB085F81EB085F81FB02946809800F0F5
:1050E000A7FD81460021284601F018FD8099B9F1FD
:1050F000000F81F8048253D08098DDF800824C467E
:10510000D0F82C028D90B9F1020F1AD3D8F81402FE
:10511000A04216D927E02146404600F0B3FC5FEAE2
:10512000000A24D0BAF1010F0BD0BAF1FF3F0AD028
:1051300000222146404601F0ECFB040064D104E06B
:1051400021E0022460E001245EE0D8F81002411C56
:1051500008D0401CC8F8100298F8050240F0010180
:1051600088F805125446D8F81402A042D3D8809982
:10517000A9F10100C1F80C028D99809800F08EFD14
:1051800004000BD040E0ECBBE87AC10602D5042451
:105190003AE007E0B90701D5C00783D1380701D548
:1051A00047F020078098D0F82C02C6E987057808D8
:1051B00001D0012100E00021684600F0E9FCC6F8BA
:1051C00028020028BDD086F8067286F807B25F462E
:1051D000294606F50076809800F02AFD3061287F88
:1051E000E97F6A7F40EA0160A97F090441EA022160
:1051F0000843C6E90270B761776280983060B0F802
:10520000060200E000E0B08020460BE7800A0020A4
:105210002DE9F84F88460021994615460446196045
:1052200001F07AFF002812D194F8070200280ED16D
:1052300094F80602C00709D0D4E98201081A0127B0
:105240004FF0020A854200D90546A2E00720BDE8DA
:10525000F88F00BFD4F80812C8057CD1D4F800023A
:1052600090F80222521E02EA512212F0FF0614D1D7
:1052700031B1D4F8242232B12046FEF737FE06E0E1
:10528000D4F8100203E0D4F8141200F0FBFB02285B
:1052900023D3411C5BD0C4F81402D4F81412D4F800
:1052A0000002FEF738FEC0B130440090680A5FEAA1
:1052B000000B2AD0D4F8001206EB0B0291F8020280
:1052C000824201D9A0EB060B91F801025B464146F0
:1052D000009AFFF731FAD0BB03E084F807A202205E
:1052E000B5E794F8060240060CD5D4F818120098D9
:1052F000081A584506D208EB40204FF400722146A8
:1053000000F0BCFC4FEA4B2637E0D4F81822009896
:10531000824221D094F8060240060ED5D4F800024D
:105320000123214690F80102FFF720FA78B994F89A
:10533000060220F0400084F80602D4F8000201239F
:10534000214690F80102009AFFF7F6F920B184F89F
:10535000077201207BE702E00098C4F81802B4F855
:105360000802C0F30800C0F50076AE4200D92E4610
:1053700001193246404600F081FCD4F80802B044DE
:105380003044C4F80802D9F800008119AD1BC9F8EF
:105390000010002D7FF45EAF002058E770B5044682
:1053A00001F0BAFE002811D194F806128A060DD534
:1053B000480612D5D4F800020123214690F80102D4
:1053C000D4F81822FFF7D2F908B1012070BD94F883
:1053D000060220F0400084F80602D4F81C12D4F82B
:1053E000000200F05BFC0028F0D1D4F82052E87AEB
:1053F00040F02000E87294F80C022877B4F80C0210
:10540000000A6877D4F80C02000CA877D4F80C02D4
:10541000000EE877D4F81012284604F5007401F065
:105420007DFB00F095FBA875010AE975010C297652
:10543000000E68760020A874E874A07920F020009F
:10544000A0712168012081F804022068BDE8704045
:1054500001F079BB2DE9F84F8846002199461546A1
:105460000446196001F058FE002808D194F807029C
:10547000002804D194F80602800702D40720BDE872
:10548000F88FD4F80802012741194FF0020A81422F
:105490007BD3B9E0D4F80812C80577D1D4F800223C
:1054A00092F80202401E00EA512010F0FF061ED1C1
:1054B00031B1D4F8240240B12046FEF717FD09E0CF
:1054C000D4F8100240B9002101E0D4F814121046BB
:1054D000FEF730FD002858D001283DD0411C6CD08B
:1054E000C4F81402D4F8101209B9C4F8100294F8E0
:1054F0000602400610D5D4F800020123214690F898
:105500000102D4F81822FFF731F9E8BB94F806023B
:1055100020F0400084F80602D4F81412D4F80002F7
:10552000FEF7F9FCC0B130440090680A5FEA000B56
:1055300030D0D4F8000206EB0B0290F802128A4237
:1055400001D9A1EB060B90F801025B464146009A97
:10555000FFF70CF9C0B903E084F807A202208EE738
:10556000D4F818120098081A58450CD208EB4021BC
:105570004FF40072204600F081FB94F8060220F000
:10558000400084F8060202E017E040E01CE04FEA29
:105590004B262DE0D4F818120098814211D0D4E99E
:1055A000820188420DD2D4F800020123214690F8EE
:1055B0000102009AFFF7C0F818B184F807720120C1
:1055C0005DE70098C4F81802B4F80802C0F30800B8
:1055D000C0F50076AE4200D92E4620443246414600
:1055E00000F04CFB94F8060240F0400084F80602FC
:1055F000D4F80802B0443044C4F80802D9F80000D6
:105600008119AD1BC9F80010002D7FF443AFD4E918
:105610008201884201D9C4F80C0294F8060240F0D5
:10562000200084F80602002029E7000070B58028D9
:105630001BD345F2205309B10D4D00E00D4D002163
:1056400010245A1A02EBD27201EB620235F8226082
:10565000864206D001D2114600E01346641EF0D106
:1056600004E01CB105EB8200408870BD002070BDD5
:10567000D2D201084E7E00080021064B00E0491CF2
:1056800033F81120002A04D08242F8D1024830F8C1
:105690001100704756270308362903082DE9FF47F4
:1056A0004FF000090746C0F800901646084600F083
:1056B00051FA050003D50B2004B0BDE8F087A848D7
:1056C00050F82540A4B13C6094F8000228B194F849
:1056D0000102FFF73FF8C1070CD084F80092E8B24E
:1056E00084F80102FFF706F8C10708D00320E3E7BA
:1056F0000C20E1E70EB1400704D40020DCE71EB126
:10570000400701D50A20D7E7002529462046FEF7A5
:1057100061FB012827D100214FEA0D0704EB01109E
:1057200090F8C22100F5DF704AB1027AC37A42EAEA
:105730000362837A407A1B0443EA0020024347F85D
:105740002120491C0429E9D35FF0000657F82650B0
:105750002DB129462046FEF73DFB08B909E002209D
:10576000761C042EF2D3032801D0E8BB01E001200F
:10577000A2E7B4F80B00B0F5007F70D1E28A6AB9F5
:1057800094F8240094F8271040EA016294F8260067
:1057900094F82510000440EA01200243C4F81822BE
:1057A000217C84F80312012901D0022957D1607BA2
:1057B000514384F80202B8B1431E18424FD1B4F8E5
:1057C0001130A4F808321E0749D1B4F813607EB92D
:1057D00094F8206094F8237094F821C046EA076694
:1057E00094F822703F0400E039E047EA0C273E437A
:1057F000B4F80EC0BCF1000F31D00CEB010707EB81
:105800001317BE422BD3F61BB6FBF0F038B30126BC
:1058100040F6F678404500D302264FF6F67840452C
:1058200000D30326801C2F44C4F82872AC44C4F86B
:105830001402C4E9875C032E13D083B16144C4F819
:105840002412022E21D000F0010100EB400001EBF8
:10585000500000BF00F2FF10B2EB502F17D20D2006
:105860002AE7002BFBD194F82C1094F82F3094F8F1
:105870002D7041EA036194F82E301B0443EA07239C
:1058800019438000C4F82412E4E74000E2E74FF037
:10589000FF30C4F81002C4F80C02802084F805021E
:1058A000032E4FD1208E01284CD12046691C00F0D8
:1058B000F5F9E0BB84F80592B4F8FE01A0F52A41A1
:1058C00055393FD12078E178627840EA0160A178CB
:1058D000090441EA022108432249884232D194F85E
:1058E000E40194F8E71194F8E52140EA016094F8A6
:1058F000E611090441EA022108431B49884221D1EB
:1059000094F8E80194F8EB1194F8E92140EA016079
:1059100094F8EA11090441EA02210843C4F810028C
:1059200094F8EC0194F8EF1140EA016000E009E01E
:1059300094F8EE1194F8ED21090441EA022108439C
:10594000C4F80C02064984F80062091F0888401C4C
:105950000880A4F806022046FEF7B6FACDE600005D
:1059600048000020525261417272416173B5044691
:10597000019801782F2901D05C2901D1401C0190A8
:105980000025C4F8085201980078202806D200218A
:105990002046FEF763FEC4F814527CBD01A92046E0
:1059A000FEF720FB0028F8D12046FEF73DFCD4F896
:1059B0001812C97A28B10428EFD14907EDD405207F
:1059C0007CBD4907FCD4D4F81412C87AC006F6D5B9
:1059D000D4F8000200F02CF9C4F80802DEE7000059
:1059E00013B50A23012269460248FCF765FB0098BB
:1059F0001CBD0000F80900207CB516461C46054673
:105A00000B2200F03BF9052C11D91D4A0CE00021B6
:105A1000B61C2346044663F35F044008E30300D545
:105A20005440491C1029F4D330880028EFD10721B5
:105A30004FEA0D0304F00F003030392800D9C01DA3
:105A40005854491E2409F5D17E20002258544C1E7A
:105A500006E081387D2802D8A24206D0521C521C92
:105A60008A4202D2A85C2028F3D1082902D2585CCD
:105A7000491C00E02020A854521C082AF5D37CBD04
:105A8000211001002DE9F0410D46044602290DD3F5
:105A9000D4F81402A84209D994F800024FF0FF3656
:105AA000012807D002282AD0032836D00126304604
:105AB000BDE8F081D4F8200205EB550700EB572133
:105AC000204600F0EBF80028F1D1C7F308007F1C56
:105AD00014F80080D4F8200200EB5721204600F093
