:020000040800F2
:10000000106C002049010008C53400084F2A000880
:1000100000000000000000000000000000000000E0
:10002000000000000000000000000000C9450008BA
:100030000000000000000000070100080147000860
:100040005B010008000000005B0100085B01000884
:100050005B0100085B0100085B0100085B01000810
:10006000000000005B0100085B0100085B01000864
:100070005B0100085B0100085B0100080000000054
:100080005B010008954700085B0100085B01000860
:100090005B0100085B0100085B0100085B010008D0
:1000A0005B0100085B0100085B0100085B010008C0
:1000B0005B010008DD4E00080448854600F0EEFABA
:1000C00000480047F1860008C046C046106C00207A
:1000D000084B19680868203080F30988022080F3F3
:1000E0001488BFF36F8F3FBCAE4608BC04BC62B639
:1000F000184700000C020020EFF3108072B6704722
:1001000080F310887047EFF309800E4B1A6820388F
:100110001060F0C044464D4656465F46F0C008B5F4
:1001200072B609F08BFF62B60CBC1168086810301B
:10013000F0C8A046A946B246BB4680F309882038DD
:10014000F0C818470C0200200448804704480047C4
:10015000FEE7FEE7FEE7FEE7FEE7FEE79147000861
:10016000B900000830B50B460146002020220124CA
:1001700009E00D46D5409D4205D31D469540491BDB
:100180002546954040191546521E002DF1DC30BD24
:10019000F0B51FB40646002082B005464024019108
:1001A00000901BE0019922460F46304600F020F8EF
:1001B000049A059B801A994110D31046194622468D
:1001C00000F094F8361A8F41019722460120002151
:1001D000009F00F08BF838184D4100902046641EB7
:1001E0000028DFDC019B00982946324607B0F0BDAD
:1001F00010B5202A04DB0846203AD040002110BD6B
:100200000B46D340D0402024A21A914008431946FF
:1002100010BD03460B439B0703D009E008C9121F1A
:1002200008C0042AFAD203E00B780370401C491C72
:10023000521EF9D27047D2B201E00270401C491E32
:10024000FBD270470022F6E710B513460A46044673
:100250001946FFF7F0FF204610BD30B505462A4687
:100260000B4610781C78521C5B1C002801D0A04261
:10027000F7D0002C03D0002802D06D1CEFE72846F1
:1002800030BD421C0178401C0029FBD1801A704708
:1002900003460A780270401C491C002AF9D118460E
:1002A0007047000070B5104D002800D12868002468
:1002B00014E00A4602E09E4203D0521C1378002B41
:1002C000F9D1DAB2224307D0002B06D0002C04D09B
:1002D00000210170401C04E00446401C0678002EFA
:1002E000E7D12860204670BD8C02002010B5202A7E
:1002F00004DB0146203A9140002010BD91402023AC
:100300009C1A0346E3401943904010BDF0B50746E0
:100310000846584087B0C00F049048000E46590068
:1003200040084908BC1A884105D2384631461E4665
:1003300017460B4602465800400810434DD0300D7A
:10034000039040055900400D490D0590401A029058
:10035000402873DA18030121000B090508430190B6
:1003600004980092002806D01146019A49420020C4
:10037000904100910190029840210A1A0199009839
:10038000FFF7B4FF05460C466B4607CB00F098F923
:10039000C0197141039A0E0D0023D71756401A4613
:1003A0007A40164344D0049A002A2DD0029A012A9A
:1003B000039A15DC1205C01A914101263605001C6E
:1003C0007141D20F059ED2070093019202962A46F0
:1003D000234600F095F907B0F0BD38463146FAE7FC
:1003E0001605234A0F46B218C01AB7410121090564
:1003F000001C4F4100187F41114618187941E20F47
:1004000010436D19644113E0E2076D081543640859
:10041000C2071443039A01261205C01A91413605FA
:10042000001C7141CE07400830434908C0185141B3
:100430002A46234600F057F9CDE7FFE7049801224A
:100440004000C117121A00238B4104983146C4178B
:10045000381AA141EEE730B40124E407634030BC10
:1004600054E730B40124E407614030BC4EE700009B
:100470000000E0FFF0B51FB488B00B990998002484
:1004800048400999C00F490049080991C0070B99D4
:100490000090490049080B9109990898A64608431D
:1004A0001CD00B990A98084318D0099801244000E1
:1004B000420D4800410D099824050003000B20431C
:1004C00009900B980003000B20430B9050181C4917
:1004D0004018002201901446104605E00020014615
:1004E0000DB0F0BD032801DA034600E003239C466B
:1004F000C11A0AAE0AE05F0008ADED5B4F00F75B82
:100500007D430027AA187C41491C5B1E6145F2DD32
:10051000410004AB5A522104120C0A43240C401C23
:100520000828DFDB01980290009970460191009045
:10053000059B049A0799069800F0E2F8D0E70000BE
:100540000DFCFFFFF0B50C465C4085B0E40FE407FE
:1005500003944C000026640859009446490802465A
:100560000296224321D062460A431ED06200570DF4
:100570004A000E032303550D012402462C4924058D
:10058000781B1B0B360B4018234326436146009013
:100590001C46501AB44103D30098401C009002E05E
:1005A000921800985B41002803DA0020014605B04C
:1005B000F0BD0020012109050746864611E064468A
:1005C0001D46141BB54106D36546521BB341744604
:1005D00007430C43A646CD07400849082843921814
:1005E0005B4105460D43EAD11046184313D06046DF
:1005F000194650407140084306D06046101AB34176
:1006000006D20122002306E000220123DB0702E0DC
:100610000122D2435310009874460105381C6141F1
:10062000029C039D0019694100F05DF8BFE70000DE
:10063000FD0300004A0009030123090B1B051943B0
:100640000A4B10B5520D9A4202DA0020014610BD45
:10065000064B34339A4203DC9A1AFFF7C9FD10BDEA
:10066000034BD218FFF742FE10BD0000FF0300004D
:10067000CDFBFFFF10B5002904DB0124E407404255
:100680008C412146002B04DB1C460123DB07524230
:10069000A341994200D1904210BD0000064C0125B3
:1006A000064E05E0E36807CC2B430C3C984710341A
:1006B000B442F7D3FFF704FD34BD000854BD000871
:1006C00010B5202A06DBCB170846203A1041C11787
:1006D0000B4306E00B461341D0402024A21A914060
:1006E0000843194610BD10B5002B08DA0024401C41
:1006F000614192185B411A4301D14008400010BD8E
:10070000F0B51FB482B005460C0003D0084604F0D3
:1007100079FF02E004F076FF203002460090214687
:100720002846FFF7E3FD049B059A04460F4618434D
:100730001143084314D0184610431BD000984021A1
:100740000A1A18460599FFF753FD05460E46009A0A
:1007500005990498FFF7CAFD084305D0012004E07D
:100760002046394607B0F0BD0020C11705430E43AF
:100770002C43374300990E986305401A7905E40A23
:1007800000220C43FD0A0A3002D500200146E9E7A9
:100790000105101969410C9C0D9D00196941FFF775
:1007A000A2FFDFE770B58C180578401C6B075B0F64
:1007B00001D10378401C2A1106D10278401C03E0C5
:1007C00006780E70401C491C5B1EF9D12B0705D41E
:1007D0000023521E0DD40B70491CFAE70378401C0D
:1007E000CB1A921C03E01D780D70491C5B1C521E35
:1007F000F9D5A142D8D3002070BD000038B50068FB
:100800001C49884235D11C4D2868C0691B4CC04327
:100810008006002821DB0023DB43012269462846AD
:1008200002F030F8638F20465A040121520CC03880
:100830004904F82A02D26B461B7806E0DA0BD20391
:1008400062876B461B785204520C8354608F0F22D0
:10085000D04140181121C84160872868C169C94347
:10086000C90606D4618F0122D2031143618710218A
:10087000016238BD004C0040B4070020040D002088
:10088000F0B58A4C8BB086A0206089A060608A4851
:10089000A060C820A08289A16162FF252246F535AB
:1008A00087A3D5629362108785A315655C21D36405
:1008B000885284A18648FFF7EBFC8548A06485A098
:1008C0002146E0667EA208464D670A676C307A4989
:1008D00081829026A019856079A141606D00858292
:1008E0007EA18048FFF7D4FC7E48A0517E48B42604
:1008F0000178A019002972A141607DD06900816052
:1009000085827AA17D4804F03FFE7C48A05167486B
:100910006BA1D83041607D21090181608582794BCE
:10092000794AC361764902628161D07896785578B8
:100930001278099006A864C0D8789A785D781B78F8
:100940000395029304920590CA78887800900192EA
:100950005F484B780A78D8276CA1553004F014FE14
:100960005B4952485531E15155A1FC3041607D2130
:10097000C90081608182734B714AC36182615448AE
:10098000FC2571A19B3004F0FFFD514874A19B3000
:1009900060517648784B4160754981604910818289
:1009A000744AC3618261554874A1693804F0ECFD52
:1009B0005248FF21693821316050FF2074A1453031
:1009C00021506A483EA1243041606949FF25816079
:1009D000F53585823AA124304160C8218160858245
:1009E0006E4A82614548FF2669366DA1143804F0CD
:1009F000CBFD4248143800E029E0A051FF206DA251
:100A00008D30225059482EA26C304260C82282603C
:100A100085826C480B2101706BA000F017F971A161
:100A200078002150514873A19030856041608582E3
:100A3000FF2073A1D53021504C4821A1B430416032
:100A4000A9008160858205F059FC0BB0F0BD7D21C5
:100A50000901856081826D496D4A6E4B18300EC068
:100A6000D8789E785F781B78079708960693099048
:100A7000D078937856781278039604930292059072
:100A8000CA7888780090019211484B780A7862A160
:100A90000F3004F079FD0E490F31B420215036E7B4
:100AA00041542B524553544F524500005C080020DE
:100AB0007265616479000000B80B000041540000C9
:100AC0004F4B000041542B43574D4F44453D33009D
:100AD000E60A002041542B52535400004154453043
:100AE0000000000034010020C600002041542B43C8
:100AF00057444843503D312C31000000300C002059
:100B000035000020390000203D00002041542B43D7
:100B1000495041503D2225642E25642E25642E2502
:100B200064222C2225642E25642E25642E25642221
:100B30002C2225642E25642E25642E256422000097
:100B40000D0000202100002041542B4357534150F9
:100B50003D222573222C222573222C352C330000B4
:100B60005749464920474F54204950007C090020EE
:100B700010270000410000205F00002041542B435B
:100B8000574A41503D222573222C22257322000012
:100B900041542B4349504D55583D310083000020AE
:100BA00041542B4349505345525645523D312C2513
:100BB0007300000041542B43495053544F3D33368A
:100BC000300000000B00002024242074686520679A
:100BD0005F61745F63697073746172745F6E3D25E9
:100BE000640D0A0041542B4349505354415455530A
:100BF000000000002B4349505354415455533A00D0
:100C000041542B434946535200000000730000201A
:100C1000770000207B00002041542B43495053545F
:100C2000413D2225642E25642E25642E2564222C28
:100C30002225642E25642E25642E2564222C22254F
:100C4000642E25642E25642E256422000FB410B571
:100C5000C0B043ABFE216846429A04F0A9FC094C9F
:100C60000021C943206807F075FE694606A004F01C
:100C70007BFC206807F0E8FE40B010BC08BC04B064
:100C800018470000E00000202573000010B5002484
:100C90003A4A21463A4807F005FF3A4900280860D9
:100CA00000D10124384A0021384807F0FBFE3849BA
:100CB0000028086000D1641C364A0021364807F03D
:100CC000F1FE36490028086000D1641C344A002136
:100CD000344807F0E7FE34490028086000D1641C5E
:100CE00032480078012813D1314A0021314807F0F9
:100CF000D9FE31490028086000D1641C2F4A002128
:100D00002F4807F0CFFE2F490028086000D1641C4F
:100D10002D480078012813D12C4A00212C4807F0D7
:100D2000C1FE2C490028086000D1641C2A4A002119
:100D30002A4807F0B7FE2A490028086000D1641C41
:100D4000284A0021284807F0ADFE284900280860FD
:100D500001D1641CE4B2264A0021264807F0A2FE15
:100D600025490028086001D1641CE4B2002C01D0A0
:100D700022A000E02BA0FFF769FF10BD00B400081F
:100D800029310008FC00002024B40008250F0008C9
:100D90000001002048B4000845310008040100208B
:100DA0006CB40008C934000808010020C400002009
:100DB000F4BA000845530008140100203CBB0008A9
:100DC000D15200081C010020C5000020D0BA000844
:100DD000615400081001002018BB0008A953000846
:100DE0001801002060BB0008A93500082001002080
:100DF00084BB0008D5780008240100202424232384
:100E00002323232323204372656174725461736B1F
:100E10002069732045727220232323232323230D6B
:100E20000A000000242440404040404040204372DB
:100E3000656174725461736B206973204F4B20405D
:100E40004040404040400D0A00000000F0B5304CEA
:100E500001258FB0A91EE06907F07CFD00212D4A15
:100E600008464B00491CC9B2D0521029F9D32A4A6E
:100E700001214B00491CC9B2D0520529F9D9274A92
:100E800001214B00491CC9B2D0520329F9D9E069AC
:100E900007F0DAFD012007F04DFC0021C943606A2C
:100EA00007F058FD1022002106A804F046F8606AF9
:100EB00007F0CAFD002106AA01A84E08535C76007F
:100EC00083531B02491C8353C9B24B085B00C65AAB
:100ED000575CF619B6B2C652114B9E4202D0002E94
:100EE00000D00025491CC9B21029E6D3012007F023
:100EF00021FC002D09D1691E606A07F02BFD00203E
:100F000003F0F6FF606A07F09FFD0FB0F0BD000030
:100F1000C80000205E1E0020A0020020000000206B
:100F2000FFFF000008B53EA000680090642007F0B5
:100F300001FC3C4C3C4F3D4E012568464078002862
:100F400026D004213A4800F08FF9012802D0002071
:100F50006946487068468078002831D002213448BC
:100F600000F082F9012802D00020694688706846A6
:100F7000C07800283CD001212D4800F075F90128E7
:100F800002D000206946C870012007F0D3FBD4E7E7
:100F90000421274800F068F90128DBD1608800218E
:100FA000401C6080684645703D70C943306807F05A
:100FB000D1FC204861884181306807F045FDC9E7D0
:100FC00002211B4800F050F90128D0D1A08800214F
:100FD000401CA080684685703D70C943306807F0AA
:100FE000B9FC1448A1888181306807F02DFDBEE767
:100FF00001210F4800F038F90128C5D1E08800210F
:10100000401CE0806846C5703D70C943306807F0F9
:10101000A1FC0848E188C181306807F015FDB3E7FD
:1010200000010101000000200A000020E40000206F
:10103000000400485E1E002072B6FEE730B501468F
:1010400020314B780022022B04D0042383630A70E2
:10105000012030BD03681C680E25AC431C6003688A
:101060001C68640864001C600123056C1C46C06B8E
:10107000AC4044604B700A70002030BD70B5002455
:10108000014620314A78022A03D0042181630124D9
:1010900016E0026813680E25AB43136002681368FC
:1010A0005B085B0013600122056C1346AB40C56B07
:1010B0006B604A7000220A70416B002900D088479B
:1010C000204670BDF8B5002303240125BAE02E4662
:1010D0009E40B44632407CD00E79B607B60F012E42
:1010E00001D0022E17D186682746B6465E00B7406B
:1010F00000967646BE43B646CF68009EB740764619
:101100003743876046686746BE430F79FF06FF0F87
:101110009F40374347600E79F643B6070ED0C66846
:101120002746B4465E00B646B7406646BE43B44660
:101130008F687646B74066463743C7600E79B60774
:10114000B60F022E14D1DE08B60036180096366AA5
:101150005F07B446FE0E0F27B646B7406646BE434D
:10116000B4460F697646B74066463743009E3762FD
:1011700006682746B4465E00B646B7406646BE439C
:101180000F79B446BF07BF0F7646B7406646374370
:1011900007604E68B603B60F53D02D4FBE692E437D
:1011A000BE61BE699F08F607F60F2A4EBF00BE1942
:1011B0000096B6680F27B4469E07360FB646B7406E
:1011C0006646BE430927FF06B446B84202D100274F
:1011D00010E036E0204FB84201D101270AE01F4F4E
:1011E000B84201D1022705E01D4FB84201D10327C3
:1011F00000E005277646B74066463743009EB76055
:10120000184EB6684F689643FF0200D51643154F37
:10121000BE60FE684F689643BF0200D51643114F6B
:10122000FE607E684F689643BF0300D516430D4F9E
:101230007E603E684F689643FF0300D51643094A17
:1012400016605B1C0A681646DE4000D03FE7F8BD1A
:10125000001002400000014000040048000800485F
:10126000000C0048000401400069084000D0012043
:101270007047002A01D08161704781627047000089
:1012800001488068704700007C0200200148006B24
:101290007047000080F7FF1F0148406B7047000057
:1012A00080F7FF1F70B5024640325378202B1CD1C7
:1012B0001378012B19D0012313702424547004686F
:1012C00025689D432560046825681E03B543256095
:1012D000046825680D4325600068016819430160B2
:1012E000202050700020107070BD022070BD70B5BD
:1012F000024640325378202B1BD11378012B18D093
:10130000012414702423537003681D68A5431D60D5
:1013100005682B680F263602B3430902194329607A
:101320000068016821430160202050700020107087
:1013300070BD022070BD000070B5040006D02546C7
:10134000403568780026002802D005E0012070BDF5
:101350002E70204600F02AFA242068702068016868
:101360004908490001600F21606809068843216827
:10137000086121688A680120C00382438A60E168AD
:101380000129A16808D021229202114322689160AC
:10139000E168022902D005E00143F7E70121226854
:1013A000C902516021684A680F4B1A434A6021689C
:1013B000CA688243CA60616920690843A169090259
:1013C00008432168C860216AE06908432168086011
:1013D0002068016801221143016066642020687062
:1013E0002663AE70002070BD00800002FFB5044689
:1013F000002083B02546403501906A78202A7FD1AD
:1014000022689269D24312047AD52A78012A77D0C9
:1014100001222A7024226A7060648F05BF0DE06883
:1014200001280AD0374801213818890288432168E9
:101430004860FFF725FF06460CE03348F3E70698BF
:10144000401C07D0FFF71CFF811B0698814219D86A
:10145000002817D02168886989698006C00FC906ED
:10146000C90F0843EBD020688069069BC043C006C3
:10147000009617D500222021204601F0F9FB002814
:1014800030D107E020206870616C01436164002066
:10149000287027E021682020C8616870002028702B
:1014A00007B0F0BD00222021204601F0E1FB00281A
:1014B00018D121681020C86121682020C8610199D5
:1014C0000598814214D1206841680122920311439A
:1014D00041600096002220212046069B01F0C8FBB7
:1014E000002802D00120DBE70AE021682020C86143
:1014F0000198401C01460190059881428FD3C1E7B5
:101500000220CDE70028000200200002FFB50546BA
:1015100004464035687883B0202875D10C9800289F
:1015200014D00D98002811D0287801286CD0012003
:101530002870FFF7A5FE0746012200901923D1036A
:10154000204601F095FB002874D103E00120400201
:1015500060646FE0222068704020A87000266664F6
:101560000C9860620D98608566630E9800900197F4
:1015700004A90EC9204601F005FB002801D02E70F9
:1015800058E0618D3448FF2905D9FF2222850123C7
:101590001B06009006E0618D21850090208D0123BF
:1015A000C2B25B062046049901F04CFB0097002272
:1015B000042120460E9B01F05BFB00283AD12068F5
:1015C000406A616A0870606A401C6062208D401E3B
:1015D00081B22185608D401E6085608D00281FD0FE
:1015E00000291DD100970022802120460E9B01F08A
:1015F0003FFB00281ED1608DFF2806D9FF222285DF
:1016000001231B06009607E024E0608D20850096EC
:10161000208D0123C2B25B062046049901F012FB23
:10162000608D0028C2D13A4620460E9901F051FB48
:10163000002802D0012007B0F0BD20682021C16140
:1016400020684268054B1A4042606970AE702E7087
:101650000020F0E70220EEE70024008000E800FE12
:10166000FFB5054604464035687883B0202872D11E
:101670000C98002814D00D98002811D02878012843
:1016800069D001202870FFF7FBFD0746012200907A
:101690001923D103204601F0EBFA002871D103E0B1
:1016A0000120400260646CE0212068704020A87036
:1016B000002666640C9860620D98608566630E98DB
:1016C0000090019704A90EC9204601F08BFA00286A
:1016D00001D02E7055E0608DFF2805D9FF222285AC
:1016E00001231B06009606E0608D20850096208D64
:1016F0000123C2B25B062046049901F0A3FA3A46E0
:1017000020460E9901F010FB00283AD1606A21684A
:1017100000788862606A401C6062608D401E60854F
:10172000208D401E80B22085618D00291FD00028A9
:101730001DD100970022802120460E9B01F098FACF
:1017400000281ED1608DFF2806D9FF2222850123A3
:101750001B06009607E024E0608D20850096208D12
:101760000123C2B25B062046049901F06BFA608D3A
:101770000028C4D13A4620460E9901F0AAFA002862
:1017800002D0012007B0F0BD20682021C16120688F
:101790004268054B1A4042606970AE702E7000209E
:1017A000F0E70220EEE7000000E800FE10B586B08A
:1017B000044614216846FEF745FD12492068884218
:1017C0001DD1114C6169012080040143616161698F
:1017D00001400591C02000901220012101900320BA
:1017E00002910491039069460848FFF76BFCE16998
:1017F000012040050143E161E1690140059106B026
:1018000010BD0000005400400010024000040048D9
:101810000248816802788918816070477C02002044
:1018200010B506480168102211430160032000F042
:1018300007F800F027F8002010BD0000002002404B
:1018400070B504460D4D7D202978C000FEF78AFC56
:1018500001460B480068FEF785FC00F0F5FC002807
:1018600009D1042C07D200222146401E00F02EF898
:1018700000206C6070BD012070BD00007C02002063
:101880008802002008B50A4881690122114381615C
:10189000816911400091C26901040A43C261C069B3
:1018A0000022084003210090481F00F00FF808BDF7
:1018B00000100240002805DBC106C90E0120884047
:1018C000014908607047000000E100E010B503F036
:1018D000D5FE10BDBFF34F8F04490348C860BFF366
:1018E0004F8F00BFFDE700000400FA0500ED00E0A7
:1018F000F8B505460068354CC00352D5E0690026AE
:10190000C00007D4E16920040143E161E1690140BD
:10191000012600912E480168C90510D4016882157E
:1019200011430160FFF7ACFC074604E0FFF7A8FC99
:10193000C01B642824D826480068C005F6D5206A54
:1019400003273F02384020D06968394081421CD0CB
:10195000206A226AB843012109040A432262226AEA
:101960008A4322622062C0070FD0FFF789FC0090F3
:1019700008E0FFF785FC0099411A1648814201D919
:101980000320F8BD206A8007F3D5206A6968B84350
:1019900008432062002E04D0E16901200007814342
:1019A000E1612878C00705D0206BA9688008800015
:1019B000084320632878800605D5206B10218843D2
:1019C000E968084320630020F8BD000000100240D1
:1019D0000070004088130000F8B50F46060059D08B
:1019E0003A4D2868C007C00FB84209D2286840089D
:1019F0004000384328602868C007C00FB84249D16A
:101A00003068334C81070CD5400704D56068072146
:101A10000902084360606068F0218843B1680843A8
:101A200060603078C00726D0706801280ED0216829
:101A300002280ED0890700292CDA616889088900FC
:101A400001436160FFF71CFC00900DE021688903F1
:101A5000F1E78901EFE7FFF713FC0099411A1D48F0
:101A6000814201D90320F8BD60680C2108407168EB
:101A700089008842EFD12868C007C00FB8420BD94F
:101A8000286840084000384328602868C007C00F15
:101A9000B84201D00120F8BD3078400706D5606813
:101AA000072109028843F1680843606000F028F8C4
:101AB0006168094A0906090F515CC8400749086076
:101AC0000320FFF7BDFE0020F8BD0000002002400B
:101AD0000010024088130000F0BB000888020020BC
:101AE0000448054900684968044A4905490F515CA2
:101AF000C8407047880200200010024000BC000867
:101B000010B50F494B680C201A4602400D48042AB4
:101B100014D0082A12D19A020B4C120FA45CC96A85
:101B2000094A0907090F1032525CD903890F0023B3
:101B30001946FEF72DFB214603F07BFD10BD00008A
:101B40000010024000127A00D0BB0008FEB504006D
:101B500071D02078DC4DC00749D068680007800F3D
:101B6000012820D068680007800F022804D1686827
:101B7000C003800F022816D0012062680004012AE9
:101B800018D08100002A01D0052A17D02A68824384
:101B90002A60286888432860606800281BD0FFF707
:101BA0006FFB064613E02868800320D56068002894
:101BB000CED01CE0296801432960EDE72A680A437A
:101BC0002A60F7E7FFF75CFB801B642870D8286861
:101BD0008003F7D50BE0FFF753FB064604E0FFF761
:101BE0004FFB801B6428F1D828688003F7D4207845
:101BF0000126800700283EDA68680007800F13D0AE
:101C000068680007800F022804D16868C003800F4D
:101C1000012809D0E068002828681DD030432860DA
:101C2000FFF72EFB07460CE0286880070CD5E0681C
:101C3000012800D108E043E1FFF722FBC01B022886
:101C4000C4D828688007F7D52868F8218843216917
:101C5000C900084328600EE0400840002860FFF7F4
:101C60000FFB074604E0FFF70BFBC01B0228ADD8B3
:101C700028688007F7D42078000722D5E06900287B
:101C8000686A0ED030436862FFF7FAFA074604E04C
:101C9000FFF7F6FAC01B022898D8686A8007F7D5C4
:101CA0000FE0400840006862FFF7EAFA074605E0E7
:101CB0009DE0FFF7E5FAC01B022887D8686A800715
:101CC000F7D4207804274007002860DA002001902C
:101CD000E869C00008D4E969B8060143E961E96927
:101CE000014001200091019078480168C90511D494
:101CF0000168821511430160FFF7C2FA009005E008
:101D0000FFF7BEFA0099401A642870D86F4800683F
:101D1000C005F5D5A06801280AD0002801D0052803
:101D200010D0286A400840002862286AB84301E0C1
:101D3000286A30432862A068002812D0FFF7A0FA72
:101D400000900AE0286A38432862F1E7FFF798FA22
:101D50000099411A5E48814249D8286A8007F5D522
:101D60000DE0FFF78DFA009006E0FFF789FA009981
:101D7000411A574881423AD8286A8007F5D4019819
:101D8000002804D0E869012109078843E861207828
:101D9000C00635D5606901280CD0401D686B23D082
:101DA00038436863686B400840006863FFF768FA6F
:101DB000064622E0686B38436863686B30436863AB
:101DC000FFF75EFA064604E0FFF75AFA801B022886
:101DD0005BD8686B8007F7D5686BF8218843A169E9
:101DE000C900084368630BE0B8436863F4E74CE05C
:101DF000FFF746FA801B022847D8686B8007F7D4A4
:101E0000206A00285ED069680907890F022942D03C
:101E1000012636060228286805D0B0432860FFF75F
:101E20002FFA044633E0B0432860FFF729FA07464B
:101E300004E0FFF725FAC01B022826D82868800195
:101E4000F7D4E86AE16A000900010843E862616AC0
:101E5000A06A084369687B22D20391430843686003
:101E6000286830432860FFF70BFA044604E0FFF7C8
:101E700007FA001B022808D828688001F7D521E05E
:101E8000FFF7FEF9001B022801D90320FEBD2868D8
:101E90008001F5D416E00128F8D06868E96A0322C9
:101EA000D203636A02409A420AD10907E26A090F23
:101EB000914205D10F2189040840A16A884201D0CE
:101EC0000120FEBD0020FEBD001002400070004059
:101ED00088130000F8B504000CD0606A00250028C3
:101EE0000AD02561656126464036A562707F0028CC
:101EF00008D00BE00120F8BD6168C81FFD38F2D0A2
:101F0000E561F0E73577204600F05CF80222727751
:101F1000206801684023994301600723E1681B02A0
:101F2000994201D9002001E0012000030F273F0260
:101F3000B94202D0994200D0A562FF2361680533FF
:101F400019402127A368BF023B401943236913406E
:101F5000227D1943D207D20F11430123A2695B02EC
:101F60001A401143E26938231A401143226A802340
:101F70001A401143A26A9B011A4011432268116062
:101F8000A1690422090C1140626A10231A4011430E
:101F9000626B08231A4011430F23E2681B021A40A8
:101FA0001143012212031040014320684160206860
:101FB000C16952109143C1612566012070770020EC
:101FC000F8BD0000F0B587B0044614216846FEF75E
:101FD00039F91B4F0122266800231A499204022571
:101FE00003241948BE420ED18F698E1437438F6186
:101FF0008F69374005974E6916434E614969114014
:102000000591382111E0114FBE4216D1CF69361427
:102010003743CF61CF69374005974E6916434E610C
:1020200049691140059107214903009102930195E7
:10203000039404936946FFF745F807B0F0BD00002C
:102040000030014000100240000400480038004009
:10205000FFB5044683B00120254640350090287F17
:1020600000271E4601280FD001202877FFF708F926
:102070000190687F616801280DD0CA1FFD3A08D120
:10208000A168002905D102E0022007B0F0BD0428B4
:1020900001D00227D4E0049800286FD005980028CA
:1020A000FBD0002EF9D0687F042801D00520687786
:1020B0000020206605992164EE80AE800499A1631A
:1020C000E687A687E064206507210120E26809020F
:1020D00000038A422268536801D9834300E0034326
:1020E000536020680268520603D4026840231A43F2
:1020F0000260E0688842606848D9002801D0012E5B
:102100003DD1A06B01882068C160A06B801CA063DA
:10211000E08F401EE08732E020688168890710D593
:10212000E18F00290DD0009901290AD1A16B0988FE
:10213000C160A06B801CA063E08F401EE087002080
:10214000009020688168C9070DD0E98800290AD06D
:10215000C068216C0880206C801C2064E888401EC8
:10216000E88001200090FFF78BF80199401A0C9944
:10217000884204D3481C02D003275FE05CE0E08F74
:102180000028C9D1E8880028C6D148E0002801D03D
:10219000012E3ED1A06B216800780873A06B401C13
:1021A000A063E08F401EE08733E0206881688907E4
:1021B00010D5E18F00290DD0009901290AD1A16B1A
:1021C00009780173A06B401CA063E08F401EE0877C
:1021D0000020009020688168C9070DD0E988002997
:1021E0000AD0007B216C0870206C401C2064E888B9
:1021F000401EE88001200090FFF742F80146019858
:10220000091A0C98814202D3401C02D0B4E700287E
:10221000B2D0E08F0028C8D1E8880028C5D1204678
:10222000019A0C9902F0C2F8002802D00127202060
:102230002066206E002801D0012701E00120687788
:1022400000202877384620E7094910B5401E88420B
:1022500001D9012010BD074C60610321081F03F064
:102260000DFA0020A06107202061002010BD0000B1
:10227000FFFFFF0000E000E07047704770B504000A
:1022800005D025462035687F002802D006E00120D1
:1022900070BD00202877204600F014F802206877EF
:1022A000211D206802F07EFA01204034A071A87739
:1022B000E87720706070A070E070207160716877BE
:1022C000002070BD08B50068094988420FD109484F
:1022D000C26910210A43C261C0690022084000900F
:1022E00003211120FFF7F2FA1120FFF7E3FA08BDEE
:1022F0000010004000100240704770B504460068AE
:1023000001690025C9438907002915DBC168C94354
:10231000890711D4E91E01610120207720688069B6
:102320008007204602D0FFF7E7FF04E000F096F8B0
:10233000204600F094F8257720680169C9434907D1
:1023400017D4C168C943490713D40421C9430161A3
:1023500002202077206880698005800F204602D007
:10236000FFF7CAFF04E000F079F8204600F077F8A4
:10237000257720680169C943090716D4C168C94394
:10238000090712D40821C94301610420207720687D
:10239000C0698007204602D0FFF7AEFF04E000F0DE
:1023A0005DF8204600F05BF8257720680169C94395
:1023B000C90617D4C168C943C90613D41021C9433B
:1023C0000161082020772068C0698005800F2046C1
:1023D00002D0FFF791FF04E000F040F8204600F043
:1023E0003EF8257720680169C943C90708D1C1684B
:1023F000C943C90704D1891E0161204600F030F8A5
:1024000020680169C943090609D4C168C94309069E
:1024100005D48021C94301612046FFF72DFF2068C4
:102420000169C943490609D4C168C943490605D4AD
:102430004021C9430161204600F02CF82068016961
:10244000C943890609D4C168C943890605D4202136
:10245000C94301612046FFF710FF70BD7047704708
:1024600000680A4988420FD109487D224168D2009C
:10247000491C4160914207D3002141608168491C99
:1024800081608178491C8170704700000010004015
:102490003C010020704770470068074988420AD114
:1024A00006490868C269D243120704D408220262AE
:1024B0000868C169808C7047004C0040B407002058
:1024C000F8B502680446D069116893689E4D0646C7
:1024D0002E4025468035002E71D09C4FDE07F60F2A
:1024E0000F4037437ED0C70706D0CF0504D501275C
:1024F00017626A683A436A60820708D5DA0706D02D
:10250000276802223A626A6804273A436A604207EF
:1025100008D5DA0706D0236804221A626A68022303
:102520001A436A60020709D520220A40324305D0C7
:10253000236808221A626B6813436B60020509D591
:102540004A0107D501222368D2021A626B68202251
:1025500013436B606A68002A39D0800606D5880666
:1025600004D5A16E002901D02046884768682168FB
:102570008968490602D4282108422DD0204602F05D
:102580008BFB21688868400622D5EFF3108001227A
:1025900082F310888A6840239A438A6080F3108807
:1025A000606F002814D06A494163606FFEF766FDD2
:1025B00000280CD0606F416B08E000E012E0830659
:1025C00010D58B060ED5A16EA3E020468847F8BD36
:1025D0002046FFF761FFF8BD2046FFF75DFF0020B2
:1025E0006860F8BD236E012B7ED1C3067CD5CB0677
:1025F0007AD510231362226890682646400640363A
:10260000002848DA616F086840680004000CE8D0D0
:10261000378B8742E5D970838869202834D0EFF35F
:102620001080012181F3108811681F01B9431160E6
:1026300080F31088EFF31080012181F31088216866
:102640008A68520852008A6080F31088EFF3108085
:10265000012181F3108821688A684027BA438A6083
:1026600080F310882020286000202066EFF310807F
:10267000012181F3108821680A689A430A6080F377
:102680001088606FFEF7DAFC02206066308B718B79
:10269000401A81B234E0308B718B401A81B2708B5A
:1026A00000289ED000299CD0EFF31080012686F3ED
:1026B00010881668FF272137BE43166080F3108804
:1026C000EFF31080012282F3108822689668760862
:1026D0007600966080F31088202028600020206615
:1026E000A066EFF3108000E00EE0012282F3108874
:1026F000226815689D43156080F31088022060668B
:102700002046FFF7C8FEF8BD030606D50B0604D524
:10271000E16E002900D058E7F8BD4006FCD5480618
:10272000FAD52046EFF31081012383F31088146853
:1027300040239C43146081F310882021C16700214D
:10274000C16600F083F9F8BD0F0800002001000405
:10275000854C000810B5040003D0E06F002802D0BB
:1027600007E0012010BD002178200155204600F02F
:1027700027F82420E06720680168490849000160C3
:10278000204602F0B9FA0128ECD0606A002802D095
:10279000204602F0AFF9206841680122D20291433D
:1027A0004160206881680822914381602068016847
:1027B000012211430160204602F002FA10BD000020
:1027C000F0B587B0044614216846FDF73BFD294F5C
:1027D000266801230920002427495B0402250322DF
:1027E000C006BE4218D18F69DE1037438F618F69F2
:1027F000374005974E691E434E614969019519405E
:1028000005915102009101210491029403926946BD
:10281000FEF758FC07B0F0BD184FBE42FAD1CF69A1
:102820000126F6043743CF61CF69374005974E69DB
:102830001E434E614969009219400591042104919B
:102840000195029403926946FEF73CFC00220321A5
:102850001D20FFF73BF81D20FFF72CF80848016802
:102860000A6820231A430A60006801681022114395
:102870000160CFE70038014000100240004C0040EA
:10288000B4070020FFB5074604468037386885B096
:102890000E46202802D0022009B0F0BD002E0CD038
:1028A0000798002809D00120A1680003814206D1C1
:1028B0002069002803D1F00701D00120ECE70020B7
:1028C0007860222139602066FEF7DAFC0490254604
:1028D000403507982883079868830121A068090379
:1028E000884206D12269002A01D1274A0CE0FF2242
:1028F0000AE07F22002812D001231B07984212D140
:102900002369002B00D03F22AA8392B20292884210
:1029100002D12069002808D00196002607E023692B
:10292000002BE4D0F0E70022EEE700200190D0B2C7
:102930000390688B002822D0089800900022202164
:102940002046049B02F084FA002803D0202038603F
:102950000320A1E7019800282068808C0AD0039901
:102960000840019908700198401C0190688B401E36
:102970006883DEE7029908403080B61CF6E7202025
:102980003860002088E70000FF010000FFB5044622
:10299000C06F83B017460D46202802D0022007B032
:1029A000F0BD002D0BD0002F09D00120A16800033D
:1029B000814206D12069002803D1E80701D0012017
:1029C000EDE70021842001512120E067FEF758FC4B
:1029D000264640360190378277820120A1680003A5
:1029E000814202D12069002802D02F46002511E043
:1029F00000270FE000228021204602F029FA00285B
:102A000015D1002F17D02168387808857F1C708A6F
:102A1000401E7082708A019B002806980090E9D1C0
:102A200000224021204602F013FA00280AD020207C
:102A3000E0670320B3E728882168C005C00D08853A
:102A4000AD1CE4E72020E0670020A8E77047FEE720
:102A500001688A69D243920701D400228A62006821
:102A60008169C943C90703D081690122114381618A
:102A700070470000F7B50446006882B081690026FF
:102A80002746C906403735460092002945DA10210D
:102A9000C16132E00398401C2FD0FEF7F1FB009992
:102AA000411A0398814201D8002826D12068416844
:102AB000012292031140BA788369DB431B0417D4C7
:102AC00001239B03994213D0202A11D04168194356
:102AD0004160FEF7D5FB00900AE0FEF7D1FB01460E
:102AE0000098081A192803D920200543012604E07C
:102AF00020688069C0438006EFD420688069C043A5
:102B0000800602D5002EC5D004E0002E02D1216837
:102B10002020C86104200543012621688869C20578
:102B200004D5012215431202CA610126410508D5C8
:102B300008210D43CA012168CA610126800502D41B
:102B40000AE0800506D50220054321680002C8611D
:102B5000012601E0002E0FD02046FFF779FF206804
:102B60004168074A11404160606C2843606420203E
:102B700078700020B8703870304605B0F0BD0000A5
:102B800000E800FEF8B50446164615481D46DAB2C0
:102B90000090079F0023204600F054F83A46204654
:102BA000069900F0C1F8002818D12846F5B201288E
:102BB00009D02168300A88623A462046069900F01A
:102BC000B3F800280AD120688562009700224021CE
:102BD0002046069B00F04CF8002800D00120F8BDEC
:102BE00000200080F8B50446164615481D46DAB2A6
:102BF000C3020090079F204600F024F83A46204682
:102C0000069900F091F8002818D12846F5B201285D
:102C100009D02168300A88623A462046069900F0B9
:102C200083F800280AD1206885620097002280215D
:102C30002046069B00F01CF8002800D00120F8BDBB
:102C400000200080890510B5890D12041143029CF3
:102C5000194302682143490050684908630D034C39
:102C6000234398430843506010BD0000FF63FF03F7
:102C7000F8B51E4617460D4604461EE0701C1CD0D3
:102C8000FEF7FEFA0699401AB04201D8002E14D180
:102C900020688169284688430DD00020B8420CD1B5
:102CA000616C202001436164403460700020A0709A
:102CB00020700120F8BD0120F0E7206881692846D6
:102CC000884304D00020B842D8D00020F8BD0120AD
:102CD000F9E770B516460D4604461EE03246294611
:102CE0002046FFF7C7FE002801D0012070BDFEF787
:102CF000C7FA801BA84201D8002D0ED12068806938
:102D0000C043800609D5616C2020014361644034D2
:102D100060700020A0702070E7E720688069C043E1
:102D20008006DBD4002070BD70B516460D46044603
:102D300020E0324629462046FFF79CFE002801D0BD
:102D4000012070BD681C15D0FEF79AFA801BA842BE
:102D500001D8002D0ED120688069C043800709D5B5
:102D6000616C202001436164403460700020A070D9
:102D70002070E5E720688069C0438007D9D400202F
:102D800070BD00000A4610B57D230146DB000248F5
:102D9000FEF72CFB10BD0000C805002010B504464E
:102DA000002007F077F92002000E01F035FB200427
:102DB000000E01F031FBF820204001F02DFB002037
:102DC00000F006F80446012007F064F9204610BD23
:102DD00010B501F021FB10BD70B504460D46002072
:102DE00007F058F92002000E01F016FB2004000E37
:102DF00001F012FBF8200440241DE0B201F00CFBAE
:102E0000284601F009FB012007F044F970BD0000DD
:102E1000F8B5244E0920717800270125C006B41F9B
:102E2000002908D00821FEF71FFA00280DD060788D
:102E3000002808D123E00821FEF716FA0028607860
:102E400004D0002819D0401E6070F8BD401CC0B2EC
:102E500060700528F9D3144F32207D8060701348CC
:102E60007570134C05700021C943206805F072FD90
:102E7000104879880180206810E07770F8BD0A4C0E
:102E80000A48678077700570094D0021C94328689A
:102E900005F060FD074861880180286805F0D4FDD1
:102EA000F8BD0000F6000020940200200A00002077
:102EB000E40000205E1E0020F8B5214E0920B17804
:102EC0000027204DC006B41F002908D01021FEF7AE
:102ED000CBF900280DD0A078002808D11FE01021E0
:102EE000FEF7C2F90028A07804D0002815D0401EB3
:102EF000A070F8BD401CC0B2A0700528F9D3124FD5
:102F00000120B8803221A1701049B0700870811E74
:102F1000286805F01FFDB9880CE0B770F8BD0A4CB1
:102F20000A49A780B77001200870811E286805F043
:102F300011FDA18806484180286805F085FDF8BD8F
:102F4000F6000020E4000020940200200A00002087
:102F50005E1E0020F8B5214E0920F1780027204D93
:102F6000C006B41F002908D02021FEF77DF90028F3
:102F70000DD0E078002808D11FE02021FEF774F979
:102F80000028E07804D0002815D0401EE070F8BD7D
:102F9000401CC0B2E0700528F9D3124F0120F88020
:102FA0003221E1701049F0700870811E286805F028
:102FB000D1FCF9880CE0F770F8BD0A4C0A49E780AB
:102FC000F77001200870811E286805F0C3FCE188B5
:102FD00006488180286805F037FDF8BDF60000201E
:102FE000E4000020940200200A0000205E1E002061
:102FF000F8B5214E092031790027204DC006B41FB5
:10300000002908D04021FEF72FF900280DD02079A3
:10301000002808D11FE04021FEF726F9002820797A
:1030200004D0002815D0401E2071F8BD401CC0B24D
:1030300020710528F9D3124F0120388132212171E6
:10304000104930710870811E286805F083FC3989A9
:103050000CE03771F8BD0A4C0A492781377101200D
:103060000870811E286805F075FC21890648C1801A
:10307000286805F0E9FCF8BDF6000020E400002017
:10308000940200200A0000205E1E0020F8B5214EA8
:10309000092071790027204DC006B41F002908D0EF
:1030A0008021FEF7E1F800280DD06079002808D1D2
:1030B0001FE08021FEF7D8F80028607904D00028AE
:1030C00015D0401E6071F8BD401CC0B2607105286B
:1030D000F9D3124F0120788132216171104970714A
:1030E0000870811E286805F035FC79890CE077713D
:1030F000F8BD0A4C0A496781777101200870811E6A
:10310000286805F027FC618906480181286805F0D8
:103110009BFCF8BDF6000020E40000209402002093
:103120000A0000205E1E0020FFF772FEFFF7C4FEBB
:10313000FFF710FFFFF75CFFFFF7A8FF012005F086
:10314000F9FAF1E71CB50027154E00970197012405
:103150006500705B01281BD16846015D491CC9B23E
:103160000155642914D307550E480E49405B401C95
:1031700048530D480021C943006805F0EBFB09489E
:103180000A49405B6918C8810748006805F05CFC83
:10319000641CE4B2052CDBD90A2005F0CBFAD6E793
:1031A00094020020A0020020E40000205E1E002007
:1031B00010B5184805F002FC174CA06115481030F6
:1031C00005F0FCFBE0611348203005F0F7FB2062BE
:1031D0001048303005F0F2FB0E4A6062483A022196
:1031E000082005F037FB0B4AE060303A022110203E
:1031F00005F030FB074A2061183A0221102005F043
:1032000029FB044A60616C3A0021044805F04AFC3D
:10321000A06010BDC0B30008C8000020CD45000864
:10322000F0B587B014216846FDF70CF83A484269BA
:103230000121C9040A43426142690A400592426978
:10324000C9000A43426142690A4005924269491134
:103250000A43426142690A400592426949000A43B1
:103260004261406909260840F606059001222B4973
:103270003046FDF7FEFF2A4F05210122890238461C
:10328000FDF7F7FFFF21002201313046FDF7F1FF86
:1032900001204003002400900194694602942148D3
:1032A000FDF710FF20480125009002946946019522
:1032B00003943046FDF706FF1C48009001946946D0
:1032C00002943046FDF7FEFE18480194F138009054
:1032D000694602943846FDF7F5FEA8020090019574
:1032E0006946029503943846FDF7ECFE28030090EA
:1032F00002946946019503943846FDF7E3FEE8031E
:103300000090032003900195029469463046FDF732
:10331000D9FE07B0F0BD000000100240049000008C
:10332000000400480008004804110000F8080000EC
:1033300010B514481249016013494160642181604D
:103340000121C1600021016141618161C1610162AE
:10335000FDF7F2FF002801D0FDF76EFE0121090301
:103360000848FDF79FFF002801D0FDF765FE00210A
:103370000448FDF7BCFF002801D0FDF75DFE10BD3D
:1033800000540040C80500202D1D100010B5114844
:103390000F490160FF210531416007221202C2601E
:1033A0000021816002220261012242615202826197
:1033B000016208224162C261816207220163C26226
:1033C0004163FEF787FD002801D0FDF735FE10BDF3
:1033D000003001401C06002010B511480F49016063
:1033E000FF210531416007221202C2600021816085
:1033F00002220261012242615202826101620822BC
:103400004162C261816207220163C2624163FEF7C9
:1034100061FD002801D0FDF70FFE10BD003800400F
:103420008006002010B50A48084901602F2141603C
:10343000002181607D21C900C16080218161FEF78A
:103440001DFF002801D0FDF7F7FD10BD0010004062
:10345000E406002010B50C480A490160E121490248
:10346000416000218160C16001618161C1610C2204
:10347000016242614162FFF76DF9002801D0FDF75A
:10348000DBFD10BD003801402C07002010B50C48B2
:103490000A490160E1214902416000218160C16067
:1034A00001618161C1610C22016242614162FFF7E9
:1034B00051F9002801D0FDF7BFFD10BD004C0040C0
:1034C000B4070020FEE7000008B52948007800286E
:1034D00002D10A2005F02EF9C82005F02BF9254D60
:1034E000254E26480023DB4300226946006805F08C
:1034F00073F90028F5D1684600880828F1D28000C9
:10350000305801784278090251188CB281782970BC
:103510006E2C02D00021E21C8154684600882A7873
:10352000C1B2204604F032FB0746014614A0FDF765
:103530008DFB002FD5D1601E6A28D2D828780028AC
:10354000CFD00228CDD8694609880020144A8900C6
:1035500005E07758C31CFB5C1354401C80B2A042AA
:10356000F7D310480480012006F024FEB9E70000DC
:103570000900002008000020AC020020D400002038
:103580002424686176654265656E50726F63657369
:10359000736564466C61673D25640D0A0000000098
:1035A0008E1E002062010020FF20F53005F0C2F8D9
:1035B00001251E4EED0229463046FDF755FE012835
:1035C0002FD105F0B7F829463046FDF74DFE01280A
:1035D00027D1174C2078012803D100F02DF80020C6
:1035E00020700924E706002204213846FDF741FE39
:1035F000052005F09FF8012204213846FDF739FE29
:10360000282005F097F82046641EE4B20028EAD18D
:1036100006F0D4FBFEF75EF906F0DCFB054805F08A
:1036200089F8022005F086F8C5E70000000400488C
:103630000A000020B80B000070B50026214CF643AC
:103640003146206805F086F91F4B204800225108BA
:103650004900C91849880D0A8554521CD2B2550830
:103660006D00E91889788154521CD2B2062AEED333
:10367000174A00214B085B009B185B8845181B0A02
:10368000491CAB71C9B24B085B0045189B18491C1B
:103690009B78C9B2AB710A29ECD3206805F0D4F944
:1036A0000C4C3146206805F055F9002001F020FC53
:1036B00010220021054801F05BFD206805F0C4F9E7
:1036C00070BD0000E4000020000000204808002039
:1036D000A0020020EC000020F0B5F048002189B0E5
:1036E000C943406A05F036F91D210122090301A8EA
:1036F00001F023FCE948406A05F0A6F96846007924
:1037000001250024AC28E6A07DD0FDF79FFAF2A0A9
:10371000FDF79CFAFE48C0270770A821417084700D
:103720005821C170FB48FF26067046708670C47031
:10373000F948A821077041708470C570F748F8A156
:103740000570FA48FCF7A4FDF9A1FC48FCF7A0FDC0
:10375000FB48FB490770A820487008468570C57073
:10376000F848F949067046708670C470F6480770CC
:10377000A820487008468570C570F4A1F648FCF78B
:1037800087FDF6A1F848FCF783FDF848F749077074
:10379000A82048702B2088700220C870F448F54992
:1037A000067046708670C470F2480770A820487092
:1037B0002B2088700846C570EFA1F148FCF768FD22
:1037C000F048661E0570F04831460570B34D686AD2
:1037D00005F0C0F80120000301F08AFB04229102E9
:1037E000CB4801F0C5FC0120400301F081FB04221D
:1037F000D102C84801F0BCFCB80101F079FB0422F9
:10380000B901C54800E0E3E001F0B2FC012080030B
:1038100001F06EFBC14801210278890301F0A8FC88
:103820000520400301F064FBC048FCF72AFD401C62
:1038300082B205214903BD4801F09AFC0B20000328
:1038400001F056FBBD48FCF71CFD401C82B20B2169
:103850000903BA4801F08CFC380201F049FB04224C
:103860003902B74801F084FC0D20000301F040FB51
:103870000D2104220903B34801F07AFC072040031C
:1038800001F036FB072104224903AF4801F070FC28
:103890000F20000301F02CFBAF48FCF7F2FC401CAA
:1038A00082B20F210903AC4801F062FC0120000440
:1038B00001F01EFBAC48FCF7E4FC401C82B2012185
:1038C0000904A94801F054FC1120000301F010FB89
:1038D000112104220903A54801F04AFC09277F03AE
:1038E000384601F005FB04223946A14801F040FCAE
:1038F00013273F03384601F0FBFA042239469D485E
:1039000001F036FC15273F03384601F0F1FA9C48D8
:10391000FCF7B7FC401C82B23946994801F028FCFC
:103920000B277F03384601F0E3FA01223946964817
:1039300001F01EFC17273F03384601F0D9FA012297
:103940003946904801F014FCAC2069461D270871E7
:103950003F03384601F0CCFA0122394601A801F0B4
:1039600007FC2846406A05F06FF82846611E406A49
:1039700004F0F0FF01F070FB10220021834801F0F9
:10398000DCFA2846406A05F05FF8804900200A5CAE
:10399000FF2A00D06420401CC0B21028F7D363284F
:1039A0007AD37BA0FDF752F978490020103142000C
:1039B000401CC0B28C520828F9D33146686A04F022
:1039C000C9FF002001F094FA686A05F03DF86BE247
:1039D000FDF73CF974A0FDF739F9304E0021C943D9
:1039E000706A04F0B7FF01F037FB1022002167482E
:1039F00001F0A3FA706A05F027F8644E0021103632
:103A000062484B08425C491CCFB25B001202790845
:103A1000F25249000091725AC05D101880B2705283
:103A20006B49884205D179086AA0FDF70FF9009823
:103A300034527F1CF9B21029E2D36EA0FDF706F9CB
:103A400000277800315A6EA0FDF700F97F1CFFB205
:103A5000032FF6D31FA0FDF7F9F86BA0FDF7F6F8DA
:103A600003277800315A66A0FDF7F0F87F1CFFB2FB
:103A7000082FF6D317A0FDF7E9F808480021C9433D
:103A8000C06904F067FF644B00204100725ACF18F0
:103A90007A80624FC919C3E0FBE10000C800002032
:103AA0000D0A24242D2D2D2D2D2D2D2D2D2D2D2D9B
:103AB0002D2D2D2D2D2D2D2D2D2D2D2D2D2D2D2D36
:103AC0002D2D2D2D2D2D2D2D2D2D2D2D2D2D2D2D26
:103AD0002D2D2D2D0D0A0000242423232346697249
:103AE00073742057697273742044656661756C74D1
:103AF00020506172616D6574657220466F72205747
:103B0000323551313238202323230D0A00000000C2
:103B1000970000209B0000209F000020C400002090
:103B20004D484155544F5F36000000000D00002005
:103B300031323334353637380000000021000020A0
:103B4000350000203D00002039000020484F4E4F36
:103B50005239393000000000410000203132333446
:103B600030303738390000005F000020730000203B
:103B70007B00002077000020363830300000000045
:103B800083000020C6000020C5000020A8050020FA
:103B90002424636C65617220486F6C64696E6742AF
:103BA00075660D0A0000000024242323235265615A
:103BB0006420506172616D657465722046726F6D2C
:103BC0002057323551313238202323230D0A00008B
:103BD000FFFF0000242420726561645F62756666E1
:103BE0005531365B25645D20636C65617220302041
:103BF0000D0A00002424204142433A0D0A0000002F
:103C00003078253034582D002424207377207469AF
:103C10006D65723A0D0A0000000000205E1E002053
:103C2000401CC0B24A81032800D22EE7F04B03208B
:103C30004100CF18725A403FBA87EE4F401CC91955
:103C4000C0B24A810828F3D3EB4FF86904F0FCFEB8
:103C50000021C943786A04F07DFE0422910201A884
:103C600001F06BF9E549002001AE325C0A54401CBA
:103C7000C0B20428F9D30422D102304601F05DF924
:103C8000DF490020325C0A54401CC0B20428F9D33A
:103C900003210422090301A801F04FF9D9490020AA
:103CA000325C0A54401CC0B20428F9D301229103AB
:103CB00001A801F042F9684600790028D2480BD0EB
:103CC000057005210922490301A801F036F90020F9
:103CD000315CFF2902D002E00470F2E73454401C4A
:103CE000C0B20928F4D36846047301A9C748FCF799
:103CF000CFFA0B210922090301A801F01EF90020C7
:103D0000315CFF2900D13454401CC0B20928F7D3DC
:103D10006846047301A9BE48FCF7BAFA03210422DD
:103D2000890301A801F009F9BA490020325C0A545C
:103D3000401CC0B20428F9D30D210422090301A8B4
:103D400001F0FBF8B4490020325C0A54401CC0B2B8
:103D50000428F9D307210422490301A801F0EDF852
:103D6000AE490020325C0A54401CC0B20428F9D38A
:103D70000F211A22090301A801F0DFF80020315CAD
:103D8000FF2900D13454401CC0B21928F7D368462B
:103D9000447701A9A248FCF77BFA01210D2209040E
:103DA00001A801F0CAF80020315CFF2900D1345489
:103DB000401CC0B20C28F7D36846047401A9994886
:103DC000FCF766FA11210422090301A801F0B5F8F5
:103DD00095490020325C0A54401CC0B20428F9D333
:103DE00009210422490301A801F0A7F88F49002006
:103DF000325C0A54401CC0B20428F9D313210422B7
:103E0000090301A801F099F889490020325C0A549D
:103E1000401CC0B20428F9D315210622090301A8C9
:103E200001F08BF80020315CFF2900D13454401C94
:103E3000C0B20528F7D36846447201A97D48FCF753
:103E400027FA0B210122490301A801F076F8684600
:103E500000790028784816D005701721012209033F
:103E600001A801F06AF868460079002873480CD070
:103E70000570786A04F0E8FD63486F4A01781278AB
:103E8000114304D032E00470E7E70470F1E70570F5
:103E90002CE06B4900204200401CC0B28C52082824
:103EA000F9D368A0FCF7D2FE3146E86904F052FD70
:103EB0006C4E63494F4A00204300CC5A9F199B180F
:103EC000401C7C80C0B25C810328F5D3484E03209F
:103ED00043009F19CC5A403F9B18401CBC87C0B27E
:103EE0005C810828F4D3E86904F0AEFD5EA0FCF71D
:103EF000ADFE4248C178009183784278017868A08D
:103F0000FCF7A4FE3E48C17800918378427801789E
:103F100069A0FCF79BFE3B48C1780091837842780A
:103F200001786BA0FCF792FE3748007801285BD03F
:103F30006DA0FCF78BFE71A0FCF788FE33497DA0D5
:103F4000FCF784FE32497FA0FCF780FE3148C1783F
:103F500000918378427801787EA0FCF777FE2E48A6
:103F6000C178009183784278017880A0FCF76EFEDA
:103F70002A48C178009183784278017881A0FCF7C3
:103F800065FE274985A0FCF761FE264987A0FCF75E
:103F90005DFE2548C178009183784278017888A039
:103FA000FCF754FE2148C17800918378427801786B
:103FB0008AA0FCF74BFE1E48C178009183784278B6
:103FC00001788DA0FCF742FE1A4992A0FCF73EFE54
:103FD00019480078012809D093A0FCF737FE97A074
:103FE000FCF734FE09B0F0BDA2A0A2E7A6A0F4E75A
:103FF000A00200205E1E0020C800002097000020C4
:104000009B0000209F000020C40000200D00002025
:1040100021000020350000203D0000203900002054
:10402000410000205F000020730000207B00002082
:104030007700002083000020C5000020C60000207B
:10404000B80500202424486F6C64696E6742756669
:1040500020616C726561647920636C6561720D0A20
:1040600000000000000000200D0A24242D2D2D2D1D
:104070002D2D2D2D2D2D2D2D2D2D2D2D2D2D2D2D70
:104080002D2D2D57353530302D2D2D2D2D2D2D2D20
:104090002D2D2D2D2D2D2D2D2D2D2D2D0D0A0000ED
:1040A00057353530302049503D25642E25642E2566
:1040B000642E25640D0A0000573535303020534EEC
:1040C0003D25642E25642E25642E25640D0A0000EE
:1040D00057353530302047573D25642E25642E2531
:1040E000642E25640D0A0000232323573535303014
:1040F000206973204E4F2323230D0A000D0A242428
:104100002D2D2D2D2D2D2D2D2D2D2D2D2D2D2D2DDF
:104110002D2D2D2D2D2D2D2D574946492D2D2D2D54
:104120002D2D2D2D2D2D2D2D2D2D2D2D2D2D2D2DBF
:104130002D0D0A005749464920617069643D257379
:104140000D0A0000574946492061706B65793D258D
:10415000730D0A005749464920415049503D256496
:104160002E25642E25642E25640D0A0057494649E4
:10417000204150534E3D25642E25642E25642E2566
:10418000640D0A005749464920415047573D256470
:104190002E25642E25642E25640D0A0057494649B4
:1041A0002073746169643D25730D0A0057494649BF
:1041B000207374616B65793D25730D0A0000000062
:1041C000574946492053544149503D25642E2564A2
:1041D0002E25642E25640D0A00000000574946492B
:1041E00020535441534E3D25642E25642E25642EC4
:1041F00025640D0A000000005749464920535441E8
:1042000047573D25642E25642E25642E25640D0A0E
:104210000000000057494649205245504F52543D36
:1042200025730D0A00000000232323574946492027
:104230006973204E4F2323230D0A000024242A2AC9
:104240002A2A2A2A2A2A524541442A2A2A2A2A2A5A
:104250002A2A573235513132382A2A2A2A2A2A2A3A
:104260002A454E442A2A2A2A2A2A2A2A0D0A0D0ACF
:104270000000000023232357353530302069732098
:10428000454E2323230D0A00232323574946492063
:10429000697320454E2323230D0A0000F8B501263B
:1042A000314DF60231462846FCF7DEFF0927FF06AE
:1042B00001283FD104F03EFA31462846FCF7D4FFEE
:1042C000012825D036E0002204213C463846FCF780
:1042D000D0FF642004F02EFA012204212046FCF7CE
:1042E000C8FF0024641CE4B231462846FCF7BCFF3A
:1042F000012804D10A2004F01DFAC82CF2D9314655
:104300002846FCF7B1FF0128DDD0642004F012FA42
:1043100031462846FCF7A8FF0128F0D0642004F0BD
:1043200009FA12A0FCF792FC05F048FDFDF7D2FA5D
:1043300005F050FD12A0FCF789FC052400220421A1
:104340003846FCF796FF282004F0F4F901220421F6
:104350003846FCF78EFF0F2004F0ECF92046641E6F
:10436000E4B20028EAD1F8BD000400482424204C1F
:104370006574204D43552052737365740D0A000017
:10438000242420506F776572206F6E0D0A000000A4
:104390003EB57D24E4006D461CC50A460146012356
:1043A0000148FDF7B3F83EBDC8050020F8B50F463B
:1043B0000B4615460092032104460022C90200F074
:1043C0003BF82026002812D13B46002280212046BF
:1043D000009500F09DF8002809D103213B460022FA
:1043E00049022046009500F027F8002803D0206EEF
:1043F000304320660320F8BD01B582B00A2000904A
:10440000012301AA02A90348FDF722FE68460079AC
:104410000EBD00001C06002001B582B00A200090ED
:10442000012301AA02A90348FDF712FE684600799C
:104430000EBD000080060020FFB585B00E46044684
:10444000002069460E9D17460871FCF719FF411BB5
:104450000898451AFCF714FF0390206823210C30BC
:1044600002902A4800684843000D684346E0032054
:104470004002864206D1002F04D102980178684696
:10448000017100790898401C39D0FCF7F9FE0399B6
:10449000401AA84205D2002D03D0009800282BD046
:1044A0002BE020684168E022914341606068C11FB1
:1044B000FD390CD10121A068C903884202D04911FD
:1044C000884204D1206801684022914301600120A4
:1044D000A16A4003814207D121680A6882430A60C9
:1044E00021680A6802430A60012040346077002096
:1044F0002077032009B0F0BD0025401E0090206801
:1045000080683040B842B2D10020F3E78802002032
:10451000FFB581B01E4604460A9DFCF7B1FE401B64
:10452000351AFCF7ADFE0746264800684001000D2D
:10453000684339E0701C38D0FCF7A2FEC01BA842CB
:1045400005D2002D03D0009800282BD02BE0206846
:104550004168E022914341606068C11FFD390CD180
:104560000121A068C903884202D04911884204D1C0
:10457000206801684022914301600120A16A400344
:10458000814207D121680A6882430A6021680A686B
:1045900002430A6001204034607700202077032026
:1045A00005B0F0BD0025401E00902068816802988B
:1045B000884305D0002103988142BBD10020EFE75A
:1045C0000121F8E78802002070470000FF2608B5A7
:1045D000F5360024304604F0ADF8FFF75FFE04F036
:1045E0009BFEFFF779F801F0D1FE054626A0FCF707
:1045F0002DFBFCF74BFB0927FF0600220421384660
:10460000FCF737FE304604F095F8012204213846C5
:10461000FCF72FFE304604F08DF8002D02D0002C60
:1046200025D027E01E480178012902D000F0E2F9E8
:1046300025E0002101701B4801F0FAFE642004F01F
:1046400079F8194801F060FE174801F0D3FE009098
:10465000154803794279817914A0FCF7F7FA1248DA
:1046600003784278817819A0FCF7F0FA07E01EA0E1
:10467000FCF7ECFA641CE4B20A2C00D300240120FD
:1046800004F058F8B9E700002424205374617274D0
:104690002055736572205461736B0D0A0000000091
:1046A000C2000020BA000020B2000020242420799B
:1046B0006561723D323025642C6D6F6E74683D25E6
:1046C000642C6461793D25640D0A0000242420488F
:1046D0003D25642C4D3D25642C533D25642C5765A8
:1046E000656B3D25640D0A00242420426C3830326D
:1046F00035206973204572722E2E2E0D0A0000009F
:1047000010B5FDF785F806F0C7F9012801D005F0CE
:1047100043FE10BD30B595B030216846FBF792FDE1
:1047200000240F940320009001200D941094129403
:10473000019003900E9413941020049000030990AC
:1047400000010C9402250A90119408950B94684678
:10475000FDF7FCF9002801D072B6FEE707200C90A7
:104760000E9401210D950F940CA8FDF735F9002842
:1047700001D072B6FEE7212010901294139410A875
:10478000FDF7B6F8002801D072B6FEE715B030BDCF
:104790007047000010B50248FDF7AFFD10BD0000E6
:1047A000E4060020F0B502681A4B1B4C984201D079
:1047B000A04203D17025AA434D682A43174D184ED5
:1047C000184F98420AD0A04208D0174CA04205D0FA
:1047D000A84203D0B04201D0B84205D1144603220A
:1047E00012029443CA6822438024A2434C692243A4
:1047F00002608A68C2620A688262984205D0A84252
:1048000003D0B04201D0B84201D10969016301214E
:104810004161F0BD002C0140000400400040014017
:10482000004401400048014000200040F8B500204D
:1048300003F016FF0027434C002815D0132826D07C
:10484000172833D01C280ED120781C2802D03EA077
:10485000FCF7FCF9002001F0D7FE7D20C00003F03A
:1048600069FF1C202070F8BD2078002802D03DA0F0
:10487000FCF7ECF94148202302880121002005F0D3
:10488000CDF87D20000103F055FF2770F8BD20789A
:10489000132802D03AA0FCF7D9F9642003F04AFFAC
:1048A00013202070002003F00AFFF8BD207817289D
:1048B00002D03AA0FCF7CAF9002003F0A3FEC0071B
:1048C00003D00121002004F0FAFE002003F0A2FE34
:1048D0000546401E6A2830D8364E2A46F11C002074
:1048E00004F08CFD280A3070757001253248B570CF
:1048F000A91E006804F02EF83049314A08780828CB
:1049000006D26B4618808300D650401C087003E026
:104910006846078016600D702748006804F094F818
:104920002848642300226946006803F0D3FF6846E4
:10493000018825A0FCF78AF902E0022003F0FAFEC4
:1049400017208FE7580100202424573535303020B8
:1049500074637053657276657220636C6F73650D56
:104960000A0000002424573535303020746370531A
:1049700065727665722E2E2E0D0A0000AE000020A4
:104980002424573535303020746370536572766552
:1049900072206C697374656E0D0A0000242457350B
:1049A00035303020746370536572766572205275AD
:1049B0006E0D0A00F00D0020E80000200C00002021
:1049C000AC020020D400002024245735353030209C
:1049D00050757451756575652D3E6E6574427269CA
:1049E0006467654D6F64627573206D73673D256400
:1049F0000D0A0000F8B5204C02E00A2003F09AFEF0
:104A000020780128F9D0012727701C4801F07CFC90
:104A1000002626701A4C194DA088401C80B2A08038
:104A20001E2810D3284601F0E5FC00902B796A7906
:104A3000A97914A0FCF70AF92B786A78A97819A04B
:104A4000FCF704F9A6802078002808D06088401C74
:104A500080B26080782801D926706680F8BDA87879
:104A60000028FBD168780028F8D1FCF7EFF914A0F2
:104A7000FCF7ECF82770F0E7C3000020B20000203C
:104A8000C8000020242420796561723D32302564FD
:104A90002C6D6F6E74683D25642C6461793D2564CE
:104AA0000D0A0000242420483D25642C4D3D25643A
:104AB0002C533D25642C5765656B3D25640D0A001C
:104AC00024242023232323232323232323303A3086
:104AD00030206C65742F277320636C6561722050E1
:104AE0006172616D6574657223232323232323235D
:104AF000230D0A0010B5818CC90707D001684A68E8
:104B000001235B049A43836A1A434A60818C8907B4
:104B100007D501684A6801231B049A43C36A1A43F4
:104B20004A60818C490707D501684A6801239B04C4
:104B30009A43036B1A434A60818C090707D50168C1
:104B40004A680123DB039A43436B1A434A60818C12
:104B5000C90607D50268916801231B039943836B3B
:104B600019439160818C890607D501688A68012301
:104B70005B039A43C36B1A438A60818C490612D542
:104B800003685A6801210905046C8A4322435A606C
:104B9000026C8A4207D10268516803235B0599437E
:104BA000436C19435160818C090607D501684A6836
:104BB0000123DB04806C9A4302434A6010BD00006D
:104BC000FEB507460025803704467D60FCF758FB9C
:104BD000019020680068264600076036002819DA30
:104BE000274800900121002249052046019B00F042
:104BF0002FF900280ED0EFF31080012181F31088E7
:104C000021680A6880239A430A6080F31088202074
:104C1000E06729E020680068400728D51848009020
:104C20000121002289052046019B00F011F900288E
:104C30001DD0EFF31080012181F3108821680A68EC
:104C4000FF2321339A430A6080F31088EFF310802A
:104C5000012181F3108821688A68520852008A6015
:104C600080F310882020386035760320FEBD202098
:104C7000E06738602566656635760020FEBD000079
:104C8000FFFFFF0110B5406A0022014640314A8310
:104C90004A82FDF701FC10BD10B5EFF3108101222F
:104CA00082F3108802681368FF242134A343136041
:104CB00081F31088EFF31081012282F310880268DB
:104CC00093685B085B00936081F31088016E012993
:104CD0000BD1EFF31081012282F310880268136870
:104CE0001024A343136081F31088202280210A50EE
:104CF00000210166816610BD70B504468068216997
:104D0000E2690843616900251143084321680A6884
:104D1000454B1A4002430A60216848680322120387
:104D20009043E26810434860A169206A2268084302
:104D300091680B231B029943014391603B49206812
:104D4000884210D13A48006B8007800F1AD00128A2
:104D500005D0022805D0032816D1022115E0042130
:104D600013E0082111E0334988420BD032498842D0
:104D700008D03249884205D03149884202D03149B1
:104D8000884201D1002100E010210122E369D20311
:104D90002D482E4E934222D1002906D002290BD055
:104DA000042905D0082933D117E0FCF799FE01E06A
:104DB000FCF7A6FE002832D0616840004A0880183F
:104DC000FBF7D0F901461039B14221D81F49491CDF
:104DD00001400007400F08431FE01046ECE70029A0
:104DE00006D002290BD0042905D0082910D111E0E2
:104DF000FCF776FE01E0FCF783FE00280FD0616827
:104E00004A081018FBF7AEF901461039B14203D930
:104E1000012504E01046F2E780B22168C860002056
:104E2000A066E066284670BDF369FFEF00380140D8
:104E3000001002400044004000480040004C004088
:104E4000005000400014014000127A00EFFF000003
:104E5000FFB5064681B080360546044660350A9F98
:104E60002EE0781C2CD0FCF70BFA0499401AB842BB
:104E700014D8002F12D020680168490720D5C169D5
:104E8000C94309070CD4082707622046FFF704FF2F
:104E9000776000202876012005B0F0BD0320FBE7F5
:104EA000C069C04300050BD401202168C00208621C
:104EB0002046FFF7F1FE2020706000202876EDE705
:104EC0002068C1690298884305D000210398814277
:104ED000C7D00020E0E70121F8E7000010B5034843
:104EE000FBF78CFC0148FDF7EBFA10BDB40700207E
:104EF00070B5044600F08EF900F034F9012509265A
:104F0000ED03F606002229463046FCF7B2F92020D0
:104F1000FFF772FA2002000EFFF76EFA2004000E6F
:104F2000FFF76AFAE0B2FFF767FA01222946304636
:104F3000FCF79FF900F016F970BDF8B50646012799
:104F400015460C46FF03092000223946C006FCF72F
:104F500090F90320FFF750FA2002000EFFF74CFAF9
:104F60002004000EFFF748FAE0B2FFF745FA0024EC
:104F700005E0FF2000F06BF83055641CA4B2AC4291
:104F8000F7D3092001223946C006FCF772F9F8BDB3
:104F900070B501250926ED03F606002229463046A4
:104FA000FCF767F99F20FFF727FAFF2000F04FF882
:104FB0000402FF2000F04BF800190402FF2000F06B
:104FC00046F80419012229463046FCF752F92046DA
:104FD00070BD70B501250926ED03F60600222946AD
:104FE0003046FCF746F99020FFF706FA0020FFF75D
:104FF00003FA0020FFF700FA0020FFF7FDF9FF2079
:1050000000F025F80402FF2000F021F8001984B216
:10501000012229463046FCF72CF9204670BD70B5B8
:1050200001250926ED03F606002229463046FCF745
:1050300020F90520FFF7E0F9FF2000F008F804460A
:10504000012229463046FCF714F9204670BD10B500
:10505000FFF7D2F910BD000010B50024FFF7B9FF2B
:10506000014610A0FBF7F2FDFFF792FF124A01463E
:1050700080180DD001221203801A0BD002280DD007
:1050800003280DD00DA0FBF7E1FD0124204610BD43
:1050900014A000E01BA0FBF7D9FDF7E721A0FAE779
:1050A00028A0F8E72424466C61736849443D3078B1
:1050B00025580D0A00000000EBCF10FF2424526594
:1050C000616444657669636549443D307825582DAF
:1050D0003ECEB4D6AAD0CDBAC5BCB0C6E4C8DDC1F8
:1050E000BF0D0A00242452656164446576696365D6
:1050F00049443D307825582D3E5732355131360DD3
:105100000A00000024245265616444657669636581
:1051100049443D307825582D3E5732355133320DB4
:105120000A00000024245265616444657669636561
:1051300049443D307825582D3E5732355136340D8F
:105140000A00000024245265616444657669636541
:1051500049443D307825582D3E573235513132384B
:105160000D0A000010B5FFF75AFFC007FBD110BDB4
:10517000F7B582B026480090039815460605070B40
:105180000120360D0003841BA24200D814463903C7
:105190000122120301910098FFF7CFFE002006E0E4
:1051A00000993218895CFF2903D1401C80B2A042CB
:1051B000F6D3A04225D20198FFF79AFE002006E020
:1051C00002998319095C009A401CD15480B2A04214
:1051D000F6D3012212030199009800F02EF8A5429F
:1051E00013D0029800260019029003987F1C001922
:1051F0000390281B012485B22403A542C7D82C465E
:10520000C5E7224603990298E7E705B0F0BD000024
:105210005E0E002070B501240925E403ED0600228E
:1052200021462846FCF725F80620FFF7E5F801227D
:1052300021462846FCF71DF870BDF8B507460E4616
:10524000FF20C9B20130441A1546A24200D81446C4
:1052500022463146384600F00DF8A54209D0281BF9
:105260003F193619FF2485B20134A542F0D82C46E7
:10527000EEE7F8BDF8B515460C460646FFF7CAFF3F
:105280000127FF03092000223946C006FBF7F1FF82
:105290000220FFF7B1F82002000EFFF7ADF820045E
:1052A000000EFFF7A9F8E0B2FFF7A6F8002404E02B
:1052B000305DFFF7A1F8641CA4B2AC42F8D309201A
:1052C00001223946C006FBF7D4FFFFF74BFFF8BDBC
:1052D00008B50026194D1A4CF6433346002269469C
:1052E000286803F079FA0028F7D168460088032877
:1052F0000ED27A214843215C0A02011948788018AD
:1053000082B2782AE9D80020891C04F0E7F8E4E7A3
:10531000A1280DD0A2280BD0B12809D0B22807D0DF
:10532000C12805D0C22803D0D12801D0D228D4D199
:10533000C0B2012102F080FECFE70000DC000020B7
:105340003A04002004F0B2F804F052FB04F038FAFA
:1053500009490A4804F0A8FB09A0FBF777FC642080
:1053600003F0E8F90F4901200870FFF75FFA6420A5
:1053700003F0E0F9F9E700005001002048010020A7
:10538000242450433D544350205365727665722067
:1053900057353530303D5443502053657276657231
:1053A0000D0A00000900002086B00027244E254C7D
:1053B000FF433B46002205A9306803F00DFA0028A0
:1053C000F7D16846808A032825D27A214843215C98
:1053D000001940780902401885B2782DE9D82A468C
:1053E00019A1684600F0D0F8C8221BA1684602F057
:1053F000FBFD322003F09EF96846808A7A214843FB
:1054000001190A232A461548891CFDF7BFFA6420B2
:1054100003F090F9CDE7A1280DD0A2280BD0B12838
:1054200009D0B22807D0C12805D0C22803D0D1287E
:1054300001D0D228BDD1C0B2022102F0FDFDB8E7F3
:10544000D8000020CC02002041542B434950534542
:105450004E443D302C2564004F4B0000B407002023
:10546000012409262502F606002229463046FBF7CC
:1054700000FFFF20F53003F05DF901222946304698
:10548000FBF7F7FE184803F055F9214617A0FBF784
:10549000DDFB02F06BFC002810D061001AA0FBF7C6
:1054A000D5FB7D2120460901484303F043F9032C35
:1054B00001D30124E9E7641CA4B2E6E719490120FD
:1054C000087019A0FBF7C2FB7D20C00003F032F981
:1054D00002F088FC02F0E4FC0546642003F02AF99F
:1054E000012DF7D1D1E70000B80B00002424776923
:1054F000666920696E697420737461727420666FC6
:10550000723D25640D0A00002424776966692069CC
:105510006E6974204572722064656C61793D256402
:10552000730D0A0009000020242477696669206948
:105530006E6974206973204F4B2C206D6F64627507
:105540007320636F646520456E0D0A003EB57D24AF
:10555000E4006D461CC50A46014601230148FCF7DC
:105560007FF83EBDC80500200FB410B503A9044B59
:10557000044A029800F06EF910BC08BC04B0184749
:10558000757B0008900200200FB410B504A9074BEA
:1055900002AA039800F05EF9044602A9002000F078
:1055A00002FD204610BC08BC04B01847A75F0008E5
:1055B0007CB51D4616460C0001D0611E00E000219E
:1055C00001910090054B6A462946304600F042F9A9
:1055D000002C02D0009A002111707CBD915F000860
:1055E00037B514460846064B6A46214600F032F9A4
:1055F00004466946002000F0D6FC20463EBD00006F
:10560000A75F00082021020C01D010211046020AD9
:1056100001D010460839020901D01046091F82083E
:1056200001D01046891E420801D0881E7047081A12
:105630007047F8B5040C8BB2264682B25E430D0C5F
:105640001046370C5843360480190021794116461C
:105650006E43370C36048019794126466E4389190A
:10566000F8BD30B47446641E2578641CAB4200D289
:105670001D46635D5B00E31830BC18478307FF22BB
:10568000DB0E9A408907090E9940002808DB830841
:1056900009489B001B18186890430843186070471E
:1056A0000007000F0838830804489B001B18D869BE
:1056B00090430843D861704700E400E000ED00E04B
:1056C00002E008C8121F08C1002AFAD170477047CB
:1056D000002001E001C1121F002AFBD17047000029
:1056E000F0B51FB486B00998089A030D0021024353
:1056F00014D05148514A18185043051411980128E4
:1057000010981AD0281A401C00264D4F4D4900967B
:1057100001910490002812DA444211E0119801240A
:1057200049A3012801D11098C1430698119A8460B9
:105730000360C26041600BB0F0BD4042E4E7044644
:10574000210500203F4A001C51410391029012E0C4
:10575000E00707D032463B4601990098FAF78AFEE7
:105760000191009032463B4610461946FAF782FEF8
:1057700006460F466410002CEAD10498039B0028CB
:10578000029A0999089806DAFAF774FE019B009AC2
:10579000FAF770FE05E0FAF7D5FE019B009AFAF7DA
:1057A000D1FE04460E460022284BFAF763FF03D8C9
:1057B0000020C043014607E00022254B2046314629
:1057C000FAF7A4FDFAF736FF102409E0002C0ADBF3
:1057D0000A220023FAF7DCFC079B30321A55641EBC
:1057E00002460A43F2D11122641C079B121B1C19AA
:1057F000119B012B03D0012308430ED10AE008437B
:1058000004D0112010900020119077E71098151AFD
:105810006D1E0BE01098824202DD00236D1C03E038
:10582000824201DA00236D1E002BEED006981199FA
:105830008260C16030C07EE701FCFFFF104D0000B8
:10584000000014400000F03F300000000000F04372
:105850000000E03FFFB597B0064600251BE2252873
:1058600076D100242746F749049400E00443761CCF
:1058700032780120203A90400842F7D130782A2827
:105880000ED00222307801463039092916D8049901
:105890000A235943303940181443761C0490F1E729
:1058A000189802C804911890002904DA01204003D6
:1058B00004434842049002200443761C30782E288A
:1058C00014D1042004437078761C2A2809D1189832
:1058D000761C80C8189009E00A214F43303FC71951
:1058E000761C3078014630390929F5D930786C2892
:1058F00010D006DC4C281AD068280ED06A2817D1A0
:1059000004E0742813D07A2812D110E00120400559
:1059100004430CE00121090501E0032109050C43C2
:105920007178814203D1012000052418761C761C71
:10593000307866280BD013DC58287DD009DC00288D
:105940007BD04528F6D04628F4D047281AD1A9E1C3
:1059500018E0632835D0642870D0652812D1A1E101
:1059600070286CD008DC6728F1D069287DD06E28BB
:105970000DD06F2806D1BCE073282ED0752873D0C7
:10598000782859D01A9A199990476D1C82E16002C3
:10599000400F022809D003280DD004281898016868
:1059A0000DD00D60001D189074E11898EA17016879
:1059B0000D604A60F6E7189801680D80F2E70D70F7
:1059C000F0E718986A4601781172001D18900020BF
:1059D000507202A80090012005E0189802C81890A3
:1059E00000200091C04361070ED5002101E001991C
:1059F000491C0191B94213DA8142F8DB019A0099FE
:105A0000895C0029F3D10BE0002101E00199491CD8
:105A100001918142FADB019A0099895C0029F5D154
:105A2000019904981A9B471A21463846199A00F0A2
:105A300099FA4019019903E051E030E115E050E096
:105A4000451807E0009800990078491C00911A9ABF
:105A5000199990470198401E0190401CF2D12146AF
:105A600038461A9B199A12E137E00A20002100906B
:105A700001916002410F022907D0189A01CA1892B9
:105A8000C2179446032908D00AE01898C01DC1081F
:105A9000C90005C91891944607E000B2C2179446A0
:105AA000042902D140B2C1178C46002261469445B8
:105AB00006DA0A460021404291418C462D2102E03F
:105AC000210504D52B216A461173012103E0E1076A
:105AD00001D02021F7E7029156E00A200AE01020C9
