:020000040800F2
:10000000E06B002049010008FD3300088729000843
:1000100000000000000000000000000000000000E0
:10002000000000000000000000000000E1440008A3
:100030000000000000000000070100081946000849
:100040005B010008000000005B0100085B01000884
:100050005B0100085B0100085B0100085B01000810
:10006000000000005B0100085B0100085B01000864
:100070005B0100085B0100085B0100080000000054
:100080005B010008AD4600085B0100085B01000849
:100090005B0100085B0100085B0100085B010008D0
:1000A0005B0100085B0100085B0100085B010008C0
:1000B0005B010008F54D00080448854600F0EEFAA3
:1000C000004800475D820008C046C046E06B002043
:1000D000084B19680868203080F30988022080F3F3
:1000E0001488BFF36F8F3FBCAE4608BC04BC62B639
:1000F00018470000FC010020EFF3108072B6704733
:1001000080F310887047EFF309800E4B1A6820388F
:100110001060F0C044464D4656465F46F0C008B5F4
:1001200072B609F01DFD62B60CBC1168086810308B
:10013000F0C8A046A946B246BB4680F309882038DD
:10014000F0C81847FC0100200448804704480047D5
:10015000FEE7FEE7FEE7FEE7FEE7FEE7A94600084A
:10016000B900000830B50B460146002020220124CA
:1001700009E00D46D5409D4205D31D469540491BDB
:100180002546954040191546521E002DF1DC30BD24
:10019000F0B51FB40646002082B005464024019108
:1001A00000901BE0019922460F46304600F020F8EF
:1001B000049A059B801A994110D31046194622468D
:1001C00000F094F8361A8F41019722460120002151
:1001D000009F00F08BF838184D4100902046641EB7
:1001E0000028DFDC019B00982946324607B0F0BDAD
:1001F00010B5202A04DB0846203AD040002110BD6B
:100200000B46D340D0402024A21A914008431946FF
:1002100010BD03460B439B0703D009E008C9121F1A
:1002200008C0042AFAD203E00B780370401C491C72
:10023000521EF9D27047D2B201E00270401C491E32
:10024000FBD270470022F6E710B513460A46044673
:100250001946FFF7F0FF204610BD30B505462A4687
:100260000B4610781C78521C5B1C002801D0A04261
:10027000F7D0002C03D0002802D06D1CEFE72846F1
:1002800030BD421C0178401C0029FBD1801A704708
:1002900003460A780270401C491C002AF9D118460E
:1002A0007047000070B5104D002800D12868002468
:1002B00014E00A4602E09E4203D0521C1378002B41
:1002C000F9D1DAB2224307D0002B06D0002C04D09B
:1002D00000210170401C04E00446401C0678002EFA
:1002E000E7D12860204670BD7C02002010B5202A8E
:1002F00004DB0146203A9140002010BD91402023AC
:100300009C1A0346E3401943904010BDF0B50746E0
:100310000846584087B0C00F049048000E46590068
:1003200040084908BC1A884105D2384631461E4665
:1003300017460B4602465800400810434DD0300D7A
:10034000039040055900400D490D0590401A029058
:10035000402873DA18030121000B090508430190B6
:1003600004980092002806D01146019A49420020C4
:10037000904100910190029840210A1A0199009839
:10038000FFF7B4FF05460C466B4607CB00F098F923
:10039000C0197141039A0E0D0023D71756401A4613
:1003A0007A40164344D0049A002A2DD0029A012A9A
:1003B000039A15DC1205C01A914101263605001C6E
:1003C0007141D20F059ED2070093019202962A46F0
:1003D000234600F095F907B0F0BD38463146FAE7FC
:1003E0001605234A0F46B218C01AB7410121090564
:1003F000001C4F4100187F41114618187941E20F47
:1004000010436D19644113E0E2076D081543640859
:10041000C2071443039A01261205C01A91413605FA
:10042000001C7141CE07400830434908C0185141B3
:100430002A46234600F057F9CDE7FFE7049801224A
:100440004000C117121A00238B4104983146C4178B
:10045000381AA141EEE730B40124E407634030BC10
:1004600054E730B40124E407614030BC4EE700009B
:100470000000E0FFF0B51FB488B00B990998002484
:1004800048400999C00F490049080991C0070B99D4
:100490000090490049080B9109990898A64608431D
:1004A0001CD00B990A98084318D0099801244000E1
:1004B000420D4800410D099824050003000B20431C
:1004C00009900B980003000B20430B9050181C4917
:1004D0004018002201901446104605E00020014615
:1004E0000DB0F0BD032801DA034600E003239C466B
:1004F000C11A0AAE0AE05F0008ADED5B4F00F75B82
:100500007D430027AA187C41491C5B1E6145F2DD32
:10051000410004AB5A522104120C0A43240C401C23
:100520000828DFDB01980290009970460191009045
:10053000059B049A0799069800F0E2F8D0E70000BE
:100540000DFCFFFFF0B50C465C4085B0E40FE407FE
:1005500003944C000026640859009446490802465A
:100560000296224321D062460A431ED06200570DF4
:100570004A000E032303550D012402462C4924058D
:10058000781B1B0B360B4018234326436146009013
:100590001C46501AB44103D30098401C009002E05E
:1005A000921800985B41002803DA0020014605B04C
:1005B000F0BD0020012109050746864611E064468A
:1005C0001D46141BB54106D36546521BB341744604
:1005D00007430C43A646CD07400849082843921814
:1005E0005B4105460D43EAD11046184313D06046DF
:1005F000194650407140084306D06046101AB34176
:1006000006D20122002306E000220123DB0702E0DC
:100610000122D2435310009874460105381C6141F1
:10062000029C039D0019694100F05DF8BFE70000DE
:10063000FD0300004A0009030123090B1B051943B0
:100640000A4B10B5520D9A4202DA0020014610BD45
:10065000064B34339A4203DC9A1AFFF7C9FD10BDEA
:10066000034BD218FFF742FE10BD0000FF0300004D
:10067000CDFBFFFF10B5002904DB0124E407404255
:100680008C412146002B04DB1C460123DB07524230
:10069000A341994200D1904210BD0000064C0125B3
:1006A000064E05E0E36807CC2B430C3C984710341A
:1006B000B442F7D3FFF704FD6CB700088CB700080D
:1006C00010B5202A06DBCB170846203A1041C11787
:1006D0000B4306E00B461341D0402024A21A914060
:1006E0000843194610BD10B5002B08DA0024401C41
:1006F000614192185B411A4301D14008400010BD8E
:10070000F0B51FB482B005460C0003D0084604F0D3
:10071000FBFE02E004F0F8FE203002460090214685
:100720002846FFF7E3FD049B059A04460F4618434D
:100730001143084314D0184610431BD000984021A1
:100740000A1A18460599FFF753FD05460E46009A0A
:1007500005990498FFF7CAFD084305D0012004E07D
:100760002046394607B0F0BD0020C11705430E43AF
:100770002C43374300990E986305401A7905E40A23
:1007800000220C43FD0A0A3002D500200146E9E7A9
:100790000105101969410C9C0D9D00196941FFF775
:1007A000A2FFDFE770B58C180578401C6B075B0F64
:1007B00001D10378401C2A1106D10278401C03E0C5
:1007C00006780E70401C491C5B1EF9D12B0705D41E
:1007D0000023521E0DD40B70491CFAE70378401C0D
:1007E000CB1A921C03E01D780D70491C5B1C521E35
:1007F000F9D5A142D8D3002070BD000038B50068FB
:100800001C49884235D11C4D2868C0691B4CC04327
:100810008006002821DB0023DB43012269462846AD
:1008200001F0CCFF638F20465A040121520CC038DE
:100830004904F82A02D26B461B7806E0DA0BD20391
:1008400062876B461B785204520C8354608F0F22D0
:10085000D04140181121C84160872868C169C94347
:10086000C90606D4618F0122D2031143618710218A
:10087000016238BD004C0040A4070020D20C0020CB
:10088000F0B57F4C8BB07BA020607EA060607F487D
:10089000A060C820A0827EA021466062FF25F535B9
:1008A0007CA2CD6208468A622430C821818221461A
:1008B00078A208460D65CA644830C82181820126A5
:1008C00075A17848FFF7E4FC7648A06476A021463D
:1008D000E06670A208464D670A676C306B498182FA
:1008E000204690306BA185604160690081828675E9
:1008F0006FA17148FFF7CCFC6F48902160502046F3
:1009000064A1B430416069008160490081826C4B10
:100910006C4AC361694902628161D07897785678E0
:100920001278099006A8C4C0D8789A785E781B78A7
:100930000396029304920590CA78887800900192F9
:1009400058484B780A7860A10F3004F09FFD554954
:10095000B4200F31215020464EA1D8304160A9006B
:10096000816049108182664B664AC36163490262B5
:100970008161D078977856781278099006A8C4C01B
:10098000D8789A785E781B78039602930492059043
:10099000CA7888780090019242484B780A785AA128
:1009A000553004F073FD3F48D82155306050FC2687
:1009B00038A1A0194160690081608182604B5F4A63
:1009C000C361826137485FA19B3004F05FFD354809
:1009D00062A19B30A051FF262136A01941606249D7
:1009E000816049108182624B604AC36182612D48F7
:1009F00060A1E13004F04AFD2A48FF21E130A05116
:100A000061A0453160502046FF3022A14530416051
:100A10005549816085821FA124304160C8218160D1
:100A200085825C4A82615CA1604804F02FFDFF2151
:100A30005E4869316050FF225DA08D32A050204693
:100A4000FF3014A28D304260C822826085825C48EB
:100A50000B2101705BA000F0D1F8FF2160A0B13143
:100A60006050641862A0A5606060A58205F084FBF8
:100A70000BB0F0BD41542B524553544F524500002A
:100A80004C0800207265616479000000B80B00001A
:100A9000415400004F4B000041542B43574D4F44ED
:100AA000453D3300D60A002041542B5253540000D8
:100AB000415445300000000024010020690000205E
:100AC0006D0000207100002041542B4349505354C5
:100AD000413D2225642E25642E25642E2564222C7A
:100AE0002225642E25642E25642E2564222C2225A1
:100AF000642E25642E25642E2564220035000020F6
:100B0000390000203D00002041542B434950415002
:100B10003D2225642E25642E25642E2564222C2258
:100B200025642E25642E25642E2564222C2225641E
:100B30002E25642E25642E25642200000D00002041
:100B40002100002041542B43575341503D2225732F
:100B5000222C222573222C352C330000574946497C
:100B600020474F542049500010270000410000202A
:100B70005500002041542B43574A41503D222573D4
:100B8000222C22257322000041542B4349504D55FD
:100B9000583D31007500002041542B4349505345C6
:100BA000525645523D312C2573000000FD0B0020AC
:100BB00041542B43495053544F3D31300000000005
:100BC0000B00002024242074686520675F61745F37
:100BD00063697073746172745F6E3D25640D0A0001
:100BE00041542B4349505354415455530000000085
:100BF0002B4349505354415455533A000FB410B548
:100C0000C0B043ABFE216846429A04F053FC094C45
:100C10000021C943206807F053FC694606A004F090
:100C200025FC206807F0C6FC40B010BC08BC04B02E
:100C300018470000D00000202573000010B50024E4
:100C40003A4A21463A4807F0E3FC3A49002808604E
:100C500000D10124384A0021384807F0D9FC38492E
:100C60000028086000D1641C364A0021364807F08D
:100C7000CFFC36490028086000D1641C344A0021AA
:100C8000344807F0C5FC34490028086000D1641CD2
:100C900032480078012813D1314A0021314807F049
:100CA000B7FC31490028086000D1641C2F4A00219C
:100CB0002F4807F0ADFC2F490028086000D1641CC4
:100CC0002D480078012813D12C4A00212C4807F028
:100CD0009FFC2C490028086000D1641C2A4A00218E
:100CE0002A4807F095FC2A490028086000D1641CB6
:100CF000284A0021284807F08BFC28490028086072
:100D000001D1641CE4B2264A0021264807F080FC89
:100D100025490028086001D1641CE4B2002C01D0F0
:100D200022A000E02BA0FFF769FF10BD9CAE0008D9
:100D300061300008EC000020C0AE00085D0E000825
:100D4000F0000020E4AE00087D300008F400002030
:100D500008AF000801340008F8000020B6000020A9
:100D60002CB50008595200080401002074B5000891
:100D7000E95100080C010020B700002008B5000868
:100D80006D5300080001002050B50008BD52000856
:100D90000801002098B50008E13400081001002087
:100DA000BCB500080D76000814010020242423237C
:100DB0002323232323204372656174725461736B70
:100DC0002069732045727220232323232323230DBC
:100DD0000A0000002424404040404040402043722C
:100DE000656174725461736B206973204F4B2040AE
:100DF0004040404040400D0A0000000010B5134C38
:100E00000021C943E06907F05BFB0020104A01465E
:100E10004300401CC0B2D1521028F9D30D4A012022
:100E20004300401CC0B2D1520528F9D90A4A01201A
:100E30004300401CC0B2D1520328F9D9E06907F041
:100E4000B9FB022007F02CFA10BD0000B80000200A
:100E50002C1E0020900200200000002008B53EA0BB
:100E600000680090642007F01BFA3C4C3C4F3D4E5C
:100E7000012568464078002826D004213A4800F031
:100E80008FF9012802D000206946487068468078B2
:100E9000002831D00221344800F082F9012802D024
:100EA0000020694688706846C07800283CD001213F
:100EB0002D4800F075F9012802D000206946C8705D
:100EC000012007F0EDF9D4E70421274800F068F984
:100ED0000128DBD160880021401C60806846457095
:100EE0003D70C943306807F0EBFA204861884181C2
:100EF000306807F05FFBC9E702211B4800F050F99A
:100F00000128D0D1A0880021401CA08068468570AF
:100F10003D70C943306807F0D3FA1448A188818135
:100F2000306807F047FBBEE701210F4800F038F9B1
:100F30000128C5D1E0880021401CE0806846C570CA
:100F40003D70C943306807F0BBFA0848E188C181A9
:100F5000306807F02FFBB3E700010101000000201B
:100F60000A000020D4000020000400482C1E0020AD
:100F700072B6FEE730B5014620314B780022022BD5
:100F800004D0042383630A70012030BD03681C6809
:100F90000E25AC431C6003681C68640864001C6078
:100FA0000123056C1C46C06BAC4044604B700A705A
:100FB000002030BD70B50024014620314A78022A55
:100FC00003D004218163012416E0026813680E2512
:100FD000AB431360026813685B085B001360012277
:100FE000056C1346AB40C56B6B604A7000220A70FB
:100FF000416B002900D08847204670BDF8B500231A
:1010000003240125BAE02E469E40B44632407CD0EF
:101010000E79B607B60F012E01D0022E17D18668C1
:101020002746B6465E00B74000967646BE43B646B3
:10103000CF68009EB740764637438760466867466C
:10104000BE430F79FF06FF0F9F40374347600E797D
:10105000F643B6070ED0C6682746B4465E00B646CD
:10106000B7406646BE43B4468F687646B74066468C
:101070003743C7600E79B607B60F022E14D1DE08CB
:10108000B60036180096366A5F07B446FE0E0F2784
:10109000B646B7406646BE43B4460F697646B7408B
:1010A00066463743009E376206682746B4465E00B0
:1010B000B646B7406646BE430F79B446BF07BF0F7A
:1010C0007646B7406646374307604E68B603B60FAC
:1010D00053D02D4FBE692E43BE61BE699F08F607EF
:1010E000F60F2A4EBF00BE190096B6680F27B44609
:1010F0009E07360FB646B7406646BE430927FF0631
:10110000B446B84202D1002710E036E0204FB84282
:1011100001D101270AE01F4FB84201D1022705E0A3
:101120001D4FB84201D1032700E005277646B7409E
:1011300066463743009EB760184EB6684F689643C0
:10114000FF0200D51643154FBE60FE684F689643F8
:10115000BF0200D51643114FFE607E684F6896436C
:10116000BF0300D516430D4F7E603E684F6896431F
:10117000FF0300D51643094A16605B1C0A68164631
:10118000DE4000D03FE7F8BD001002400000014003
:101190000004004800080048000C0048000401401A
:1011A0000069084000D001207047002A01D0816109
:1011B00070478162704700000148806870470000F6
:1011C0006C0200200148006B7047000080F7FF1F91
:1011D0000148406B7047000080F7FF1F70B5024662
:1011E00040325378202B1CD11378012B19D00123C6
:1011F000137024245470046825689D432560046896
:1012000025681E03B5432560046825680D432560E5
:1012100000680168194301602020507000201070A0
:1012200070BD022070BD70B5024640325378202B4D
:101230001BD11378012B18D0012414702423537070
:1012400003681D68A5431D6005682B680F263602DC
:10125000B343090219432960006801682143016012
:10126000202050700020107070BD022070BD000062
:1012700070B5040006D02546403568780026002861
:1012800002D005E0012070BD2E70204600F02AFA41
:1012900024206870206801684908490001600F2116
:1012A0006068090688432168086121688A6801200E
:1012B000C00382438A60E1680129A16808D0212225
:1012C0009202114322689160E168022902D005E090
:1012D0000143F7E701212268C902516021684A6889
:1012E0000F4B1A434A602168CA688243CA60616929
:1012F00020690843A169090208432168C860216A7E
:10130000E0690843216808602068016801221143F0
:1013100001606664202068702663AE70002070BD96
:1013200000800002FFB50446002083B0254640350A
:1013300001906A78202A7FD122689269D2431204F0
:101340007AD52A78012A77D001222A7024226A705D
:1013500060648F05BF0DE06801280AD0374801217D
:1013600038188902884321684860FFF725FF064640
:101370000CE03348F3E70698401C07D0FFF71CFF4A
:10138000811B0698814219D8002817D021688869E6
:1013900089698006C00FC906C90F0843EBD02068D1
:1013A0008069069BC043C006009617D50022202105
:1013B000204601F0F9FB002830D107E020206870BA
:1013C000616C014361640020287027E021682020BF
:1013D000C86168700020287007B0F0BD002220218D
:1013E000204601F0E1FB002818D121681020C861D7
:1013F00021682020C86101990598814214D1206894
:10140000416801229203114341600096002220218D
:101410002046069B01F0C8FB002802D00120DBE734
:101420000AE021682020C8610198401C0146019013
:10143000059881428FD3C1E70220CDE70028000242
:1014400000200002FFB5054604464035687883B0A9
:10145000202875D10C98002814D00D98002811D0A0
:10146000287801286CD001202870FFF7A5FE0746D8
:10147000012200901923D103204601F095FB00289A
:1014800074D103E00120400260646FE022206870A4
:101490004020A870002666640C9860620D986085F4
:1014A00066630E980090019704A90EC9204601F0CA
:1014B00005FB002801D02E7058E0618D3448FF29CB
:1014C00005D9FF22228501231B06009006E0618DCD
:1014D00021850090208D0123C2B25B06204604992D
:1014E00001F04CFB00970022042120460E9B01F0E6
:1014F0005BFB00283AD12068406A616A0870606A24
:10150000401C6062208D401E81B22185608D401E8E
:101510006085608D00281FD000291DD10097002212
:10152000802120460E9B01F03FFB00281ED1608DDC
:10153000FF2806D9FF22228501231B06009607E01B
:1015400024E0608D20850096208D0123C2B25B06C9
:101550002046049901F012FB608D0028C2D13A4662
:1015600020460E9901F051FB002802D0012007B05F
:10157000F0BD20682021C16120684268054B1A40F7
:1015800042606970AE702E700020F0E70220EEE736
:101590000024008000E800FEFFB505460446403503
:1015A000687883B0202872D10C98002814D00D9848
:1015B000002811D02878012869D001202870FFF771
:1015C000FBFD0746012200901923D103204601F0BC
:1015D000EBFA002871D103E00120400260646CE066
:1015E000212068704020A870002666640C98606214
:1015F0000D98608566630E980090019704A90EC946
:10160000204601F08BFA002801D02E7055E0608D45
:10161000FF2805D9FF22228501231B06009606E03C
:10162000608D20850096208D0123C2B25B06204686
:10163000049901F0A3FA3A4620460E9901F010FBF6
:1016400000283AD1606A216800788862606A401C8C
:101650006062608D401E6085208D401E80B22085B6
:10166000618D00291FD000281DD100970022802104
:1016700020460E9B01F098FA00281ED1608DFF28AD
:1016800006D9FF22228501231B06009607E024E0ED
:10169000608D20850096208D0123C2B25B06204616
:1016A000049901F06BFA608D0028C4D13A462046B7
:1016B0000E9901F0AAFA002802D0012007B0F0BD6F
:1016C00020682021C16120684268054B1A404260B1
:1016D0006970AE702E700020F0E70220EEE7000087
:1016E00000E800FE10B586B0044614216846FEF7F7
:1016F000A9FD1249206888421DD1114C6169012061
:10170000800401436161616901400591C02000903E
:101710001220012101900320029104910390694657
:101720000848FFF76BFCE169012040050143E161D6
:10173000E1690140059106B010BD00000054004071
:1017400000100240000400480248816802788918AD
:10175000816070476C02002010B5064801681022B5
:1017600011430160032000F007F800F027F8002083
:1017700010BD00000020024070B504460D4D7D20D4
:101780002978C000FEF7EEFC01460B480068FEF722
:10179000E9FC00F0F5FC002809D1042C07D2002256
:1017A0002146401E00F02EF800206C6070BD012024
:1017B00070BD00006C0200207802002008B50A48C5
:1017C0008169012211438161816911400091C269DF
:1017D00001040A43C261C06900220840032100904D
:1017E000481F00F00FF808BD00100240002805DB7C
:1017F000C106C90E012088400149086070470000F9
:1018000000E100E010B503F0BBFE10BDBFF34F8F49
:1018100004490348C860BFF34F8F00BFFDE70000D5
:101820000400FA0500ED00E0F8B505460068354C07
:10183000C00352D5E0690026C00007D4E169200446
:101840000143E161E1690140012600912E480168F0
:10185000C90510D40168821511430160FFF7ACFC83
:10186000074604E0FFF7A8FCC01B642824D82648DC
:101870000068C005F6D5206A03273F02384020D013
:101880006968394081421CD0206A226AB84301212C
:1018900009040A432262226A8A4322622062C00744
:1018A0000FD0FFF789FC009008E0FFF785FC009956
:1018B000411A1648814201D90320F8BD206A8007E9
:1018C000F3D5206A6968B84308432062002E04D02B
:1018D000E169012000078143E1612878C00705D054
:1018E000206BA96880088000084320632878800660
:1018F00005D5206B10218843E96808432063002048
:10190000F8BD000000100240007000408813000085
:10191000F8B50F46060059D03A4D2868C007C00FE9
:10192000B84209D228684008400038432860286837
:10193000C007C00FB84249D13068334C81070CD57D
:10194000400704D5606807210902084360606068A9
:10195000F0218843B168084360603078C00726D022
:10196000706801280ED0216802280ED0890700294E
:101970002CDA61688908890001436160FFF71CFC6B
:1019800000900DE021688903F1E78901EFE7FFF797
:1019900013FC0099411A1D48814201D90320F8BD6A
:1019A00060680C210840716889008842EFD128687E
:1019B000C007C00FB8420BD9286840084000384320
:1019C00028602868C007C00FB84201D00120F8BDC8
:1019D0003078400706D56068072109028843F1681E
:1019E0000843606000F028F86168094A0906090F99
:1019F000515CC840074908600320FFF7BDFE002086
:101A0000F8BD0000002002400010024088130000D2
:101A100028B6000878020020044805490068496893
:101A2000044A4905490F515CC840704778020020BC
:101A30000010024038B6000810B50F494B680C2062
:101A40001A4602400D48042A14D0082A12D19A02DC
:101A50000B4C120FA45CC96A094A0907090F10321E
:101A6000525CD903890F00231946FEF791FB2146EA
:101A700003F061FD10BD00000010024000127A006A
:101A800008B60008FEB5040071D02078DC4DC00710
:101A900049D068680007800F012820D068680007D7
:101AA000800F022804D16868C003800F022816D076
:101AB000012062680004012A18D08100002A01D0A8
:101AC000052A17D02A6882432A602868884328603C
:101AD000606800281BD0FFF76FFB064613E02868FC
:101AE000800320D560680028CED01CE0296801431F
:101AF0002960EDE72A680A432A60F7E7FFF75CFBF5
:101B0000801B642870D828688003F7D50BE0FFF7A6
:101B100053FB064604E0FFF74FFB801B6428F1D817
:101B200028688003F7D420780126800700283EDA51
:101B300068680007800F13D068680007800F0228CC
:101B400004D16868C003800F012809D0E06800282C
:101B500028681DD030432860FFF72EFB07460CE0B5
:101B6000286880070CD5E068012800D108E043E12F
:101B7000FFF722FBC01B0228C4D828688007F7D5CE
:101B80002868F82188432169C900084328600EE0CD
:101B9000400840002860FFF70FFB074604E0FFF70E
:101BA0000BFBC01B0228ADD828688007F7D420782B
:101BB000000722D5E0690028686A0ED030436862C9
:101BC000FFF7FAFA074604E0FFF7F6FAC01B02280F
:101BD00098D8686A8007F7D50FE04008400068622F
:101BE000FFF7EAFA074605E09DE0FFF7E5FAC01BBC
:101BF000022887D8686A8007F7D42078042740072E
:101C0000002860DA00200190E869C00008D4E96982
:101C1000B8060143E961E9690140012000910190A2
:101C200078480168C90511D4016882151143016023
:101C3000FFF7C2FA009005E0FFF7BEFA0099401ADC
:101C4000642870D86F480068C005F5D5A0680128E1
:101C50000AD0002801D0052810D0286A400840008A
:101C60002862286AB84301E0286A30432862A068E5
:101C7000002812D0FFF7A0FA00900AE0286A384343
:101C80002862F1E7FFF798FA0099411A5E4881420D
:101C900049D8286A8007F5D50DE0FFF78DFA009046
:101CA00006E0FFF789FA0099411A574881423AD86D
:101CB000286A8007F5D40198002804D0E86901213A
:101CC00009078843E8612078C00635D56069012896
:101CD0000CD0401D686B23D038436863686B4008A4
:101CE00040006863FFF768FA064622E0686B3843F5
:101CF0006863686B30436863FFF75EFA064604E08A
:101D0000FFF75AFA801B02285BD8686B8007F7D56B
:101D1000686BF8218843A169C900084368630BE038
:101D2000B8436863F4E74CE0FFF746FA801B0228EB
:101D300047D8686B8007F7D4206A00285ED06968AE
:101D40000907890F022942D0012636060228286891
:101D500005D0B0432860FFF72FFA044633E0B043C4
:101D60002860FFF729FA074604E0FFF725FAC01BB1
:101D7000022826D828688001F7D4E86AE16A0009B9
:101D800000010843E862616AA06A084369687B222F
:101D9000D203914308436860286830432860FFF706
:101DA0000BFA044604E0FFF707FA001B022808D8E4
:101DB00028688001F7D521E0FFF7FEF9001B022813
:101DC00001D90320FEBD28688001F5D416E0012862
:101DD000F8D06868E96A0322D203636A02409A4233
:101DE0000AD10907E26A090F914205D10F2189043E
:101DF0000840A16A884201D00120FEBD0020FEBD3E
:101E0000001002400070004088130000F8B5040084
:101E10000CD0606A002500280AD02561656126463D
:101E20004036A562707F002808D00BE00120F8BD85
:101E30006168C81FFD38F2D0E561F0E735772046CC
:101E400000F05CF802227277206801684023994311
:101E500001600723E1681B02994201D9002001E0DB
:101E6000012000030F273F02B94202D0994200D05F
:101E7000A562FF236168053319402127A368BF02CB
:101E80003B40194323691340227D1943D207D20FE7
:101E900011430123A2695B021A401143E26938230E
:101EA0001A401143226A80231A401143A26A9B01FF
:101EB0001A40114322681160A1690422090C1140E3
:101EC000626A10231A401143626B08231A401143BF
:101ED0000F23E2681B021A40114301221203104033
:101EE0000143206841602068C16952109143C1617B
:101EF0002566012070770020F8BD0000F0B587B09E
:101F0000044614216846FEF79DF91B4F01222668FE
:101F100000231A499204022503241948BE420ED117
:101F20008F698E1437438F618F69374005974E69EB
:101F300016434E61496911400591382111E0114F56
:101F4000BE4216D1CF6936143743CF61CF693740CF
:101F500005974E6916434E61496911400591072165
:101F60004903009102930195039404936946FFF796
:101F700045F807B0F0BD00000030014000100240FD
:101F80000004004800380040FFB5044683B001203B
:101F9000254640350090287F00271E4601280FD097
:101FA00001202877FFF708F90190687F6168012810
:101FB0000DD0CA1FFD3A08D1A168002905D102E061
:101FC000022007B0F0BD042801D00227D4E0049815
:101FD00000286FD005980028FBD0002EF9D0687F2C
:101FE000042801D005206877002020660599216427
:101FF000EE80AE800499A163E687A687E064206541
:1020000007210120E268090200038A42226853681E
:1020100001D9834300E003435360206802685206FD
:1020200003D4026840231A430260E0688842606873
:1020300048D9002801D0012E3DD1A06B018820682D
:10204000C160A06B801CA063E08F401EE08732E07F
:1020500020688168890710D5E18F00290DD000998B
:1020600001290AD1A16B0988C160A06B801CA06303
:10207000E08F401EE0870020009020688168C9073B
:102080000DD0E98800290AD0C068216C0880206C36
:10209000801C2064E888401EE88001200090FFF743
:1020A0008BF80199401A0C99884204D3481C02D03D
:1020B00003275FE05CE0E08F0028C9D1E8880028B2
:1020C000C6D148E0002801D0012E3ED1A06B216886
:1020D00000780873A06B401CA063E08F401EE0876F
:1020E00033E020688168890710D5E18F00290DD081
:1020F000009901290AD1A16B09780173A06B401CDA
:10210000A063E08F401EE087002000902068816877
:10211000C9070DD0E98800290AD0007B216C08701E
:10212000206C401C2064E888401EE880012000905C
:10213000FFF742F801460198091A0C98814202D330
:10214000401C02D0B4E70028B2D0E08F0028C8D1EC
:10215000E8880028C5D12046019A0C9902F0B2F80F
:10216000002802D0012720202066206E002801D000
:10217000012701E00120687700202877384620E712
:10218000094910B5401E884201D9012010BD074CF5
:1021900060610321081F03F0F3F90020A06107200C
:1021A0002061002010BD0000FFFFFF0000E000E004
:1021B0007047704770B5040005D025462035687F0C
:1021C000002802D006E0012070BD002028772046BC
:1021D00000F014F802206877211D206802F06EFAE2
:1021E00001204034A071A877E87720706070A0705B
:1021F000E070207160716877002070BD08B50068DC
:10220000094988420FD10948C26910210A43C261B5
:10221000C06900220840009003211120FFF7F2FA64
:102220001120FFF7E3FA08BD001000400010024043
:10223000704770B50446006801690025C9438907E5
:10224000002915DBC168C943890711D4E91E016162
:1022500001202077206880698007204602D0FFF7A0
:10226000E7FF04E000F096F8204600F094F82577A8
:1022700020680169C943490717D4C168C9434907A0
:1022800013D40421C94301610220207720688069AA
:102290008005800F204602D0FFF7CAFF04E000F05F
:1022A00079F8204600F077F8257720680169C9435E
:1022B000090716D4C168C943090712D40821C943C4
:1022C0000161042020772068C0698007204602D081
:1022D000FFF7AEFF04E000F05DF8204600F05BF889
:1022E000257720680169C943C90617D4C168C94365
:1022F000C90613D41021C943016108202077206842
:10230000C0698005800F204602D0FFF791FF04E0EE
:1023100000F040F8204600F03EF82577206801697B
:10232000C943C90708D1C168C943C90704D1891E77
:102330000161204600F030F820680169C9430906B0
:1023400009D4C168C943090605D48021C943016184
:102350002046FFF72DFF20680169C943490609D4CB
:10236000C168C943490605D44021C94301612046DB
:1023700000F02CF820680169C943890609D4C168B6
:10238000C943890605D42021C94301612046FFF7CE
:1023900010FF70BD7047704700680A4988420FD12E
:1023A00009487D224168D200491C4160914207D30F
:1023B000002141608168491C81608178491C8170DD
:1023C00070470000001000402C010020704770474B
:1023D0000068074988420AD106490868C269D243A1
:1023E000120704D4082202620868C169808C704711
:1023F000004C0040A4070020F8B502680446D069EC
:10240000116893689E4D06462E4025468035002E65
:1024100071D09C4FDE07F60F0F4037437ED0C707C1
:1024200006D0CF0504D5012717626A683A436A606F
:10243000820708D5DA0706D0276802223A626A685E
:1024400004273A436A60420708D5DA0706D02368B2
:1024500004221A626A6802231A436A60020709D5D5
:1024600020220A40324305D0236808221A626B6892
:1024700013436B60020509D54A0107D50122236881
:10248000D2021A626B68202213436B606A68002ACA
:1024900039D0800606D5880604D5A16E002901D062
:1024A00020468847686821688968490602D428213F
:1024B00008422DD0204602F07BFB21688868400648
:1024C00022D5EFF31080012282F310888A6840231E
:1024D0009A438A6080F31088606F002814D06A499C
:1024E0004163606FFEF766FD00280CD0606F416BA2
:1024F00008E000E012E0830610D58B060ED5A16E31
:10250000A3E020468847F8BD2046FFF761FFF8BDED
:102510002046FFF75DFF00206860F8BD236E012BA9
:102520007ED1C3067CD5CB067AD5102313622268F0
:102530009068264640064036002848DA616F0868F1
:1025400040680004000CE8D0378B8742E5D97083DF
:102550008869202834D0EFF31080012181F310889E
:1025600011681F01B943116080F31088EFF31080E8
:10257000012181F3108821688A68520852008A601C
:1025800080F31088EFF31080012181F31088216817
:102590008A684027BA438A6080F310882020286028
:1025A00000202066EFF31080012181F3108821685C
:1025B0000A689A430A6080F31088606FFEF7DAFCBD
:1025C00002206066308B718B401A81B234E0308B10
:1025D000718B401A81B2708B00289ED000299CD04C
:1025E000EFF31080012686F310881668FF27213745
:1025F000BE43166080F31088EFF31080012282F34F
:1026000010882268966876087600966080F31088B5
:102610002020286000202066A066EFF3108000E0F4
:102620000EE0012282F31088226815689D43156030
:1026300080F31088022060662046FFF7C8FEF8BDD0
:10264000030606D50B0604D5E16E002900D058E735
:10265000F8BD4006FCD54806FAD52046EFF31081B8
:10266000012383F31088146840239C43146081F392
:1026700010882021C1670021C16600F083F9F8BDF0
:102680000F080000200100049D4B000810B5040055
:1026900003D0E06F002802D007E0012010BD002128
:1026A00078200155204600F027F82420E0672068B4
:1026B0000168490849000160204602F0A9FA012892
:1026C000ECD0606A002802D0204602F09FF9206812
:1026D00041680122D202914341602068816808224A
:1026E0009143816020680168012211430160204606
:1026F00002F0F2F910BD0000F0B587B004461421D5
:102700006846FDF79FFD294F266801230920002414
:1027100027495B0402250322C006BE4218D18F69F7
:10272000DE1037438F618F69374005974E691E432E
:102730004E614969019519400591510200910121AD
:102740000491029403926946FEF758FC07B0F0BD6D
:10275000184FBE42FAD1CF690126F6043743CF6144
:10276000CF69374005974E691E434E614969009213
:102770001940059104210491019502940392694640
:10278000FEF73CFC002203211D20FFF73BF81D2033
:10279000FFF72CF8084801680A6820231A430A60EA
:1027A00000680168102211430160CFE70038014042
:1027B00000100240004C0040A4070020FFB507466F
:1027C00004468037386885B00E46202802D00220A3
:1027D00009B0F0BD002E0CD00798002809D00120C8
:1027E000A1680003814206D12069002803D1F007C7
:1027F00001D00120ECE700207860222139602066BA
:10280000FEF7DAFC049025464035079828830798A0
:1028100068830121A0680903884206D12269002A41
:1028200001D1274A0CE0FF220AE07F22002812D0C3
:1028300001231B07984212D12369002B00D03F22AD
:10284000AA8392B20292884202D12069002808D05D
:102850000196002607E02369002BE4D0F0E7002270
:10286000EEE700200190D0B20390688B002822D0C0
:1028700008980090002220212046049B02F074FA60
:10288000002803D0202038600320A1E70198002809
:102890002068808C0AD0039908400199087001983B
:1028A000401C0190688B401E6883DEE70299084057
:1028B0003080B61CF6E720203860002088E7000052
:1028C000FF010000FFB50446C06F83B017460D46F8
:1028D000202802D0022007B0F0BD002D0BD0002F21
:1028E00009D00120A1680003814206D12069002897
:1028F00003D1E80701D00120EDE700218420015138
:102900002120E067FEF758FC2646403601903782CA
:1029100077820120A1680003814202D1206900284A
:1029200002D02F46002511E000270FE00022802171
:10293000204602F019FA002815D1002F17D021687F
:10294000387808857F1C708A401E7082708A019BCF
:10295000002806980090E9D100224021204602F08C
:1029600003FA00280AD02020E0670320B3E7288874
:102970002168C005C00D0885AD1CE4E72020E06794
:102980000020A8E77047FEE701688A69D2439207F2
:1029900001D400228A6200688169C943C90703D053
:1029A000816901221143816170470000F7B5044637
:1029B000006882B0816900262746C906403735463F
:1029C0000092002945DA1021C16132E00398401CD1
:1029D0002FD0FEF7F1FB0099411A0398814201D8EC
:1029E000002826D120684168012292031140BA785C
:1029F0008369DB431B0417D401239B03994213D043
:102A0000202A11D0416819434160FEF7D5FB0090A0
:102A10000AE0FEF7D1FB01460098081A192803D9ED
:102A200020200543012604E020688069C043800619
:102A3000EFD420688069C043800602D5002EC5D03F
:102A400004E0002E02D121682020C8610420054343
:102A5000012621688869C20504D5012215431202A6
:102A6000CA610126410508D508210D43CA01216824
:102A7000CA610126800502D40AE0800506D502203D
:102A8000054321680002C861012601E0002E0FD035
:102A90002046FFF779FF20684168074A11404160EE
:102AA000606C28436064202078700020B870387013
:102AB000304605B0F0BD000000E800FEF8B5044661
:102AC000164615481D46DAB20090079F002320469F
:102AD00000F054F83A462046069900F0C1F8002864
:102AE00018D12846F5B2012809D02168300A886239
:102AF0003A462046069900F0B3F800280AD120682B
:102B000085620097002240212046069B00F04CF889
:102B1000002800D00120F8BD00200080F8B5044650
:102B2000164615481D46DAB2C3020090079F20469C
:102B300000F024F83A462046069900F091F8002863
:102B400018D12846F5B2012809D02168300A8862D8
:102B50003A462046069900F083F800280AD12068FA
:102B600085620097002280212046069B00F01CF819
:102B7000002800D00120F8BD00200080890510B594
:102B8000890D12041143029C194302682143490034
:102B900050684908630D034C234398430843506031
:102BA00010BD0000FF63FF03F8B51E4617460D4633
:102BB00004461EE0701C1CD0FEF7FEFA0699401A6F
:102BC000B04201D8002E14D120688169284688437C
:102BD0000DD00020B8420CD1616C2020014361640B
:102BE000403460700020A07020700120F8BD0120EA
:102BF000F0E7206881692846884304D00020B84265
:102C0000D8D00020F8BD0120F9E770B516460D4672
:102C100004461EE0324629462046FFF7C7FE00283C
:102C200001D0012070BDFEF7C7FA801BA84201D871
:102C3000002D0ED120688069C043800609D5616CE3
:102C4000202001436164403460700020A070207037
:102C5000E7E720688069C0438006DBD4002070BDB0
:102C600070B516460D46044620E0324629462046F9
:102C7000FFF79CFE002801D0012070BD681C15D014
:102C8000FEF79AFA801BA84201D8002D0ED12068C9
:102C90008069C043800709D5616C202001436164CD
:102CA000403460700020A0702070E5E720688069E3
:102CB000C0438007D9D4002070BD00000A4610B57B
:102CC0007D230146DB000248FEF72CFB10BD00000F
:102CD000B805002010B50446002006F06DFF200264
:102CE000000E01F025FB2004000E01F021FBF8206E
:102CF000204001F01DFB002000F006F804460120F2
:102D000006F05AFF204610BD10B501F011FB10BDB2
:102D100070B504460D46002006F04EFF2002000E5E
:102D200001F006FB2004000E01F002FBF820044035
:102D3000241DE0B201F0FCFA284601F0F9FA012066
:102D400006F03AFF70BD0000F8B5244E09207178F6
:102D500000270125C006B41F002908D00821FEF76E
:102D60001FFA00280DD06078002808D123E0082140
:102D7000FEF716FA0028607804D0002819D0401E0B
:102D80006070F8BD401CC0B260700528F9D3144FC4
:102D900032207D80607013487570134C05700021DF
:102DA000C943206805F08CFB1048798801802068B1
:102DB00010E07770F8BD0A4C0A486780777005709C
:102DC000094D0021C943286805F07AFB074861884E
:102DD0000180286805F0EEFBF8BD0000E600002049
:102DE000840200200A000020D40000202C1E0020B5
:102DF000F8B5214E0920B1780027204DC006B41F38
:102E0000002908D01021FEF7CBF900280DD0A078BA
:102E1000002808D11FE01021FEF7C2F90028A07891
:102E200004D0002815D0401EA070F8BD401CC0B2D0
:102E3000A0700528F9D3124F0120B8803221A1706B
:102E40001049B0700870811E286805F039FBB988F8
:102E50000CE0B770F8BD0A4C0A49A780B770012092
:102E60000870811E286805F02BFBA1880648418068
:102E7000286805F09FFBF8BDE6000020D400002084
:102E8000840200200A0000202C1E0020F8B5214EEC
:102E90000920F1780027204DC006B41F002908D072
:102EA0002021FEF77DF900280DD0E078002808D118
:102EB0001FE02021FEF774F90028E07804D00028F4
:102EC00015D0401EE070F8BD401CC0B2E07005286F
:102ED000F9D3124F0120F8803221E1701049F070CF
:102EE0000870811E286805F0EBFAF9880CE0F7708D
:102EF000F8BD0A4C0A49E780F77001200870811E6E
:102F0000286805F0DDFAE18806488180286805F028
:102F100051FBF8BDE6000020D40000208402002010
:102F20000A0000202C1E0020F8B5214E092031791E
:102F30000027204DC006B41F002908D04021FEF70D
:102F40002FF900280DD02079002808D11FE040215A
:102F5000FEF726F90028207904D0002815D0401E5D
:102F60002071F8BD401CC0B220710528F9D3124F62
:102F70000120388132212171104930710870811E81
:102F8000286805F09DFA39890CE03771F8BD0A4CC4
:102F90000A492781377101200870811E286805F0D1
:102FA0008FFA21890648C180286805F003FBF8BD27
:102FB000E6000020D4000020840200200A00002047
:102FC0002C1E0020F8B5214E092071790027204DD4
:102FD000C006B41F002908D08021FEF7E1F80028C0
:102FE0000DD06079002808D11FE08021FEF7D8F8C5
:102FF0000028607904D0002815D0401E6071F8BD0B
:10300000401CC0B260710528F9D3124F01207881AD
:1030100032216171104970710870811E286805F0B5
:103020004FFA79890CE07771F8BD0A4C0A4967813B
:10303000777101200870811E286805F041FA6189C6
:1030400006480181286805F0B5FAF8BDE6000020C1
:10305000D4000020840200200A0000202C1E002042
:10306000FFF772FEFFF7C4FEFFF710FFFFF75CFFEC
:10307000FFF7A8FF012005F013F9F1E71CB50027C1
:10308000154E0097019701246500705B01281BD144
:103090006846015D491CC9B20155642914D307551E
:1030A0000E480E49405B401C48530D480021C9435F
:1030B000006805F005FA09480A49405B6918C881AB
:1030C0000748006805F076FA641CE4B2052CDBD9E9
:1030D0000A2005F0E5F8D6E78402002090020020DF
:1030E000D40000202C1E002010B5184805F01CFA52
:1030F000174CA0611548103005F016FAE06113482E
:10310000203005F011FA20621048303005F00CFA3A
:103110000E4A6062483A0221082005F051F90B4A34
:10312000E060303A0221102005F04AF9074A206198
:10313000183A0221102005F043F9044A60616C3A04
:103140000021044805F064FAA06010BD5CAE0008E0
:10315000B8000020E5440008F0B587B014216846A7
:10316000FDF770F83A4842690121C9040A434261F7
:1031700042690A4005924269C9000A4342614269B4
:103180000A400592426949110A43426142690A4074
:103190000592426949000A43426140690926084094
:1031A000F606059001222B493046FDF7FEFF2A4F17
:1031B0000521012289023846FDF7F7FFFF21002291
:1031C00001313046FDF7F1FF01204003002400905B
:1031D0000194694602942148FDF710FF204801251B
:1031E000009002946946019503943046FDF706FF6E
:1031F0001C4800900194694602943046FDF7FEFE9B
:1032000018480194F1380090694602943846FDF759
:10321000F5FEA80200900195694602950394384690
:10322000FDF7ECFE28030090029469460195039493
:103230003846FDF7E3FEE803009003200390019574
:10324000029469463046FDF7D9FE07B0F0BD000094
:1032500000100240049000000004004800080048EC
:1032600004110000F808000010B51448124901606C
:1032700013494160642181600121C1600021016125
:1032800041618161C1610162FDF7F2FF002801D057
:10329000FDF76EFE012109030848FDF79FFF002896
:1032A00001D0FDF765FE00210448FDF7BCFF0028B2
:1032B00001D0FDF75DFE10BD00540040B8050020B0
:1032C0002D1D100010B511480F490160FF21053177
:1032D000416007221202C260002181600222026165
:1032E0000122426152028261016208224162C2618E
:1032F000816207220163C2624163FEF787FD0028F5
:1033000001D0FDF735FE10BD003001400C06002055
:1033100010B511480F490160FF21053141600722B6
:103320001202C26000218160022202610122426118
:1033300052028261016208224162C26181620722F7
:103340000163C2624163FEF761FD002801D0FDF711
:103350000FFE10BD003800407006002010B50A486E
:10336000084901602F214160002181607D21C90051
:10337000C16080218161FEF71DFF002801D0FDF7AB
:10338000F7FD10BD00100040D406002010B50C4819
:103390000A490160E1214902416000218160C16068
:1033A00001618161C1610C22016242614162FFF7EA
:1033B0006DF9002801D0FDF7DBFD10BD003801409C
:1033C0001C07002010B50C480A490160E1214902A0
:1033D000416000218160C16001618161C1610C2295
:1033E000016242614162FFF751F9002801D0FDF707
:1033F000BFFD10BD004C0040A4070020FEE7000008
:1034000008B529480078002802D10A2004F048FFB6
:10341000C82004F045FF254D254E26480023DB43F8
:1034200000226946006804F08DFF0028F5D1684647
:1034300000880828F1D280003058017842780902CB
:1034400051188CB2817829706E2C02D00021E21CB8
:103450008154684600882A78C1B2204604F032FAC6
:103460000746014614A0FDF7C9FB002FD5D1601E09
:103470006A28D2D828780028CFD00228CDD869462B
:1034800009880020144A890005E07758C31CFB5CBA
:103490001354401C80B2A042F7D31048048001208E
:1034A00006F01AFCB9E7000009000020080000201F
:1034B0009C020020C40000202424686176654265D7
:1034C000656E50726F636573736564466C61673DCA
:1034D00025640D0A000000005C1E0020520100203F
:1034E000FF20F53004F0DCFE01251E4EED022946DA
:1034F0003046FDF755FE01282FD104F0D1FE2946B4
:103500003046FDF74DFE012827D1174C20780128C1
:1035100003D100F02DF8002020700924E7060022D6
:1035200004213846FDF741FE052004F0B9FE0122D2
:1035300004213846FDF739FE282004F0B1FE20466C
:10354000641EE4B20028EAD106F0CAF9FEF75EF97B
:1035500006F0D2F9054804F0A3FE022004F0A0FE14
:10356000C5E70000000400480A000020B80B000076
:1035700070B500261F4CF6433146206804F0A0FFCA
:103580001D4B1E48002251084900C91849880D0AE0
:103590008554521CD2B255086D00E91889788154BF
:1035A000521CD2B2062AEED3154A00214B085B000A
:1035B0009B185B8845181B0A491CAB71C9B24B08A4
:1035C0005B0045189B18491C9B78C9B2AB710A294E
:1035D000ECD3206804F0EEFF0A4C3146206804F07A
:1035E0006FFF10220021054801F04EFD206804F015
:1035F000E1FF70BDD400002000000020380800204A
:1036000090020020DC000020F0B5002087B0411EB1
:103610000090EE48406A04F053FF03210122C903E1
:1036200001A801F016FCE948406A04F0C3FF6846AF
:1036300000790024A128E6A07ED0FDF7DFFAF2A0F1
:10364000FDF7DCFAFE48C0270770A821417084709E
:103650005821C170FB48FF25057045708570C47006
:10366000F948A8210770417084700126C670F74898
:10367000F7A10670F948FCF70BFEF9A1FB48FCF72F
:1036800007FEFB48FA490770A82048700846867074
:10369000C670F848F849057045708570C470F648E2
:1036A0000770A820487008468670C670F3A1F648D7
:1036B000FCF7EEFDF5A1F848FCF7EAFDF748F749FD
:1036C0000770A82048702B2088700220C870F4482A
:1036D000F449057045708570C470F2480770A820E1
:1036E00048702B2088700846C670EFA1F048FCF7A0
:1036F000CFFDF048B54D0670661E3146686A04F08D
:10370000DFFE0120000301F07FFB04229102CC4880
:1037100001F0BAFC0120400301F076FB0422D10243
:10372000C84801F0B1FCB80101F06EFB0422B901F8
:10373000C54801F0A9FC00E0D8E00120800301F0B9
:1037400063FBC24801210278890301F09DFC05203A
:10375000400301F059FBC148FCF793FD401C82B2C5
:1037600005214903BD4801F08FFC0B20000301F047
:103770004BFBBE48FCF785FD401C82B20B210903C0
:10378000BA4801F081FC380201F03EFB0422390204
:10379000B74801F079FC0D20000301F035FB0D2145
:1037A00004220903B34801F06FFC0720400301F035
:1037B0002BFB072104224903AF4801F065FC0F20D1
:1037C000000301F021FBB048FCF75BFD401C82B216
:1037D0000F210903AC4801F057FC0120000401F05F
:1037E00013FBAD48FCF74DFD401C82B201210904DA
:1037F000A94801F049FC11273F03384601F004FBBA
:1038000004223946A54801F03FFC09277F033846CA
:1038100001F0FAFA04223946A14801F035FC1327D9
:103820003F03384601F0F0FA042239469D4801F082
:103830002BFC15273F03384601F0E6FA9C48FCF7BD
:1038400020FD401C82B23946994801F01DFC0B272F
:103850007F03384601F0D8FA9648394602787B480B
:1038600001F012FCA120694603270871FF033846C6
:1038700001F0CAFA0122394601A801F005FC2846E8
:10388000406A04F097FE2846611E406A04F018FE64
:1038900001F06EFB10220021874801F0DAFA284679
:1038A000406A04F087FE844900200A5CFF2A00D0A9
:1038B0006420401CC0B21028F7D363287ED37FA0B9
:1038C000FDF79CF97C49002010314200401CC0B239
:1038D0008C520828F9D33146686A04F0F1FD0020C3
:1038E00001F092FA686A04F065FE6CE2FDF786F971
:1038F00078A0FDF783F9354D0021C943686A04F0CB
:10390000DFFD01F035FB102200216B4801F0A1FA28
:10391000686A04F04FFE684D0021103566484B0878
:10392000425C491CCEB25B001202EA5277087F006B
:10393000E95B805D081880B27049E853884205D180
:1039400071086FA0FDF75AF9EC5301E001200090D7
:10395000761CF1B21029E1D3009801280AD11B4E40
:10396000811E706A04F0ACFD002001F04DFA706A0F
:1039700004F020FE6AA0FDF741F900267000295AE4
:103980006AA0FDF73BF9761CF6B2032EF6D31DA014
:10399000FDF734F967A0FDF731F903267000295AC5
:1039A00062A0FDF72BF9761CF6B2082EF6D315A00F
:1039B000FDF724F90021C943044E00E0F8E1F06965
:1039C00004F07EFD5F4B00204100BDE0B800002008
:1039D0000D0A24242D2D2D2D2D2D2D2D2D2D2D2D6C
:1039E0002D2D2D2D2D2D2D2D2D2D2D2D2D2D2D2D07
:1039F0002D2D2D2D2D2D2D2D2D2D2D2D2D2D2D2DF7
:103A00002D2D2D2D0D0A0000242423232346697219
:103A100073742057697273742044656661756C74A1
:103A200020506172616D6574657220466F72205717
:103A3000323551313238202323230D0A0000000093
:103A4000890000208D00002091000020B600002099
:103A50004D484155544F5F36000000000D000020D6
:103A60003132333435363738000000002100002071
:103A7000350000203D00002039000020484F4E4F07
:103A80005239393000000000410000203132333417
:103A90003030373839000000550000206900002020
:103AA000710000206D00002036383030000000002A
:103AB00075000020B7000020980500202424636CC6
:103AC00065617220486F6C64696E674275660D0AA5
:103AD00000000000242423232352656164205061E8
:103AE00072616D657465722046726F6D2057323554
:103AF00051313238202323230D0A0000FFFF00003C
:103B0000242420726561645F627566665531365B98
:103B100025645D20636C6561722030200D0A000011
:103B20002424204142433A0D0A0000003078253019
:103B300034582D0024242073772074696D65723AFF
:103B40000D0A0000000000206A5ACF187A80F04F5A
:103B5000401CC919C0B24A81032800D234E7ED4B9A
:103B600003204100CF186A5A403FBA87E84F401CF3
:103B7000C919C0B24A810828F3D3F06904F01AFDCC
:103B80000021C943706A04F09BFC0422910201A841
:103B900001F05FF9E049002001AD2A5C0A54401CA5
:103BA000C0B20428F9D30422D102284601F051F909
:103BB000DA4900202A5C0A54401CC0B20428F9D318
:103BC00003210422090301A801F043F9D44900208C
:103BD0002A5C0A54401CC0B20428F9D30122910384
:103BE00001A801F036F96846007900280DD0CD48CB
:103BF0000121017005210922490301A801F029F9D9
:103C00000020295CFF2903D003E0C6480470F1E7D7
:103C10002C54401CC0B20928F3D36846047301A990
:103C2000C148FCF735FB0B210922090301A801F06B
:103C300010F90020295CFF2900D12C54401CC0B28F
:103C40000928F7D36846047301A9B848FCF720FB9C
:103C500003210422890301A801F0FBF8B4490020E4
:103C60002A5C0A54401CC0B20428F9D30D21042256
:103C7000090301A801F0EDF8AE4900202A5C0A54BE
:103C8000401CC0B20428F9D307210422490301A82B
:103C900001F0DFF8A84900202A5C0A54401CC0B299
:103CA0000428F9D30F210D22090301A801F0D1F84E
:103CB0000020295CFF2900D12C54401CC0B20C28E4
:103CC000F7D36846047401A99C48FCF7E1FA012186
:103CD0000D22090401A801F0BCF80020295CFF298D
:103CE00000D12C54401CC0B20C28F7D36846047491
:103CF00001A99348FCF7CCFA11210422090301A879
:103D000001F0A7F88F4900202A5C0A54401CC0B279
:103D10000428F9D309210422490301A801F099F8E4
:103D2000894900202A5C0A54401CC0B20428F9D3F7
:103D300013210422090301A801F08BF88349002014
:103D40002A5C0A54401CC0B20428F9D3152106226B
:103D5000090301A801F07DF80020295CFF2900D1AA
:103D60002C54401CC0B20528F7D36846447201A900
:103D70007748FCF78DFA0B210122490301A801F0D5
:103D800068F86846007900280CD072490120087054
:103D9000706A04F00FFC63486E4A01781278114390
:103DA00003D032E06B480470F2E7012101702CE08F
:103DB000694900204200401CC0B28C520828F9D347
:103DC00066A0FCF71BFF3146E86904F079FB6B4EF7
:103DD00061494F4A00204300CC5A9F199B18401C50
:103DE0007C80C0B25C810328F5D34A4E0320430097
:103DF0009F19CC5A403F9B18401CBC87C0B25C81C5
:103E00000828F4D3E86904F0D5FB5DA0FCF7F6FEC2
:103E10004148C178009183784278017866A0FCF728
:103E2000EDFE3E48C178009183784278017868A021
:103E3000FCF7E4FE3A48C178009183784278017833
:103E400069A0FCF7DBFE3748007801285BD06CA046
:103E5000FCF7D4FE6FA0FCF7D1FE33497BA0FCF742
:103E6000CDFE32497DA0FCF7C9FE3148C1780091F2
:103E70008378427801787DA0FCF7C0FE2D48C17898
:103E800000918378427801787EA0FCF7B7FE2A483B
:103E9000C178009183784278017880A0FCF7AEFE6B
:103EA000264984A0FCF7AAFE254986A0FCF7A6FEB9
:103EB0002448C178009183784278017886A0FCF785
:103EC0009DFE2148C178009183784278017889A0CD
:103ED000FCF794FE1D48C178009183784278017800
:103EE0008BA0FCF78BFE1A4990A0FCF787FE1948BF
:103EF0000078012809D092A0FCF780FE95A0FCF77D
:103F00007DFE07B0F0BDA1A0A2E7A5A0F4E70000E8
:103F10002C1E002090020020890000208D0000202F
:103F200091000020B60000200D000020210000209C
:103F3000350000203D000020390000204100002015
:103F40005500002069000020710000206D00002055
:103F500075000020B7000020A80500202424486F29
:103F60006C64696E6742756620616C726561647924
:103F700020636C6561720D0A0000000000000020E3
:103F80000D0A24242D2D2D2D2D2D2D2D2D2D2D2DB6
:103F90002D2D2D2D2D2D2D2D2D2D2D573535303011
:103FA0002D2D2D2D2D2D2D2D2D2D2D2D2D2D2D2D41
:103FB0002D2D2D2D0D0A000057353530302049505C
:103FC0003D25642E25642E25642E25640D0A0000EF
:103FD000573535303020534E3D25642E25642E252F
:103FE000642E25640D0A00005735353030204757C0
:103FF0003D25642E25642E25642E25640D0A0000BF
:104000002323235735353030206973204E4F232327
:10401000230D0A000D0A24242D2D2D2D2D2D2D2D9F
:104020002D2D2D2D2D2D2D2D2D2D2D2D2D2D2D2DC0
:10403000574946492D2D2D2D2D2D2D2D2D2D2D2D35
:104040002D2D2D2D2D2D2D2D2D0D0A005749464995
:1040500020617069643D25730D0A00005749464987
:104060002061706B65793D25730D0A0057494649FB
:1040700020415049503D25642E25642E25642E256F
:10408000640D0A0057494649204150534E3D25646E
:104090002E25642E25642E25640D0A0057494649B5
:1040A00020415047573D25642E25642E25642E253A
:1040B000640D0A00574946492073746169643D25BF
:1040C000730D0A0057494649207374616B65793D49
:1040D00025730D0A000000005749464920535441FA
:1040E00049503D25642E25642E25642E25640D0A35
:1040F000000000005749464920535441534E3D2586
:10410000642E25642E25642E25640D0A000000000F
:10411000574946492053544147573D25642E25644D
:104120002E25642E25640D0A0000000057494649DB
:10413000205245504F52543D25730D0A0000000097
:1041400023232357494649206973204E4F232323B5
:104150000D0A000024242A2A2A2A2A2A2A2A524519
:1041600041442A2A2A2A2A2A2A2A57323551313208
:10417000382A2A2A2A2A2A2A2A454E442A2A2A2A38
:104180002A2A2A2A0D0A0D0A000000002323235799
:104190003535303020697320454E2323230D0A0026
:1041A0002323235749464920697320454E2323235F
:1041B0000D0A0000F8B50126314DF60231462846B9
:1041C000FCF7EEFF0927FF0601283FD104F068F84D
:1041D00031462846FCF7E4FF012825D036E00022CE
:1041E00004213C463846FCF7E0FF642004F058F810
:1041F000012204212046FCF7D8FF0024641CE4B20D
:1042000031462846FCF7CCFF012804D10A2004F0EF
:1042100047F8C82CF2D931462846FCF7C1FF0128DF
:10422000DDD0642004F03CF831462846FCF7B8FFA6
:104230000128F0D0642004F033F812A0FCF7DEFC73
:1042400005F04EFBFDF7E2FA05F056FB12A0FCF775
:10425000D5FC0524002204213846FCF7A6FF2820BF
:1042600004F01EF8012204213846FCF79EFF0F20BF
:1042700004F016F82046641EE4B20028EAD1F8BD26
:10428000000400482424204C6574204D43552052DE
:10429000737365740D0A0000242420506F776572D3
:1042A000206F6E0D0A0000003EB57D24E4006D46CF
:1042B0001CC50A46014601230148FDF7C3F83EBD6F
:1042C000B8050020F8B50F460B46154600920321AD
:1042D00004460022C90200F03BF82026002812D133
:1042E0003B46002280212046009500F09DF80028E2
:1042F00009D103213B46002249022046009500F0E7
:1043000027F8002803D0206E304320660320F8BD34
:1043100001B582B00A200090012301AA02A9034836
:10432000FDF732FE684600790EBD00000C06002045
:1043300001B582B00A200090012301AA02A9034816
:10434000FDF722FE684600790EBD000070060020D1
:10435000FFB585B00E460446002069460E9D1746FF
:104360000871FCF729FF411B0898451AFCF724FF48
:104370000390206823210C3002902A4800684843AB
:10438000000D684346E003204002864206D1002F1C
:1043900004D1029801786846017100790898401CA0
:1043A00039D0FCF709FF0399401AA84205D2002D25
:1043B00003D0009800282BD02BE020684168E02231
:1043C000914341606068C11FFD390CD10121A06893
:1043D000C903884202D04911884204D1206801688B
:1043E0004022914301600120A16A4003814207D12C
:1043F00021680A6882430A6021680A6802430A60E9
:1044000001204034607700202077032009B0F0BD00
:104410000025401E0090206880683040B842B2D12C
:104420000020F3E778020020FFB581B01E46044665
:104430000A9DFCF7C1FE401B351AFCF7BDFE07467E
:10444000264800684001000D684339E0701C38D0F0
:10445000FCF7B2FEC01BA84205D2002D03D0009885
:1044600000282BD02BE020684168E0229143416076
:104470006068C11FFD390CD10121A068C9038842C1
:1044800002D04911884204D120680168402291433A
:1044900001600120A16A4003814207D121680A68B6
:1044A00082430A6021680A6802430A60012040349E
:1044B000607700202077032005B0F0BD0025401E66
:1044C0000090206881680298884305D000210398F5
:1044D0008142BBD10020EFE70121F8E778020020FC
:1044E00070470000FF2608B5F5360024304603F07B
:1044F000D7FEFFF75FFE04F0C5FCFFF785F801F07B
:1045000083FE054626A0FCF779FBFCF797FB0927FD
:10451000FF06002204213846FCF747FE304603F030
:10452000BFFE012204213846FCF73FFE304603F06F
:10453000B7FE002D02D0002C25D027E01E480178C0
:10454000012902D000F0E2F925E0002101701B48AA
:1045500001F0ACFE642003F0A3FE194801F012FE46
:10456000174801F085FE009015480379427981795A
:1045700014A0FCF743FB124803784278817819A015
:10458000FCF73CFB07E01EA0FCF738FB641CE4B220
:104590000A2C00D30024012003F082FEB9E70000BA
:1045A0002424205374617274205573657220546101
:1045B000736B0D0A00000000B4000020AC00002066
:1045C000A4000020242420796561723D32302564E6
:1045D0002C6D6F6E74683D25642C6461793D256493
:1045E0000D0A0000242420483D25642C4D3D2564FF
:1045F0002C533D25642C5765656B3D25640D0A00E1
:10460000242420426C383032352069732045727280
:104610002E2E2E0D0A00000010B5FDF795F805F0BE
:10462000CDFF012801D005F049FC10BD30B595B093
:1046300030216846FBF706FE00240F94032000900B
:1046400001200D9410941294019003900E941394F1
:10465000102004900003099000010C9402250A9098
:10466000119408950B946846FDF70CFA002801D0C8
:1046700072B6FEE707200C900E9401210D950F9461
:104680000CA8FDF745F9002801D072B6FEE72120FD
:1046900010901294139410A8FDF7C6F8002801D0CA
:1046A00072B6FEE715B030BD7047000010B5024885
:1046B000FDF7BFFD10BD0000D4060020F0B5026874
:1046C0001A4B1B4C984201D0A04203D17025AA433B
:1046D0004D682A43174D184E184F98420AD0A042F1
:1046E00008D0174CA04205D0A84203D0B04201D058
:1046F000B84205D11446032212029443CA682243E9
:104700008024A2434C69224302608A68C2620A681C
:104710008262984205D0A84203D0B04201D0B8428C
:1047200001D10969016301214161F0BD002C014003
:1047300000040040004001400044014000480140A6
:1047400000200040F8B5002003F040FD0027434C56
:10475000002815D0132826D0172833D01C280ED1B6
:1047600020781C2802D03EA0FCF748FA002001F077
:1047700033FE7D20C00003F093FD1C202070F8BDA7
:104780002078002802D03DA0FCF738FA41482023C9
:1047900002880121002004F0F7FE7D20000103F0D3
:1047A0007FFD2770F8BD2078132802D03AA0FCF7CF
:1047B00025FA642003F074FD13202070002003F01C
:1047C00034FDF8BD2078172802D03AA0FCF716FA7D
:1047D000002003F0CDFCC00703D00121002004F02D
:1047E00024FD002003F0CCFC0546401E6A2830D88A
:1047F000364E2A46F11C002004F0B6FB280A307021
:10480000757001253248B570A91E006803F058FE86
:104810003049314A0878082806D26B461880830050
:10482000D650401C087003E06846078016600D7083
:104830002748006803F0BEFE28486423002269462A
:10484000006803F0FDFD6846018825A0FCF7D6F955
:1048500002E0022003F024FD17208FE7480100202A
:104860002424573535303020746370536572766573
:104870007220636C6F73650D0A00000024245735A5
:10488000353030207463705365727665722E2E2E2B
:104890000D0A0000A00000202424573535303020B8
:1048A000746370536572766572206C697374656E9B
:1048B0000D0A0000242457353530302074637053BE
:1048C00065727665722052756E0D0A00BE0D00206D
:1048D000D80000200C0000209C020020C400002012
:1048E0002424573535303020507574517565756501
:1048F0002D3E6E65744272696467654D6F646275C2
:1049000073206D73673D25640D0A0000F8B5204CD7
:1049100002E00A2003F0C4FC20780128F9D0012726
:1049200027701C4801F02EFC002626701A4C194DE9
:10493000A088401C80B2A0801E2810D3284601F019
:1049400097FC00902B796A79A97914A0FCF756F9A5
:104950002B786A78A97819A0FCF750F9A6802078FE
:10496000002808D06088401C80B26080782801D977
:1049700026706680F8BDA8780028FBD168780028EA
:10498000F8D1FCF73BFA14A0FCF738F92770F0E7F0
:10499000B5000020A4000020B800002024242079C5
:1049A0006561723D323025642C6D6F6E74683D25F3
:1049B000642C6461793D25640D0A0000242420489C
:1049C0003D25642C4D3D25642C533D25642C5765B5
:1049D000656B3D25640D0A00242420232323232313
:1049E0002323232323303A3030206C65742F277320
:1049F00020636C65617220506172616D65746572CF
:104A00002323232323232323230D0A0010B5818C82
:104A1000C90707D001684A6801235B049A43836A87
:104A20001A434A60818C890707D501684A680123C7
:104A30001B049A43C36A1A434A60818C490707D50D
:104A400001684A6801239B049A43036B1A434A6036
:104A5000818C090707D501684A680123DB039A4363
:104A6000436B1A434A60818CC90607D50268916876
:104A700001231B039943836B19439160818C890641
:104A800007D501688A6801235B039A43C36B1A4305
:104A90008A60818C490612D503685A68012109058C
:104AA000046C8A4322435A60026C8A4207D102682E
:104AB000516803235B059943436C19435160818C12
:104AC000090607D501684A680123DB04806C9A4314
:104AD00002434A6010BD0000FEB50746002580373E
:104AE00004467D60FCF768FB01902068006826465C
:104AF00000076036002819DA2748009001210022BB
:104B000049052046019B00F02FF900280ED0EFF355
:104B10001080012181F3108821680A6880239A435C
:104B20000A6080F310882020E06729E02068006890
:104B3000400728D518480090012100228905204609
:104B4000019B00F011F900281DD0EFF31080012126
:104B500081F3108821680A68FF2321339A430A6091
:104B600080F31088EFF31080012181F31088216811
:104B70008A68520852008A6080F3108820203860CA
:104B800035760320FEBD2020E06738602566656627
:104B900035760020FEBD0000FFFFFF0110B5406A22
:104BA0000022014640314A834A82FDF711FC10BDC4
:104BB00010B5EFF31081012282F3108802681368A8
:104BC000FF242134A343136081F31088EFF3108195
:104BD000012282F31088026893685B085B0093608F
:104BE00081F31088016E01290BD1EFF310810122AE
:104BF00082F31088026813681024A343136081F3C2
:104C00001088202280210A5000210166816610BD93
:104C100070B5044680682169E2690843616900252E
:104C20001143084321680A68454B1A4002430A6051
:104C300021684868032212039043E26810434860E9
:104C4000A169206A2268084391680B231B029943DB
:104C5000014391603B492068884210D13A48006B7B
:104C60008007800F1AD0012805D0022805D003281C
:104C700016D1022115E0042113E0082111E0334987
:104C800088420BD03249884208D03249884205D048
:104C90003149884202D03149884201D1002100E0E7
:104CA00010210122E369D2032D482E4E934222D1D6
:104CB000002906D002290BD0042905D0082933D1B8
:104CC00017E0FCF7A9FE01E0FCF7B6FE002832D0A1
:104CD000616840004A088018FBF744FA0146103921
:104CE000B14221D81F49491C01400007400F084329
:104CF0001FE01046ECE7002906D002290BD004295A
:104D000005D0082910D111E0FCF786FE01E0FCF780
:104D100093FE00280FD061684A081018FBF722FAAA
:104D200001461039B14203D9012504E01046F2E7EB
:104D300080B22168C8600020A066E066284670BD89
:104D4000F369FFEF003801400010024000440040CA
:104D500000480040004C004000500040001401405A
:104D600000127A00EFFF0000FFB5064681B08036E2
:104D70000546044660350A9F2EE0781C2CD0FCF7CF
:104D80001BFA0499401AB84214D8002F12D0206898
:104D90000168490720D5C169C94309070CD4082710
:104DA00007622046FFF704FF776000202876012085
:104DB00005B0F0BD0320FBE7C069C04300050BD47C
:104DC00001202168C00208622046FFF7F1FE202082
:104DD000706000202876EDE72068C169029888435A
:104DE00005D0002103988142C7D00020E0E70121CF
:104DF000F8E7000010B50348FBF700FD0148FDF798
:104E0000FBFA10BDA407002070B5044600F08EF92F
:104E100000F034F901250926ED03F60600222946A3
:104E20003046FCF7C2F92020FFF772FA2002000E8C
:104E3000FFF76EFA2004000EFFF76AFAE0B2FFF700
:104E400067FA012229463046FCF7AFF900F016F95F
:104E500070BDF8B50646012715460C46FF0309202C
:104E600000223946C006FCF7A0F90320FFF750FAEC
:104E70002002000EFFF74CFA2004000EFFF748FA5C
:104E8000E0B2FFF745FA002405E0FF2000F06BF8E0
:104E90003055641CA4B2AC42F7D309200122394634
:104EA000C006FCF782F9F8BD70B501250926ED03AF
:104EB000F606002229463046FCF777F99F20FFF7D7
:104EC00027FAFF2000F04FF80402FF2000F04BF813
:104ED00000190402FF2000F046F8041901222946B7
:104EE0003046FCF762F9204670BD70B501250926F1
:104EF000ED03F606002229463046FCF756F99020CD
:104F0000FFF706FA0020FFF703FA0020FFF700FA88
:104F10000020FFF7FDF9FF2000F025F80402FF2034
:104F200000F021F8001984B2012229463046FCF72E
:104F30003CF9204670BD70B501250926ED03F60643
:104F4000002229463046FCF730F90520FFF7E0F94A
:104F5000FF2000F008F80446012229463046FCF7FD
:104F600024F9204670BD10B5FFF7D2F910BD00003E
:104F700010B50024FFF7B9FF014610A0FBF73EFE75
:104F8000FFF792FF124A014680180DD0012212034A
:104F9000801A0BD002280DD003280DD00DA0FBF7EE
:104FA0002DFE0124204610BD14A000E01BA0FBF73D
:104FB00025FEF7E721A0FAE728A0F8E72424466CAD
:104FC00061736849443D307825580D0A000000009F
:104FD000EBCF10FF242452656164446576696365F4
:104FE00049443D307825582D3ECEB4D6AAD0CDBA0E
:104FF000C5BCB0C6E4C8DDC1BF0D0A00242452659B
:10500000616444657669636549443D307825582D6F
:105010003E5732355131360D0A00000024245265C6
:10502000616444657669636549443D307825582D4F
:105030003E5732355133320D0A00000024245265A8
:10504000616444657669636549443D307825582D2F
:105050003E5732355136340D0A0000002424526583
:10506000616444657669636549443D307825582D0F
:105070003E573235513132380D0A000010B5FFF776
:105080005AFFC007FBD110BDF7B582B0264800908B
:10509000039815460605070B0120360D0003841BF7
:1050A000A24200D81446390301221203019100984C
:1050B000FFF7CFFE002006E000993218895CFF2937
:1050C00003D1401C80B2A042F6D3A04225D2019861
:1050D000FFF79AFE002006E002998319095C009A06
:1050E000401CD15480B2A042F6D301221203019990
:1050F000009800F02EF8A54213D00298002600195F
:10510000029003987F1C00190390281B012485B28C
:105110002403A542C7D82C46C5E722460399029826
:10512000E7E705B0F0BD00002C0E002070B50124AB
:105130000925E403ED06002221462846FCF735F850
:105140000620FFF7E5F8012221462846FCF72DF856
:1051500070BDF8B507460E46FF20C9B20130441AAB
:105160001546A24200D8144622463146384600F081
:105170000DF8A54209D0281B3F193619FF2485B226
:105180000134A542F0D82C46EEE7F8BDF8B5154637
:105190000C460646FFF7CAFF0127FF03092000223D
:1051A0003946C006FCF701F80220FFF7B1F82002EB
:1051B000000EFFF7ADF82004000EFFF7A9F8E0B2EB
:1051C000FFF7A6F8002404E0305DFFF7A1F8641CA7
:1051D000A4B2AC42F8D3092001223946C006FBF73D
:1051E000E4FFFFF74BFFF8BD08B50026184D194C3A
:1051F000F643334600226946286803F0A3F80028E6
:10520000F7D16846008803280ED27A214843215CF2
:105210000A0201194878801882B2782AE9D8002059
:10522000891C03F011FFE4E7A1280BD0B12809D0B5
:10523000B22807D0C12805D0C22803D0D12801D078
:10524000D228D6D1C0B2012102F00EFDD1E7000074
:10525000CC0000202A04002003F0DEFE04F07EF9DA
:1052600004F064F809490A4804F0D4F909A0FBF7EE
:10527000C5FC642003F014F80F4901200870FFF703
:1052800061FA642003F00CF8F9E700004001002007
:1052900038010020242450433D544350205365726C
:1052A0007665722057353530303D54435020536574
:1052B000727665720D0A00000900002086B0002792
:1052C000224E234CFF433B46002205A9306803F0E1
:1052D00039F80028F7D16846808A032822D27A213B
:1052E0004843215C001940780902401885B2782DA6
:1052F000E9D82A4617A1684600F0C8F8642219A127
:10530000684602F089FC322002F0CAFF6846808AB3
:105310007A21484301190A232A461348891CFDF7BC
:10532000D1FAD0E7A1280BD0B12809D0B22807D0F4
:10533000C12805D0C22803D0D12801D0D228C2D19B
:10534000C0B2022102F090FCBDE70000C8000020BE
:10535000BC02002041542B43495053454E443D303C
:105360002C2564004F4B0000A407002001240926CF
:105370002502F606002229463046FBF716FFFF20DD
:10538000F53002F08DFF012229463046FBF70DFF74
:10539000164802F085FF214615A0FBF72FFC02F00E
:1053A00079FB002810D0610018A0FBF727FC7D21B5
:1053B00020460901484302F073FF032C01D3012466
:1053C000E9E7641CA4B2E6E717490120087017A0BA
:1053D000FBF714FCC82002F063FF02F097FB0546C0
:1053E000642002F05DFF012DF7D1D4E7B80B000077
:1053F00024247769666920696E6974207374617208
:105400007420666F723D25640D0A000024247769BC
:10541000666920696E6974204572722064656C61EA
:10542000793D2564730D0A00090000202424776962
:10543000666920696E6974206973204F4B2C206D5A
:105440006F6462757320636F646520456E0D0A009A
:105450003EB57D24E4006D461CC50A460146012385
:105460000148FCF799F83EBDB80500200FB410B50F
:1054700003A9044B044A029800F06EF910BC08BC62
:1054800004B01847AD780008800200200FB410B5B2
:1054900004A9074B02AA039800F05EF9044602A98A
:1054A000002000F002FD204610BC08BC04B01847E4
:1054B000AB5E00087CB51D4616460C0001D0611E8F
:1054C00000E0002101910090054B6A4629463046D4
:1054D00000F042F9002C02D0009A002111707CBD2E
:1054E000955E000837B514460846064B6A462146C5
:1054F00000F032F904466946002000F0D6FC204650
:105500003EBD0000AB5E00082021020C01D010213E
:105510001046020A01D010460839020901D010468F
:10552000091F820801D01046891E420801D0881E3A
:105530007047081A7047F8B5040C8BB2264682B241
:105540005E430D0C1046370C584336048019002179
:10555000794116466E43370C360480197941264648
:105560006E438919F8BD30B47446641E2578641CF6
:10557000AB4200D21D46635D5B00E31830BC1847A8
:105580008307FF22DB0E9A408907090E9940002805
:1055900008DB830809489B001B18186890430843E0
:1055A000186070470007000F0838830804489B0004
:1055B0001B18D86990430843D861704700E400E0A5
:1055C00000ED00E002E008C8121F08C1002AFAD16D
:1055D00070477047002001E001C1121F002AFBD173
:1055E00070470000F0B51FB486B00998089A030D03
:1055F0000021024314D05148514A18185043051451
:105600001198012810981AD0281A401C00264D4FD6
:105610004D49009601910490002812DA444211E0AD
:105620001198012449A3012801D11098C14306987B
:10563000119A84600360C26041600BB0F0BD4042CB
:10564000E4E70446210500203F4A001C5141039134
:10565000029012E0E00707D032463B4601990098DD
:10566000FAF708FF0191009032463B461046194672
:10567000FAF700FF06460F466410002CEAD10498A2
:10568000039B0028029A0999089806DAFAF7F2FEB5
:10569000019B009AFAF7EEFE05E0FAF753FF019B33
:1056A000009AFAF74FFF04460E460022284BFAF7FD
:1056B000E1FF03D80020C043014607E00022254B4C
:1056C00020463146FAF722FEFAF7B4FF102409E02B
:1056D000002C0ADB0A220023FAF75AFD079B30321E
:1056E0001A55641E02460A43F2D11122641C079B1C
:1056F000121B1C19119B012B03D0012308430ED14F
:105700000AE0084304D0112010900020119077E7A0
:105710001098151A6D1E0BE01098824202DD0023CE
:105720006D1C03E0824201DA00236D1E002BEED0D7
:10573000069811998260C16030C07EE701FCFFFFCE
:10574000104D0000000014400000F03F3000000049
:105750000000F0430000E03FFFB597B0064600258B
:105760001BE2252876D100242746F749049400E05F
:105770000443761C32780120203A90400842F7D149
:1057800030782A280ED00222307801463039092993
:1057900016D804990A235943303940181443761C0B
:1057A0000490F1E7189802C804911890002904DACF
:1057B0000120400304434842049002200443761C25
:1057C00030782E2814D1042004437078761C2A28BF
:1057D00009D11898761C80C8189009E00A214F4317
:1057E000303FC719761C3078014630390929F5D980
:1057F00030786C2810D006DC4C281AD068280ED0DF
:105800006A2817D104E0742813D07A2812D110E046
:105810000120400504430CE00121090501E00321BA
:1058200009050C437178814203D101200005241839
:10583000761C761C307866280BD013DC58287DD077
:1058400009DC00287BD04528F6D04628F4D047282C
:105850001AD1A9E118E0632835D0642870D06528F2
:1058600012D1A1E170286CD008DC6728F1D069283A
:105870007DD06E280DD06F2806D1BCE073282ED0C5
:10588000752873D0782859D01A9A199990476D1CA9
:1058900082E16002400F022809D003280DD00428BD
:1058A000189801680DD00D60001D189074E11898CB
:1058B000EA1701680D604A60F6E7189801680D80E4
:1058C000F2E70D70F0E718986A4601781172001D32
:1058D00018900020507202A80090012005E018984E
:1058E00002C8189000200091C04361070ED5002126
:1058F00001E00199491C0191B94213DA8142F8DBB8
:10590000019A0099895C0029F3D10BE0002101E0A4
:105910000199491C01918142FADB019A0099895C45
:105920000029F5D1019904981A9B471A2146384657
:10593000199A00F099FA4019019903E051E030E119
:1059400015E050E0451807E0009800990078491CE0
:1059500000911A9A199990470198401E0190401C95
:10596000F2D1214638461A9B199A12E137E00A20F3
:105970000021009001916002410F022907D0189A7E
:1059800001CA1892C2179446032908D00AE0189851
:10599000C01DC108C90005C91891944607E000B2AE
:1059A000C2179446042902D140B2C1178C46002286
:1059B0006146944506DA0A460021404291418C46F0
:1059C0002D2102E0210504D52B216A461173012106
:1059D00003E0E10701D02021F7E7029156E00A2019
:1059E0000AE0102008E01020009000210420044369
:1059F0000191082703E00820002101910090600236
:105A0000410F022907D0189A01CA18920022944621
:105A1000032908D008E01898C01DC108C90005C9AD
:105A20001891944603E080B2042900D1C0B200214D
:105A3000029121072AD531780D91702906D0009A5C
:105A40001021019B4A401A4305D00EE040216A46CE
:105A50001173012108E06146014306D030216A46F6
:105A600011730D99517302210291009A0821019B33
:105A70004A401A430AD16146014301D1610705D565
:105A800030216A46117301217F1E02913178582915
:105A900004D02EA10E910DA90D910DE030A1F9E7D2
:105AA0006146019B009AFAF773FB0E9B8C469B5C48
:105AB0000D9A521E0D92137061460143F0D10D985C
:105AC00005A9081A20300190600703D501200004C1
:105AD000844300E001270198874201DD381A00E085
